:100000000C942C0D0C94590D0C94590D0C94590D05
:100010000C94590D0C94590D0C94590D0C94590DC8
:100020000C94590D0C94590D0C94590D0C94590DB8
:100030000C94590D0C94590D0C94590D0C94590DA8
:100040000C94590D0C946EA40C94590D0C94590DEC
:100050000C94590D0C94590D0C9411AD0C94F62977
:100060000C94590D0C94603C0C94590D0C94590D42
:100070000C94590D0C94590D0C94590D0C94590D68
:100080000C94590D0C94590D0C94590D0C94590D58
:100090000C94590D0C94590D0C94590D0C94590D48
:1000A0000C94590D0C94590D0C94590D0C94590D38
:1000B0000C94590D0C94590D0C94590D0C94590D28
:1000C0000C94590D0C94590D0C94590D0C94590D18
:1000D0000C94590D0C94590D0C94590D0C94590D08
:1000E0000C94590D084AD73B3BCE016E84BCBFFD32
:1000F000C12F3D6C74319ABD56833DDA3D00C77FF8
:1001000011BED9E4BB4C3E916BAAAABE0000008090
:100110003F05A84CCDB2D44EB93836A9020C50B91F
:10012000918688083CA6AAAA2ABE000000803F004B
:10013000002100240027002A002D00300033000198
:10014000010000040107010A010000220025002827
:10015000002B002E003100340002010000050108D0
:10016000010B01000020002300260029002C002F95
:100170000032000001000003010601090105050528
:1001800005070508080808020202020A0A0808040E
:10019000040404010101010101010103030303033C
:1001A000030303040707070C0C0C0C0C0C0C0C02CB
:1001B00002020206060606060606060B0B0B0B0BD2
:1001C0000B0B0B01021020200808102040102040CB
:1001D000800201020108040201010204081020400B
:1001E0008080402010080402018004020180402029
:1001F0001008040201080402010102040810204052
:100200008001020408102040800000090A02080B47
:100210000C0D0706030401000000000000000000B0
:1002200000000000000000000000000000000000CE
:10023000000000000011100F00000000000000008E
:100240000000000000000000000000000000006549
:1002500063686F3A0053746F7265642073657474D9
:10026000696E6773207265747265697665643A00B9
:100270002044002049002020204D33303120500000
:100280005049442073657474696E67733A00205A4C
:100290000020590020204D323036205800486F6D24
:1002A00065206F666673657420286D6D293A00209D
:1002B0004500205A002058002042002054002020F1
:1002C0004D323035205300416476616E63656420A1
:1002D0007661726961626C65733A20533D4D696E57
:1002E00020666565647261746520286D6D2F7329C1
:1002F0002C20543D4D696E2074726176656C2066C9
:100300006565647261746520286D6D2F73292C20DA
:10031000423D6D696E696D756D207365676D656EC3
:10032000742074696D6520286D73292C20583D6DEB
:100330006178696D756D207859206A65726B202827
:100340006D6D2F73292C20205A3D6D6178696D7574
:100350006D205A206A65726B20286D6D2F732900FD
:1003600020540020204D3230342053004163636517
:100370006C65726174696F6E3A20533D61636365A9
:100380006C65726174696F6E2C20543D7265747275
:1003900061637420616363656C65726174696F6E1B
:1003A00000204500205A0020590020204D323031D5
:1003B0002058004D6178696D756D20416363656CEF
:1003C00065726174696F6E20286D6D2F7332293AE2
:1003D00000204500205A0020590020204D323033A3
:1003E0002058004D6178696D756D20666565647291
:1003F0006174657320286D6D2F73293A00204500C4
:10040000205A0020590020204D39322058005374C2
:100410006570732070657220756E69743A0053655B
:100420007474696E67732053746F7265640041A0C1
:1004300042A1E045A3A4A5A64BA74D484FA8504311
:1004400054A9AA58E1ABACE2ADAE62AFB0B161B2B3
:10045000B3B4E365B6B7B8B9BABBBCBD6FBE706321
:10046000BF79E478E5C0C1E6C2C3C4C5C6C7656349
:10047000686F3A004572726F723A0053544F505091
:1004800045442E20005072696E7465722073746F3B
:10049000707065642064756520746F206572726F7A
:1004A00072732E2046697820746865206572726FB9
:1004B0007220616E6420757365204D39393920745E
:1004C0006F20726573746172742E202854656D708C
:1004D00065726174757265206973207265736574E5
:1004E0002E205365742069742061667465722072D1
:1004F000657374617274696E6729004B494C4C4591
:10050000442E20005072696E7465722068616C74AC
:1005100065642E206B696C6C28292063616C6C65A6
:100520006421006F6B00526573656E643A2000228F
:1005300000556E6B6E6F776E20636F6D6D616E64CC
:100540003A2022002200556E6B6E6F776E20636F2B
:100550006D6D616E643A2022007A5F6D61783A2099
:10056000007A5F6D696E3A2000795F6D61783A209C
:1005700000795F6D696E3A2000785F6D61783A208E
:1005800000785F6D696E3A20005A3A00593A0020AF
:10059000436F756E7420583A2000453A005A3A006D
:1005A000593A00583A004649524D574152455F4E1C
:1005B000414D453A4D61726C696E2056313B205376
:1005C0007072696E7465722F6772626C206D6173F0
:1005D00068757020666F722067656E3620464952D6
:1005E0004D574152455F55524C3A687474703A2FDA
:1005F0002F6669726D776172652E756C74696D61B5
:100600006B65722E636F6D2050524F544F434F4CA9
:100610005F56455253494F4E3A312E30204D41439B
:1006200048494E455F545950453A556C74696D615F
:100630006B65722045585452554445525F434F559F
:100640004E543A310A0042656420646F6E652E0094
:1006500020423A0020453A00543A0042656420485E
:10066000656174696E672E0048656174696E672004
:10067000646F6E652E0020573A0020453A00543AC8
:100680000048656174696E672E2E2E002042403A44
:100690000020403A00202F0020423A00202F006F17
:1006A0006B20543A002569206D696E2C2025692045
:1006B00073656300456E642066696C65206C6973C0
:1006C0007400426567696E2066696C65206C6973A9
:1006D00074004E6F206D6F76652E0057616974202F
:1006E000666F7220757365722E2E2E00536C6565D1
:1006F000702E2E2E00000000000000000000000000
:100700000000000000000000000000000000004D9C
:100710004300004D430000484300004D4300004D9E
:1007200043000048430000A0400000A040000080BB
:100730003FFFFFFF2569206D696E2C20256920731E
:10074000656300446F6E65207072696E74696E67D0
:100750002066696C650053544F505045442E20006C
:100760005072696E7465722073746F707065642066
:1007700064756520746F206572726F72732E2046E7
:10078000697820746865206572726F7220616E648A
:1007900020757365204D39393920746F2072657367
:1007A000746172742E202854656D70657261747561
:1007B00072652069732072657365742E20536574A9
:1007C0002069742061667465722072657374617249
:1007D00074696E6729006F6B004E6F204C696E65FF
:1007E000204E756D62657220776974682063686554
:1007F000636B73756D2C204C617374204C696E654E
:100800003A20004E6F20436865636B73756D2077E7
:10081000697468206C696E65206E756D6265722CF6
:10082000204C617374204C696E653A2000636865E2
:10083000636B73756D206D69736D617463682C20D3
:100840004C617374204C696E653A20004C696E658A
:10085000204E756D626572206973206E6F74204C36
:10086000617374204C696E65204E756D6265722BE4
:10087000312C204C617374204C696E653A20004D18
:1008800031313000446F6E6520736176696E672088
:1008900066696C652E006F6B004D32390020205068
:1008A0006C616E6E657242756666657242797465DA
:1008B000733A20002046726565204D656D6F727930
:1008C0003A20004465632031372032303132004312
:1008D0006F6D70696C65643A2000286E6F6E652CD0
:1008E0002064656661756C7420636F6E6669672944
:1008F00000207C20417574686F723A200044656363
:1009000020313720323031322031363A33363A34E2
:100910003900204C61737420557064617465643AC9
:100920002000312E302E30004D61726C696E200037
:1009300020536F6674776172652052657365740029
:10094000205761746368646F672052657365740033
:100950002042726F776E206F7574205265736574D4
:10096000002045787465726E616C20526573657401
:1009700000506F7765725570007374617274002255
:1009800000656E717565696E672022002200656ED4
:10099000717565696E672022007C3C3E5E2B3D3F91
:1009A0002F5B5D3B2C2A225C000D0A004D38342061
:1009B000582059205A2045006563686F3A0043610A
:1009C0006E6E6F7420656E746572207375626469F3
:1009D000723A20004D3234004D32332025730061CD
:1009E00075746F25692E67004572726F723A0065E3
:1009F00072726F722077726974696E6720746F20EB
:100A000066696C65004E6F74205344207072696E85
:100A100074696E67002F005344207072696E7469A8
:100A20006E67206279746520002E0044656C6574E1
:100A3000696F6E206661696C65642C2046696C651F
:100A40003A200046696C652064656C657465643A9B
:100A5000002E006F70656E206661696C65642C20E5
:100A600046696C653A200057726974696E67207434
:100A70006F2066696C653A20002E006F70656E20ED
:100A80006661696C65642C2046696C653A20002EAD
:100A9000006F70656E206661696C65642C20466924
:100AA0006C653A200046696C652073656C656374FB
:100AB0006564002053697A653A200046696C6520B8
:100AC0006F70656E65643A20002E006F70656E2051
:100AD0006661696C65642C2046696C653A20005338
:100AE000442063617264206F6B006F70656E526F9B
:100AF0006F74206661696C656400766F6C756D65F6
:100B00002E696E6974206661696C656400534420C7
:100B1000696E6974206661696C006563686F3A008C
:100B200020746F6F206C6F6E6720657874727573B8
:100B3000696F6E2070726576656E746564002063FF
:100B40006F6C6420657874727573696F6E20707253
:100B50006576656E7465640024F404D9201BC40CAA
:100B60005C0E9804C4095F0265077101F405F90081
:100B7000FB04B30048048700C10369005803550013
:100B800003034500BE023A008402310053022A00EA
:100B90002902250004022000E4011C00C8011900FC
:100BA000AF011700980114008401130071011000B7
:100BB0006101100051010E0043010D0036010B00D0
:100BC0002B010B0020010B00150109000C0109008D
:100BD00003010800FB000800F3000800EB00070019
:100BE000E4000600DE000600D8000600D200060081
:100BF000CC000500C7000500C2000500BD000400D0
:100C0000B9000400B5000400B1000400AD00040008
:100C1000A9000400A5000300A20003009F00040037
:100C20009B0003009800030095000200930003005E
:100C3000900003008D0002008B000300880002007A
:100C40008600020084000300810002007F00020091
:100C50007D0002007B0002007900020077000100A5
:100C600076000200740002007200010071000200B0
:100C70006F0002006D0001006C0002006A000100BC
:100C800069000200670001006600010065000100C4
:100C900064000200620001006100010060000100C8
:100CA0005F0002005D0001005C0001005B000100CC
:100CB0005A000100590001005800010057000100CE
:100CC00056000100550001005400010053000000CF
:100CD00053000100520001005100010050000100CA
:100CE0004F0001004E0000004E0001004D000100C9
:100CF0004C0001004B0000004B0001004A000100C5
:100D000049000100480000004800010047000100C0
:100D100046000000460001004500000045000100BB
:100D200044000100430000004300010042000000B5
:100D300042000100410000004100010040000100AC
:100D40003F0000003F0001003E0000003E000100A7
:100D50003D0000003D0001003C0000003C000000A0
:100D60003C0001003B0000003B0001003A00000095
:100D70003A0001003900000039000100380000008D
:100D80003800000038000100370000003700010083
:100D9000360000003600000036000100350000007B
:100DA0003500000035000100340000003400000070
:100DB0003400010033000000330000003300010064
:100DC000320000003200000032000100310000005B
:100DD0003100000031000100300000003000000050
:100DE000300001002F0000002F0000002F00000045
:100DF0002F0001002E0000002E0000002E00010038
:100E00002D0000002D0000002D0000002D0001002D
:100E10002C0000002C0000002C0000002C00010021
:100E20002B0000002B0000002B0000002B00010015
:100E30002A0000002A0000002A0000002A00010009
:100E400029000000290000002900000029000000FE
:100E500029000100280000002800000028000000F0
:100E600028000000280001002700000027000000E3
:100E700027000000270000002700010026000000D6
:100E800026000000260000002600000026000100C9
:100E900025000000250000002500000025000000BE
:100EA00025000000250001002400000024000000AF
:100EB00024000000240000002400010023000000A2
:100EC0002300000023000000230000002300000096
:100ED0002300000023000100220000002200000087
:100EE0002200000022000000220000002200010079
:100EF000210000002100000021000000210000006E
:100F0000210000002100000021000100200000005D
:100F10002000000020000000200000002000000051
:100F20002000000020000000200001001F00000041
:100F30001F0000001F0000001F0000001F00000035
:100F40001F0000001F0001001E0000001E00000026
:100F50001E0000001E00000024F4D43050C38E2078
:100F6000C2A24017828B7011127A910D816CD90A3E
:100F7000A861E108C7586607615143061E4B5D052D
:100F8000C145A7041A411104093D98037139310381
:100F90004036DB0265339102D4305402802E1D02AC
:100FA000632CEE01752AC501B028A001102781012C
:100FB0008F2564012B244B01E0223401AC211F0159
:100FC0008D200D01801FFC00841EED00971DDF00A9
:100FD000B81CD200E61BC600201BBC00641AB2007D
:100FE000B219A8000A19A0006A189900D117910037
:100FF00040178B00B516840031167E00B3157900BA
:101000003A157300C7146F0058146A00EE13660097
:101010008813630025135E00C7125B006C12570033
:1010200015125400C111510070114F0021114B00D5
:10103000D61049008D1047004610440002104200AF
:10104000C00F4000800F3E00420F3C00060F3B00E7
:10105000CB0E3800930E37005C0E3500270E34009F
:10106000F30D3200C10D3100900D3000600D2E00E7
:10107000320D2D00050D2C00D90C2B00AE0C2900D3
:10108000850C29005C0C2700350C27000E0C26006F
:10109000E80B2400C40B2400A00B23007D0B2300CD
:1010A0005A0B2100390B2100180B2000F80A1F00F1
:1010B000D90A1E00BB0A1E009D0A1D00800A1D00E1
:1010C000630A1C00470A1B002C0A1B00110A1A00A5
:1010D000F7091A00DD091900C4091900AB09190044
:1010E000920917007B091800630917004C091600C4
:1010F00036091600200916000A091500F508150022
:10110000E0081400CC081400B8081400A408140067
:10111000900813007D0812006B0813005808120095
:1011200046081200340811002308110012081100AB
:1011300001081100F0071000E0071000D0071000B0
:10114000C0071000B0070F00A107100091070E00A4
:1011500083070F0074070F0065070E0057070E0086
:1011600049070E003B070D002E070E0020070D005B
:1011700013070D0006070D00F9060C00ED060D0023
:10118000E0060C00D4060C00C8060C00BC060C00DF
:10119000B0060C00A4060B0099060C008D060B008F
:1011A00082060B0077060B006C060B0061060A0036
:1011B00057060B004C060A0042060A0038060A00D1
:1011C0002E060A0024060A001A060A001006090064
:1011D00007060A00FD050900F4050900EB050900F2
:1011E000E2050900D9050900D0050900C705090075
:1011F000BE050900B5050800AD050800A5050900F4
:101200009C050800940508008C050800840508006A
:101210007C050800740508006C05070065050800DA
:101220005D050700560508004E0507004705070045
:101230004005080038050700310507002A050700AA
:10124000230507001C050600160507000F0507000B
:101250000805060002050700FB040600F504070068
:10126000EE040600E8040600E2040700DB040600C2
:10127000D5040600CF040600C9040600C304060016
:10128000BD040600B7040600B1040500AC04060066
:10129000A6040600A00405009B04060095040500B2
:1012A000900406008A0405008504050080040600F9
:1012B0007A04050075040500700405006B04050040
:1012C00066040500610405005C0405005704050080
:1012D000520405004D0405004804050043040500C0
:1012E0003E0404003A0405003504050030040400FF
:1012F0002C04050027040400230405001E04040038
:101300001A04040016040500110404000D0404006E
:10131000090405000404040000040400FC030400A4
:10132000F8030400F4030400F0030400EC030400D9
:10133000E8030400E4030400E0030400DC03040009
:10134000D8030400D4030400D0030400CC03040039
:10135000C8030300C50303006563686F3A00205AA1
:101360003A0020593A0020583A00656E6473746F51
:101370007073206869743A20004572726F723A0087
:101380004572723A204D415854454D5020424544D3
:101390000054656D70657261747572652068656171
:1013A000746564206265642073776974636865643A
:1013B000206F66662E204D415854454D5020747262
:1013C00069676765726564202121004572723A2061
:1013D0004D494E54454D50003A204578747275641D
:1013E0006572207377697463686564206F66662E22
:1013F000204D494E54454D5020747269676765729F
:1014000065642021004572723A204D415854454D83
:1014100050003A204578747275646572207377695C
:101420007463686564206F66662E204D415854458C
:101430004D502074726967676572656420210020D1
:101440002D20496E76616C696420657874727564CC
:101450006572206E756D6265722021006563686F2C
:101460003A0048656174696E67206661696C6564FD
:1014700000504944204175746F74756E652066692B
:101480006E6973686564202120506C616365207407
:101490006865204B702C204B6920616E64204B6482
:1014A00020636F6E7374616E747320696E2074684C
:1014B0006520636F6E66696775726174696F6E2E01
:1014C0006800504944204175746F74756E652066DC
:1014D00061696C6564212074696D656F75740020A5
:1014E000403A006F6B20543A006F6B20423A005034
:1014F0004944204175746F74756E65206661696C2E
:101500006564212054656D70657261747572652023
:10151000746F206869676800204B643A2000204B94
:10152000693A2000204B703A200020436C617369B7
:10153000632050494420002054753A2000204B7508
:101540003A2000206D61783A2000206D696E3A20C3
:101550000020643A200020626961733A20002D2D3A
:101560003A2D2D002D2D2D0053440020590001202F
:10157000004E6F20436172640043617264204D65C8
:101580006E750053746F70205072696E74005265EE
:1015900073756D65205072696E7400506175736566
:1015A000205072696E7400436F6E74726F6C0050DD
:1015B0007265706172650054756E65005761746381
:1015C0006800052E2E004D61696E004D3234004DCD
:1015D0003233202573004D383420582059205A20AA
:1015E0004500526573746F7265204661696C736162
:1015F0006665004C6F6164206D656D6F7279005394
:10160000746F7265206D656D6F72790052657472CA
:10161000616374004D6F74696F6E0054656D706521
:10162000726174757265004D61696E00556E526528
:101630007420204600556E52657420204600556E79
:10164000526574202B6D6D00556E526574202B6DA4
:101650006D00486F70206D6D00486F70206D6D00DB
:101660005265747261637420204600526574726121
:1016700063742020460052657472616374206D6D3E
:101680000052657472616374206D6D004F66660070
:101690004F6E20004F6666004F6E20004175746FDC
:1016A000526574722E00436F6E74726F6C004573D6
:1016B000746570732F6D6D004573746570732F6D55
:1016C0006D005A73746570732F6D6D005A73746575
:1016D00070732F6D6D005973746570732F6D6D008D
:1016E0005973746570732F6D6D00587374657073E2
:1016F0002F6D6D005873746570732F6D6D00412DE3
:101700007265747261637400412D726574726163F5
:101710007400416D6178206500416D61782065003D
:10172000416D6178207A00416D6178207A00416DC9
:101730006178207900416D6178207900416D617890
:10174000207800416D6178207800565472617620CF
:101750006D696E005654726176206D696E00566D2B
:10176000696E00566D696E00566D61782065005691
:101770006D6178206500566D6178207A00566D6144
:1017800078207A00566D6178207900566D61782056
:101790007900566D6178207800566D617820780068
:1017A0005678792D6A65726B005678792D6A657264
:1017B0006B00416363656C00416363656C00436F5C
:1017C0006E74726F6C00507265686561742041427E
:1017D0005320436F6E6600507265686561742050D7
:1017E0004C4120436F6E66005049442D43005049E0
:1017F000442D43005049442D44005049442D440099
:101800005049442D49005049442D49005049442D28
:1018100050005049442D500020022046616374005E
:1018200020022046616374002002204D6178002070
:1018300002204D6178002002204D696E00200220B8
:101840004D696E004F6666004F6E20004F66660061
:101850004F6E20004175746F74656D700046616E47
:101860002073706565640046616E20737065656401
:10187000004E6F7A7A6C65004E6F7A7A6C65004321
:101880006F6E74726F6C0053746F7265206D656D4E
:101890006F7279004E6F7A7A6C65004E6F7A7A6C4F
:1018A000650046616E2073706565640046616E2058
:1018B00073706565640054656D70657261747572EE
:1018C000650053746F7265206D656D6F7279004E9F
:1018D0006F7A7A6C65004E6F7A7A6C650046616E3D
:1018E0002073706565640046616E20737065656481
:1018F0000054656D7065726174757265004D6F7628
:10190000652041786973004D3130342053300A4DE1
:1019100031343020533000436F6F6C646F776E004A
:101920005072656865617420414253005072656869
:1019300065617420504C4100473238004175746F26
:1019400020486F6D65004D38340044697361626CE6
:1019500065205374657070657273004D61696E0027
:101960004D6F766520302E316D6D004D6F766520A0
:10197000316D6D004D6F76652031306D6D005072A8
:101980006570617265004578747275646572004DAA
:101990006F7665205A004D6F76652059004D6F7641
:1019A000652058004D6F7665204178697300457851
:1019B000747275646572005A0059005800466C6F65
:1019C0007700466C6F770046616E207370656564C2
:1019D0000046616E207370656564004E6F7A7A6CA4
:1019E00065004E6F7A7A6C650053706565640053CC
:1019F00070656564004D61696E00436172642072B8
:101A0000656D6F766564004361726420696E73650D
:101A10007274656400494E46494E4954594E414ED0
:101A2000CDCCCC3D0AD7233C17B7D13877CC2B325D
:101A30009595E6241FB14F0A000020410000C842DE
:101A400000401C4620BCBE4CCA1B0E5AAEC59D743D
:101A5000133D3340B5ED2C4011241FBECFEFD1E232
:101A6000DEBFCDBF00E00CBF14E0A0E0B2E0E2EDCD
:101A7000FFEE01E00BBF02C007900D92A23BB10741
:101A8000D9F71BBE10E1A2EBB4E001C01D92AE3B42
:101A9000B107E1F71AE1C6E5DAE104C02297FE01D9
:101AA0000E94D8F7C035D107C9F70E94D1290C94FC
:101AB000E8110C940000CF93DF93BC0182309105B4
:101AC00010F462E070E0A091BA10B091BB10ED018B
:101AD000E0E0F0E040E050E021C088819981861785
:101AE000970769F48A819B81309719F093838283E9
:101AF00004C09093BB108093BA10FE0134C06817E5
:101B0000790738F44115510519F08417950708F441
:101B1000AC01FE018A819B819C01E9012097E9F6D5
:101B200041155105A9F1CA01861B970B049708F4CA
:101B3000BA01E0E0F0E02AC08D919C9111978417E2
:101B40009507F9F46417750781F412968D919C91AD
:101B50001397309719F09383828304C09093BB103E
:101B60008093BA10FD0132964CC0CA01861B970BB8
:101B7000FD01E80FF91F6193719302978D939C9378
:101B800040C0FD01828193819C01D9011097A1F68B
:101B90008091B8109091B910892B41F4809147033E
:101BA000909148039093B9108093B81040914903E5
:101BB00050914A034115510541F44DB75EB78091EC
:101BC000450390914603481B590B2091B810309162
:101BD000B910CA01821B930B8617970780F0AB01DF
:101BE0004E5F5F4F8417950750F0420F531F50937D
:101BF000B9104093B810F9016193719302C0E0E00D
:101C0000F0E0CF01DF91CF910895CF93DF9300975C
:101C100009F450C0EC0122971B821A82A091BA10DD
:101C2000B091BB10109709F140E050E0AC17BD0730
:101C300008F1BB83AA83FE0121913191E20FF31FCA
:101C4000AE17BF0779F48D919C911197280F391F1A
:101C50002E5F3F4F3983288312968D919C91139765
:101C60009B838A834115510571F4D093BB10C093B7
:101C7000BA1020C012968D919C911397AD010097D8
:101C800011F0DC01D3CFFA01D383C28321913191CA
:101C9000E20FF31FCE17DF0769F488819981280FBF
:101CA000391F2E5F3F4FFA01318320838A819B8148
:101CB00093838283DF91CF910895A0E0B0E0E3E6C3
:101CC000FEE00C94A1F76C01009729F4CB010E946F
:101CD0005B0D6C01C1C08EEF882E8FEF982E8C0C9F
:101CE0009D1C8601060F171F0815190508F4B2C0C0
:101CF000F401A081B181A617B707B8F0A530B105EE
:101D000008F4AAC0CD0104978617970708F4A4C069
:101D10001297A61BB70BF801A193B193D4016D9351
:101D20007C93CF010E94050E97C07B01EA1AFB0A43
:101D3000EEEFFFEFEE0EFF1E36016A0E7B1EC09126
:101D4000BA10D091BB1044245524AA24BB244AC005
:101D5000C615D705E1F5488159814E155F05B8F1E3
:101D6000CA0104978E159F05B0F41296A40FB51FF3
:101D7000F401B183A0832A813B814114510431F0E5
:101D8000D20113963C932E93129766C03093BB10EA
:101D90002093BA1061C08A819B81F801938382836A
:101DA000425050404E195F09518340834114510401
:101DB00031F0D20113961C930E93129704C0109326
:101DC000BB100093BA10F4017183608345C0888111
:101DD0009981A816B90608F45C012E018A819B81BD
:101DE0009C01E901209709F0B3CF8091B810909140
:101DF000B91086159705E9F4A616B706D0F4209118
:101E0000490330914A032115310541F42DB73EB7FE
:101E10008091450390914603281B390B0217130745
:101E2000C8F41093B9100093B810D4016D937C934B
:101E300013C0CB010E945B0DEC01009759F0F40137
:101E400040815181B6010E944912C6010E94050ECF
:101E50006E0102C0CC24DD24C601CDB7DEB7E0E1BF
:101E60000C94BDF7A0E0B0E0E8E3FFE00C94A5F728
:101E7000EC015B016115710519F0FB019183808311
:101E8000F9908F2D90E00E9475F2892BC9F7FDE241
:101E9000FF1621F4F990EE24E39405C02BE2F2162C
:101EA00009F4F990EE248E0101501040C80165E15B
:101EB0007AE143E050E00E94FB11892B01F58E018D
:101EC0000E5F1F4FC80168E17AE145E050E00E94D3
:101ED000FB11892B19F48E01095F1F4FA114B10466
:101EE00019F0F50111830083E0FC04C070E090E07C
:101EF00080E814C070E090E080E86FEF08C1C8018E
:101F00006DE17AE143E050E00E94FB11892B69F416
:101F1000A114B10429F470E090E080EC6FE7F7C001
:101F20002296F501D183C083F6CF8824992440E01E
:101F300050E060E070E0EF2DE053EA30A0F5F2E011
:101F4000EF2A8E2D90E09C0128703070E2FE06C0D2
:101F5000232B79F50894811C911C2BC0232B19F09D
:101F6000089481089108DB01CA0112E0880F991FCB
:101F7000AA1FBB1F1A95D1F7480F591F6A1F7B1F55
:101F8000440F551F661F771F4E0F511D611D711D98
:101F9000483929E9520729E9620729E1720748F01F
:101FA00084E0E82A06C0EE3F31F4E3FC39C098E053
:101FB000E92AF990C0CFE53311F0E53189F529918F
:101FC0002D3219F4E0E1EE2A05C02B3219F081E040
:101FD00090E003C0299182E090E0E22FE053EA30E4
:101FE00018F0C81BD90B1CC020E030E0FCE0203802
:101FF0003F075CF4C901880F991F880F991F280FAC
:10200000391F220F331F2E0F311DE991E053EA30A3
:1020100068F3E4FE03C0309521953F4F820E931E76
:10202000CE2CDD24E1FE07C0A114B10421F02197DC
:10203000F501D183C083CB01BA010E9407F47B0173
:102040008C01F3E0CF22DD2423E0C216D10421F479
:1020500017FB109517F9109557016801C801B701D2
:1020600020E030E040E050E00E9467F3882309F46C
:102070004AC097FE0DC024E3E22E2AE1F22E90948E
:10208000819491089394C0E2D0E000E010E012C087
:102090009CE4E92E9AE1F92EF6CFF70125913591CE
:1020A00045915491C601B5010E9447F65B016C0150
:1020B0008C1A9D0A8C169D0684F7D595C7950F5FDF
:1020C0001F4F0630110529F08CEF9FEFE80EF91E27
:1020D000F1CFC501D6017C018D018C2D880F8D2D8E
:1020E000881F8F3F51F0C601B50120E030E040E08D
:1020F00050E00E9467F3882331F482E290E09093ED
:10210000BD108093BC107E2D9F2D802F612F272F17
:10211000392F482F562FB901CA01CDB7DEB7ECE0F1
:102120000C94C1F72F923F925F926F927F928F92A1
:102130009F92AF92BF92CF92DF92EF92FF920F9356
:102140001F93CF93DF938C011B01EA016115710589
:1021500019F0FB0191838083209749F0CE0102970B
:10216000839728F020E030E040E050E0F6C0F8012E
:10217000A1908F018A2D90E00E9475F2892BB9F70A
:10218000FDE2AF1631F4F801A1908F01552453946C
:1021900007C0FBE2AF1619F4F801A1908F01552496
:1021A000209719F0C031D105C1F4F0E3AF1679F4EE
:1021B000F8018081883711F0883549F4F801A18051
:1021C0000E5F1F4FF2E05F2AC0E1D0E006C020970B
:1021D00021F480E3A816E9F427C0C830D10531F115
:1021E000C930D10524F4C230D10531F50CC0CA3054
:1021F000D10589F0C031D105F9F4C12CD12CE12CE5
:10220000B8E0FB2E28C0C12CD12CE12CA0E4FA2E82
:1022100022C0CAE0D0E0FCECCF2EFCECDF2EFCECC0
:10222000EF2EFCE0FF2E17C0C8E0D0E0C12CD12C6F
:10223000E12CE0E1FE2E0FC09E01442737FD4095C2
:10224000542F60E070E080E090E80E9462F7C901DE
:10225000DA016C017D0120E030E040E050E060E018
:102260003E01882477FC8094982C70EDB72EBA0C30
:10227000E9E0EB1570F48A2D81548A3118F499EC59
:10228000B92E06C08A2D81568A3150F589EAB82EBA
:10229000BA0C8B2D90E08C179D0714F56F3FE1F081
:1022A000C216D306E406F506B0F0CA01B901A401CE
:1022B00093010E941CF79B01AC012B0D311D411DA8
:1022C000511D2130F0E03F07F0E04F07F0E85F07D5
:1022D00010F461E001C06FEFF801A1908F01C5CF4C
:1022E0002114310481F0662331F001501040F101D6
:1022F0001183008308C051FE1AC002501040F10142
:102300001183008314C067FF12C050FC05C02FEF7B
:102310003FEF4FEF5FE704C020E030E040E050E8DF
:1023200082E290E09093BD108093BC1016C050FEE6
:1023300008C050954095309521953F4F4F4F5F4FC6
:102340000CC057FF0AC082E290E09093BD108093CA
:10235000BC102FEF3FEF4FEF5FE7B901CA01DF91EC
:10236000CF911F910F91FF90EF90DF90CF90BF9092
:10237000AF909F908F907F906F905F903F902F9045
:1023800008951F93FC0199278827BC01E8941191B7
:102390001032E9F3193010F01E30C8F31B3251F03F
:1023A0001D3249F4689406C00E942113610F711D0B
:1023B000811D911D119110531A30B0F33EF4909588
:1023C0008095709561957F4F8F4F9F4F1F91089516
:1023D000F8940C94DCF7FB01DC0105900D920020D1
:1023E000E1F70895FC0105900020E9F780959095AC
:1023F0008E0F9F1F0895FB01DC014150504088F073
:102400008D9181341CF08B350CF4805E65916134C4
:102410001CF06B350CF4605E861B611171F3990B37
:102420000895881BFCCFFB01DC014150504048F06F
:1024300005900D920020C9F701C01D9241505040F7
:10244000E0F70895FB0155915523A9F0BF01DC0188
:102450004D9145174111E1F759F4CD010590002048
:1024600049F04D9140154111C9F3FB014111EFCFE6
:1024700081E090E001970895FB01DC0104C08D919B
:102480000190801921F441505040C8F7881B990BE6
:102490000895FB01DC0102C001900D9241505040B3
:1024A000D8F708956817790768F4FB01DC01E40F99
:1024B000F51FA40FB51F02C002900E92415050406C
:1024C000D8F708950C944912FB01DC010D9000200F
:1024D000E9F7119701900D920020E1F70895FC01B2
:1024E0008191861721F08823D9F79927089531978C
:1024F000CF010895FB01DC018D910190801901103D
:10250000D9F3990B0895FB01DC0101900D92002095
:10251000E1F70895FB01DC014150504030F08D910E
:102520000190801919F40020B9F7881B990B0895C0
:10253000FB01DC014150504048F001900D92002019
:10254000C9F701C01D9241505040E0F70895FC01C9
:1025500081E090E00190061609F4CF010020D1F748
:1025600001970895FB0151915523A9F0BF01DC01AA
:102570004D9145174111E1F759F4CD01019000202B
:1025800049F04D9140154111C9F3FB014111EFCFC5
:1025900081E090E001970895FB019F01E8944230AB
:1025A000C4F04532B4F44A3029F497FB1EF49095F8
:1025B00081959F4F642F77270E943BF7805D8A3378
:1025C0000CF0895D8193CB010097A1F716F45DE2D1
:1025D00051931082C9010C948815FA01CF93FF938F
:1025E000EF93223044F1253234F5C22FE894CA30FB
:1025F00049F497FB3EF490958095709561957F4FD7
:102600008F4F9F4F2C2F332744275527FF93EF934E
:102610000E9462F7EF91FF91605D6A330CF0695D93
:102620006193B901CA01605070408040904051F7F9
:1026300016F4CDE2C19310828F919F91CF910C94AB
:102640008815592F482F372F262F660F771F881F81
:10265000991F660F771F881F991F620F731F841FB2
:10266000951F660F771F881F991F0895FA01CF9352
:10267000FF93EF932230CCF02532BCF4C22F2C2FE5
:10268000332744275527FF93EF930E9462F7EF917A
:10269000FF91605D6A330CF0695D6193B901CA0115
:1026A000605070408040904051F710828F919F9110
:1026B000CF910C948815FB019F01423074F0453294
:1026C00064F4642F77270E943BF7805D8A330CF017
:1026D000895D8193CB010097A1F71082C9010C9409
:1026E0008815AEE0B0E0E7E7F3E10C94ADF70E89B2
:1026F0001F898EE08C831A8309838FEF9FE79E8367
:102700008D839E01265E3F4FCE010196688D798DA7
:10271000A9010E9495132F813885020F131FF8011C
:1027200010822E96E4E00C94C9F7ABE0B0E0EBE940
:10273000F3E10C949FF73C012B015A01FC01178235
:102740001682838181FD03C06FEF7FEFC6C19AE0DF
:10275000892E1E010894211C311CF3012381F201F2
:1027600023FD859123FF81912F01882309F4B2C1B4
:10277000853239F423FD859123FF81912F01853224
:1027800029F490E0B3010E949815E7CF982FFF2419
:10279000EE249924FFE1FF15D0F09B3269F09C32C2
:1027A00028F4903259F0933291F40EC09D3249F0E2
:1027B000903369F441E024C052E0F52A84E0F82A1D
:1027C00028C098E0F92A25C0E0E1FE2A22C0F7FCE3
:1027D00029C0892F80538A3070F4F6FE05C0989C7A
:1027E000902C1124980E15C0E89CE02C1124E80EC2
:1027F000F0E2FF2A0EC09E3229F4F6FC6BC140E4E1
:10280000F42A07C09C3619F450E8F52A02C098361D
:1028100049F4F20123FD959123FF91912F01992312
:1028200009F0B8CF892F8554833018F08052833057
:1028300038F444E050E0A40EB51E5FE359830FC0A6
:10284000933631F0933779F0933509F056C020C0B4
:10285000F5018081898342E050E0A40EB51E61013C
:1028600001E010E012C0F501C080D180F6FC03C089
:102870006FEF7FEF02C0692D70E042E050E0A40EE0
:10288000B51EC6010E947D158C015FE7F52214C0BC
:10289000F501C080D180F6FC03C06FEF7FEF02C06E
:1028A000692D70E042E050E0A40EB51EC6010E9402
:1028B00072158C0150E8F52AF3FE07C01AC080E2B9
:1028C00090E0B3010E949815EA948E2D90E00817CD
:1028D0001907A8F30EC0F601F7FC8591F7FE819168
:1028E0006F0190E0B3010E949815E110EA94015045
:1028F00010400115110579F7EAC0943611F09936A8
:1029000069F5F7FE08C0F5012081318142815381CC
:1029100084E090E00AC0F501808191819C01442708
:1029200037FD4095542F82E090E0A80EB91E9FE637
:10293000F92257FF09C050954095309521953F4F9A
:102940004F4F5F4FE0E8FE2ACA01B901A1012AE01A
:1029500030E00E94C415D82ED21840C0953729F413
:102960001F2D1F7E2AE030E01DC01F2D197F9F36CE
:1029700061F0903720F4983509F0ACC00FC0903763
:1029800039F0983709F0A6C004C028E030E00AC04A
:10299000106114FD146020E130E004C014FD1660E5
:1029A00020E132E017FF08C0F5016081718182816A
:1029B000938144E050E008C0F50180819181BC0121
:1029C00080E090E042E050E0A40EB51EA1010E941C
:1029D000C415D82ED2188FE7F82EF122F6FE0BC0C0
:1029E0005EEFF522D91438F4F4FE07C0F2FC05C0FE
:1029F0008FEEF82202C01D2D01C0192DF4FE0DC06E
:102A0000FE01ED0DF11D8081803319F499EEF9225C
:102A100008C01F5FF2FE05C003C08F2D867809F045
:102A20001F5F0F2DF3FC14C0F0FE0FC01E1510F039
:102A30009D2C0BC09D2C9E0C911A1E2D06C080E271
:102A400090E0B3010E9498151F5F1E15C0F304C0EB
:102A50001E1510F4E11A01C0EE2404FF0FC080E33C
:102A600090E0B3010E94981502FF1DC001FD03C054
:102A700088E790E00EC088E590E00BC0802F867854
:102A800091F001FF02C08BE201C080E2F7FC8DE211
:102A900090E0B3010E94981506C080E390E0B30176
:102AA0000E9498159A94D914C0F3DA94F101ED0DAF
:102AB000F11D808190E0B3010E949815DD20A9F7F7
:102AC00006C080E290E0B3010E949815EA94EE20DF
:102AD000C1F743CEF30166817781CB012B96E2E10A
:102AE0000C94BBF7FC010590615070400110D8F7C1
:102AF000809590958E0F9F1F0895FC016150704046
:102B000001900110D8F7809590958E0F9F1F089522
:102B1000DC01FC01672F71917723E1F7329704C044
:102B20007C916D9370836291AE17BF07C8F30895CF
:102B30000F931F93CF93DF938C01EB018B8181FF68
:102B40001BC082FF0DC02E813F818C819D81281783
:102B5000390764F4E881F9810193F983E88306C0B9
:102B6000E885F985802F1995892B31F48E819F8115
:102B700001969F838E8302C00FEF1FEFC801DF9184
:102B8000CF911F910F910895FA01AA27283051F192
:102B9000203181F1E8946F936E7F6E5F7F4F8F4F8E
:102BA0009F4FAF4FB1E03ED0B4E03CD0670F781FED
:102BB000891F9A1FA11D680F791F8A1F911DA11DD2
:102BC0006A0F711D811D911DA11D20D009F468940B
:102BD0003F912AE0269F11243019305D3193DEF6B3
:102BE000CF010895462F4770405D4193B3E00FD069
:102BF000C9F7F6CF462F4F70405D4A3318F0495D54
:102C000031FD4052419302D0A9F7EACFB4E0A69536
:102C10009795879577956795BA95C9F70097610558
:102C2000710508959B01AC010A2E069457954795AE
:102C300037952795BA95C9F7620F731F841F951FA3
:102C4000A01D08950F931F938C01FC01868160E005
:102C50000E94012D81E090E00E94CB2AF80186813C
:102C600061E00E94012D81E090E00E94CB2AF801F2
:102C7000868160E00E94012D84E690E00E94CB2ACC
:102C80001F910F910895CF92DF92EF92FF920F93D1
:102C90001F93CF93DF93D82EC92E282F392FC90128
:102CA0008C01C0E0D0E0E62EFF24F801878161E0CE
:102CB0000E944E2CB7010C2E02C0759567950A94A0
:102CC000E2F76170F80187810E94012D21960F5F64
:102CD0001F4FC830D10549F78D2D9C2D0E9422161B
:102CE000DF91CF911F910F91FF90EF90DF90CF90E8
:102CF0000895CF92DF92EF92FF920F931F93CF939D
:102D0000DF93D82EC92E282F392FC9018C01C0E09E
:102D1000D0E0E62EFF24F801878161E00E944E2C6E
:102D2000B7010C2E02C0759567950A94E2F76170A1
:102D3000F80187810E94012D21960F5F1F4FC4303B
:102D4000D10549F78D2D9C2D0E942216DF91CF9140
:102D50001F910F91FF90EF90DF90CF9008951F93F8
:102D6000CF93DF93EC01162F8C81642F0E94012DED
:102D70008D818F3F19F060E00E94012D8F8584FFC7
:102D800005C0CE01612F0E9443160EC0612F70E076
:102D900084E0759567958A95E1F7CE010E947916D2
:102DA000CE01612F0E947916DF91CF911F91089576
:102DB00041E00E94AF1681E090E0089540E00E945B
:102DC000AF160895EF92FF920F931F93CF93DF9367
:102DD0008C017A016770660F660F660F60640E944F
:102DE000DE16C0E0D0E0D801ED91FC91D701AC0F28
:102DF000BD1F0190F081E02DC8016C9119952196BD
:102E0000C830D10581F7DF91CF911F910F91FF90CD
:102E1000EF900895FC0161896E7F618B64600E9470
:102E2000DE160895FC016189862F8160818B6560C3
:102E3000CF010E94DE160895FC0161896D7F618BD0
:102E400064600E94DE160895FC016189862F82600D
:102E5000818B6660CF010E94DE1608956CE10E94AE
:102E6000DE16089568E10E94DE160895FC0160896F
:102E7000862F8160808B6960CF010E94DE160895E5
:102E8000FC0160896E7F608B68600E94DE16089589
:102E9000FC016089862F8260808B6A60CF010E946E
:102EA000DE160895FC0160896D7F608B68600E946A
:102EB000DE160895FC016089862F8460808B6C602B
:102EC000CF010E94DE160895FC0160896B7F608B44
:102ED00068600E94DE160895DF93CF93CDB7DEB70A
:102EE00028970FB6F894DEBF0FBECDBF9C01FE0140
:102EF0003196ABEDB3E088E00D9001928150E1F79F
:102F0000F9018389481710F0482F4150E42FF0E071
:102F1000EE0FFF1FEC0FFD1F8181680F6068C90174
:102F20000E94DE1628960FB6F894DEBF0FBECDBF06
:102F3000CF91DF91089562E00E94DE1680ED97E068
:102F40000E94CB2A089561E00E94DE1680ED97E092
:102F50000E94CB2A0895CF93DF93EC01423018F002
:102F60008F8588608F874B8B1C8A222329F0413004
:102F700019F48F8584608F8780E593EC0E94CB2ABB
:102F80008C8160E00E94012D8E8160E00E94012D05
:102F90008D818F3F19F060E00E94012D6F8564FDE7
:102FA0001DC0CE0163E00E94791684E991E10E9480
:102FB000CB2ACE0163E00E94791684E991E10E9458
:102FC000CB2ACE0163E00E94791686E990E00E9448
:102FD000CB2ACE0162E00E94791616C06062CE0153
:102FE0000E94DE1684E991E10E94CB2A6F8560621F
:102FF000CE010E94DE1686E990E00E94CB2A6F8502
:103000006062CE010E94DE166F856062CE010E9472
:10301000DE1684E0888BCE010E945A17CE010E94F2
:10302000A31782E0898BCE0166E00E94DE16DF9155
:10303000CF9108956F927F928F92AF92CF92EF923D
:103040000F931F93DF93CF93CDB7DEB73C01162FBD
:10305000842FF301448325830683E782C086A186FB
:1030600082869E8593879F8594879889958799897D
:10307000968761E00E944E2CF30185818F3F19F005
:1030800061E00E944E2CF301868161E00E944E2C8B
:10309000112319F0F301178603C080E1F30187873C
:1030A000C30160E141E020E00E94AB17CF91DF91C6
:1030B0001F910F91EF90CF90AF908F907F906F9076
:1030C00008958F92AF92CF92EF920F931F93CF9369
:1030D000DF93DC01362F542F722F102FAE2C8C2C47
:1030E00013961C921E92129787ED93E011969C9373
:1030F0008E9300D00F92EDB7FEB73196CDB7DEB705
:103100001982118212821382CD0161E0432F2FEFC9
:10311000052FE72EC12E0E941A180F900F900F90C6
:103120000F90DF91CF911F910F91EF90CF90AF90C3
:103130008F9008958F92AF92CF92EF920F931F933B
:10314000CF93DF93DC01362F542F722F102FAE2C2C
:103150008C2C13961C921E92129787ED93E0119679
:103160009C938E9300D00F92EDB7FEB73196CDB7FA
:10317000DEB71982118212821382CD0161E0432FE2
:103180002FEF052FE72EC12E0E941A180F900F90D7
:103190000F900F90DF91CF911F910F91EF90CF90F3
:1031A000AF908F9008958F92AF92CF92DF92EF926F
:1031B000FF920F931F93CF93DF93DC01362F542F91
:1031C000722F102FFE2CDC2C8A2C13961C921E9230
:1031D000129787ED93E011969C938E9300D00F92F7
:1031E000EDB7FEB73196CDB7DEB7198211821282E4
:1031F0001382CD0161E0432F252F072FE12ECF2C25
:10320000AD2C0E941A180F900F900F900F90DF9125
:10321000CF911F910F91FF90EF90DF90CF90AF90E3
:103220008F9008958F92AF92CF92DF92EF92FF929C
:103230000F931F93CF93DF93DC01362F542F722F00
:10324000102FFE2CDC2C8A2C13961C921E921297A7
:1032500087ED93E011969C938E9300D00F92EDB77B
:10326000FEB73196CDB7DEB7198211821282138272
:10327000CD0161E0432F252F072FE12ECF2CAD2C60
:103280000E941A180F900F900F900F90DF91CF911E
:103290001F910F91FF90EF90DF90CF90AF908F90A4
:1032A00008956F927F928F92AF92CF92DF92EF92BA
:1032B000FF920F931F93DF93CF93CDB7DEB7DC015F
:1032C000362F542F722F102FFE2CDC2C13961C92AD
:1032D0001E92129787ED93E011969C938E9300D0E7
:1032E0000F926DB67EB60894611C711CEDB7FEB7E7
:1032F000A182F30181828889828389898383CD01B8
:1033000060E0432F2FEF052FE72EC12EAF2C8D2C21
:103310000E941A180F900F900F900F90CF91DF918D
:103320001F910F91FF90EF90DF90CF90AF908F9013
:103330007F906F9008956F927F928F92AF92CF920D
:10334000DF92EF92FF920F931F93DF93CF93CDB74E
:10335000DEB7DC01362F542F722F102FFE2CDC2C01
:1033600013961C921E92129787ED93E011969C93F0
:103370008E9300D00F926DB67EB60894611C711CBE
:10338000EDB7FEB7A182F3018182888982838989A2
:103390008383CD0160E0432F2FEF052FE72EC12E51
:1033A000AF2C8D2C0E941A180F900F900F900F9039
:1033B000CF91DF911F910F91FF90EF90DF90CF9011
:1033C000AF908F907F906F9008956F927F928F92C1
:1033D000AF92BF92CF92DF92EF92FF920F931F9323
:1033E000DF93CF93CDB7DEB7DC01362F542F722F8A
:1033F000102FFE2CDC2CBA2C13961C921E921297C6
:1034000087ED93E011969C938E9300D00F926DB64A
:103410007EB60894611C711CEDB7FEB78182898964
:10342000F30181838A8982838B898383CD0160E064
:10343000432F252F072FE12ECF2CAD2C8B2C0E9454
:103440001A180F900F900F900F90CF91DF911F914E
:103450000F91FF90EF90DF90CF90BF90AF908F9043
:103460007F906F9008956F927F928F92AF92BF92EC
:10347000CF92DF92EF92FF920F931F93DF93CF9340
:10348000CDB7DEB7DC01362F542F722F102FFE2C54
:10349000DC2CBA2C13961C921E92129787ED93E0A7
:1034A00011969C938E9300D00F926DB67EB60894C1
:1034B000611C711CEDB7FEB781828989F30181839C
:1034C0008A8982838B898383CD0160E0432F252FF6
:1034D000072FE12ECF2CAD2C8B2C0E941A180F90A9
:1034E0000F900F900F90CF91DF911F910F91FF9050
:1034F000EF90DF90CF90BF90AF908F907F906F90C4
:103500000895CF92DF92EF92FF920F931F93CF9384
:10351000DF937C016B018A01C0E0D0E00FC0D601CF
:103520006D916D01D701ED91FC910190F081E02D3D
:10353000C7011995C80FD91F015010400115110579
:1035400071F7CE01DF91CF911F910F91FF90EF9016
:10355000DF90CF900895EF92FF920F931F93CF9338
:10356000DF937C018B01C0E0D0E0F8010F5F1F4FBB
:103570006491662359F0D701ED91FC910190F0819F
:10358000E02DC7011995C80FD91FEFCFCE01DF91EC
:10359000CF911F910F91FF90EF900895DC01ED9175
:1035A000FC910190F081E02D199508959C01DB01BB
:1035B000ED91FC910190F081E02DCB01B9011995BD
:1035C0000895EF92FF920F931F938C01DC01ED9110
:1035D000FC910190F081E02D6DE019957C01D801FE
:1035E000ED91FC910190F081E02DC8016AE0199500
:1035F0009C012E0D3F1DC9011F910F91FF90EF906F
:103600000895EF92FF920F931F937C010E94AB1AD3
:103610008C01C7010E94E11A9C01200F311FC901D2
:103620001F910F91FF90EF900895EF92FF920F93EB
:103630001F937C01DC01ED91FC910190F081E02D64
:1036400019958C01C7010E94E11A080F191FC801C2
:103650001F910F91FF90EF900895EF92FF920F93BB
:103660001F937C01DB01ED91FC910190F081E02D35
:10367000CB01B70119958C01C7010E94E11A080F0F
:10368000191FC8011F910F91FF90EF900895CF93DC
:10369000DF93DB010D900020E9F71197A61BB70B14
:1036A000EC01E881F9810280F381E02DAD011995EB
:1036B000DF91CF9108954F925F927F928F929F9268
:1036C000AF92BF92CF92DF92EF92FF920F931F9330
:1036D000DF93CF93CDB7DEB7A1970FB6F894DEBFD7
:1036E0000FBECDBF2C01742ECB01223008F42AE08E
:1036F00019A231E2C32ED12CCC0EDD1E822E9924CC
:10370000AA24BB24672D752FA50194010E9462F79E
:1037100079018A01C801B701A50194010E941CF733
:10372000472D461B0894C108D1084A3010F4405D6B
:1037300001C0495CF6014083E114F1040105110563
:1037400021F07E2C5F2DC801DDCFC201B6010E94A1
:10375000471BA1960FB6F894DEBF0FBECDBFCF9129
:10376000DF911F910F91FF90EF90DF90CF90BF906E
:10377000AF909F908F907F905F904F900895DC0165
:103780002115310541F4ED91FC910190F081E02D7E
:10379000642F199508950E945B1B0895EF92FF9284
:1037A0000F931F937C010E94BF1B8C01C7010E94D5
:1037B000E11A9C01200F311FC9011F910F91FF9049
:1037C000EF900895EF92FF920F931F939A017B0160
:1037D00000E010E0B801A7010E94BF1B1F910F91EC
:1037E000FF90EF900895CF92DF92EF92FF920F93A8
:1037F0001F936C017B019A0100E010E0B801A70162
:103800000E94BF1B8C01C6010E94E11A080F191FFC
:10381000C8011F910F91FF90EF90DF90CF90089516
:10382000EF92FF920F931F939A01E62EFF2400E080
:1038300010E0B801A7010E94BF1B1F910F91FF90DC
:10384000EF900895CF92DF92EF92FF920F931F9324
:103850006C01E62E9A01FF2400E010E0B801A701F8
:103860000E94BF1B8C01C6010E94E11A080F191F9C
:10387000C8011F910F91FF90EF90DF90CF900895B6
:10388000CF92DF92EF92FF920F931F93CF93DF932C
:10389000EC016A017B012115310541F4E881F981D0
:1038A0000190F081E02D642F19951FC02A30310559
:1038B000D1F477FF17C0E881F9810190F081E02D04
:1038C0006DE219958C0144275527BA014C195D0901
:1038D0006E097F09CE012AE00E945B1B9801280F28
:1038E000391F04C02AE00E945B1B9C01C901DF91C3
:1038F000CF911F910F91FF90EF90DF90CF9008959F
:10390000EF92FF920F931F937C010E94401C8C0149
:10391000C7010E94E11A9C01200F311FC9011F91AC
:103920000F91FF90EF900895EF92FF920F931F93E6
:103930007B019A010027F7FC0095102FB801A70121
:103940000E94401C1F910F91FF90EF900895CF921D
:10395000DF92EF92FF920F931F936C017B019A010C
:103960000027F7FC0095102FB801A7010E94401C0A
:103970008C01C6010E94E11A080F191FC8011F918E
:103980000F91FF90EF90DF90CF9008950E94471B1A
:1039900008957F928F929F92AF92BF92CF92DF92C3
:1039A000EF92FF920F931F93CF93DF934C017A0115
:1039B0008B01722ECB01BA0120E030E040E050E0F4
:1039C0000E9467F387FD03C0C0E0D0E00EC0D401C1
:1039D000ED91FC910190F081E02DC4016DE219950B
:1039E000EC0117FB109517F9109520E030E040E04E
:1039F0005FE3AA240BC0CA01B90120E030E040E235
:103A000051E40E946EF39B01AC01A394A71498F3B8
:103A1000C801B7010E948EF25B016C010E94DBF3CA
:103A20007B018C01C401B801A7012AE030E00E94AB
:103A3000BF1BC80FD91F772039F0C40160E072E0C6
:103A40000E94471BC80FD91FC801B7010E9407F485
:103A50009B01AC01C601B5010E948DF224C020E09B
:103A600030E040E251E40E9447F67B018C010E9465
:103A7000D6F35B016C01CC24B7FCC094DC2CC401F0
:103A8000B601A5012AE030E00E94401CC80FD91FF2
:103A9000C601B5010E9409F49B01AC01C801B70140
:103AA0000E948DF27A947720D1F6CE01DF91CF91EA
:103AB0001F910F91FF90EF90DF90CF90BF90AF904C
:103AC0009F908F907F9008950E94C91C0895EF9257
:103AD000FF920F931F937C010E94C91C8C01C701A8
:103AE0000E94E11A080F191FC8011F910F91FF9042
:103AF000EF900895EF92FF920F931F937C010E9425
:103B0000471B8C01C7010E94E11A080F191FC80149
:103B10001F910F91FF90EF900895AF92BF92CF92B7
:103B2000DF92EF92FF920F931F93CF93DF935C018D
:103B30006B01C0E0D0E0EE24FF2410C0D501ED9170
:103B4000FC9100811181C601BE010E94F320682F03
:103B5000C501F8011995E80EF91E2196F601848138
:103B60009581C817D90750F3C701DF91CF911F91F5
:103B70000F91FF90EF90DF90CF90BF90AF9008959E
:103B8000EF92FF920F931F937C010E948D1D8C0179
:103B9000C7010E94E11A9C01200F311FC9011F912A
:103BA0000F91FF90EF9008958CB58F7B8CBD089599
:103BB000882319F48CB5806202C08CB58F7D8CBDD2
:103BC00008959CB5937F982B9CBD08952CB5382FF4
:103BD00033702C7F322B3CBD2DB590E095958795A9
:103BE0009595879581702E7F822B8DBD089584E3F6
:103BF00061E00E944E2C83E361E00E944E2C85E33D
:103C000061E00E944E2C84E360E00E94012D83E37A
:103C100060E00E94012D85E361E00E94012D8CB5DA
:103C200080618CBD8CB580648CBD0895FC0144839B
:103C30005583668377830895CF93DF93EC010E94C9
:103C40003E2A688779878A879B87E881F981008483
:103C5000F185E02DCE0119959C0197FF15C00E94BA
:103C60003E2A288539854A855B85621B730B840B48
:103C7000950B2C813D814E815F816217730784070C
:103C8000950718F32FEF3FEFC901DF91CF9108950A
:103C9000CF93DF93EC01CE010E941C1E9C0197FD87
:103CA0000EC08D32910559F0C0970A9740F0E88117
:103CB000F9810680F781E02DCE011995ECCFC9017D
:103CC000DF91CF9108956F927F928F929F92AF92E2
:103CD000BF92CF92DF92EF92FF920F931F93CF93F9
:103CE000DF93EC01662E0E94481E982E77248824CC
:103CF000EE24FF2487010F2EF0E0AF2EF0E0BF2E60
:103D0000F0E8CF2EFFE3DF2EF02D961491F18DE237
:103D1000981619F4772473942CC09EE2991619F41E
:103D20008824839426C0892D80538A3010F5C801D9
:103D3000B7012AE030E040E050E00E941CF77B0130
:103D40008C01E90CF11C011D111D80ED9FEFAFEFFF
:103D5000BFEFE80EF91E0A1F1B1F882051F0C60195
:103D6000B5012DEC3CEC4CEC5DE30E9447F65B01A9
:103D70006C01E881F9810680F781E02DCE0119956B
:103D8000CE010E941C1E982F982E80538A3008F472
:103D9000BCCF9E3209F4B9CF961509F4B6CF77207F
:103DA00041F010950095F094E094E11CF11C011D88
:103DB000111D882049F0C801B7010E9409F4A6012D
:103DC00095010E9447F604C0C801B7010E9409F49A
:103DD000DF91CF911F910F91FF90EF90DF90CF90E7
:103DE000BF90AF909F908F907F906F90089561E00B
:103DF0000E94631E08959F92AF92BF92CF92DF926E
:103E0000EF92FF920F931F93CF93DF936C01B62E27
:103E10000E94481EEC0197FF04C0EE24FF24870196
:103E20004AC09924EE24FF248701AB2CBB24CA1579
:103E3000DB0529F1CD32D10519F4992493941FC0E3
:103E4000CE01C0970A97D8F4C801B7012AE030E044
:103E500040E050E00E941CF77B018C01CE01AA27B4
:103E600097FDA095BA2FE80EF91E0A1F1B1F80EDC3
:103E70009FEFAFEFBFEFE80EF91E0A1F1B1FD60121
:103E8000ED91FC910680F781E02DC6011995C601E0
:103E90000E941C1EEC01C0970A9748F2CA15DB0568
:103EA00031F2992041F010950095F094E094E11CD6
:103EB000F11C011D111DB701C801DF91CF911F91A8
:103EC0000F91FF90EF90DF90CF90BF90AF909F90B9
:103ED000089561E00E94FB1E0895CF93DF93EC01EB
:103EE0000E943E2A688779878A879B87E881F981C3
:103EF0000680F781E02DCE0119959C0197FF15C032
:103F00000E943E2A288539854A855B85621B730B92
:103F1000840B950B2C813D814E815F816217730765
:103F20008407950718F32FEF3FEFC901DF91CF9179
:103F30000895CF92DF92FF920F931F93CF93DF9359
:103F4000082FF92E6B01142F62E072E00E94D42634
:103F5000C6010E946D1FBC01C12FD0E008C0802F98
:103F60009F2D0E94DD25C6010E946D1FBC0177FDBB
:103F700003C06C177D0799F7802F9F2DDF91CF919C
:103F80001F910F91FF90DF90CF9008950F931F9393
:103F9000CF93DF93182F092FEB0162E072E00E94AC
:103FA000D42604C0812F902F0E94DD25CE010E94CF
:103FB0006D1FBC0197FFF6CF812F902FDF91CF911E
:103FC0001F910F910895AF92BF92CF92DF92EF921F
:103FD000FF920F931F93CF93DF935C017A018901C6
:103FE0002115310519F4C0E0D0E014C0C0E0D0E0E4
:103FF000C62EDD240CC0C5010E946D1F97FD0AC0AE
:104000008C159D0539F0F70181937F012196C0172A
:10401000D10788F3CE01DF91CF911F910F91FF90CF
:10402000EF90DF90CF90BF90AF900895CF92DF9246
:10403000EF92FF920F931F93CF93DF936C018B014D
:104040007A01C0E0D0E009C0C6010E946D1F97FD53
:1040500007C0F80181938F012196CE15DF05A0F3EB
:10406000CE01DF91CF911F910F91FF90EF90DF90E4
:10407000CF9008956F927F928F929F92AF92BF924E
:10408000CF92DF92EF92FF920F931F93CF93DF9324
:104090003C017B014A0159016801FB0180818823B1
:1040A000A1F1C0E0D0E027C0F701EC0FFD1F808137
:1040B00090E02817390711F0C0E0D0E0F701EC0FCD
:1040C000FD1F808190E02817390721F42196C8153B
:1040D000D905D8F4C114D10471F0F501E00FF11F36
:1040E000808190E02817390731F40F5F1F4F0C15BE
:1040F0001D0518F00CC000E010E0C3010E946D1F08
:104100009C011816190684F202C081E001C080E00B
:10411000DF91CF911F910F91FF90EF90DF90CF90A3
:10412000BF90AF909F908F907F906F9008950F9366
:104130001F939A01DB010D900020E9F7AD0141507A
:104140005040461B570BD9010D900020E9F71197FD
:10415000A21BB30B8D010E943A201F910F9108956D
:1041600040E050E00E94972008950F931F9320E0B5
:1041700030E000E010E00E943A201F910F91089576
:10418000FC01848195816817790748F40190F081DA
:10419000E02D309721F0E60FF71F8081089580E031
:1041A0000895FC01848195816817790730F40190A6
:1041B000F081E02DE60FF71F40830895FC019B017D
:1041C000848195816817790728F460817181611570
:1041D000710529F41092B30463EB74E002C0620F1E
:1041E000731FCB010895FC018481958168177907BD
:1041F00048F40190F081E02D309721F0E60FF71F91
:104200008081089580E00895FC010190F081E02D07
:10421000309729F40895861709F4408331968081F8
:104220008823C9F70895FC0180819181009729F4C2
:1042300020E030E040E050E004C00E94C1119B014A
:10424000AC01B901CA010895DC01ED91FC9111970F
:10425000309789F014968D919C911597009759F09D
:104260008E0F9F1F8E1B9F0B15969C938E931497FA
:10427000E80FF91F10820895CF93DF93FC01C081EE
:10428000D181209729F407C090E00E9485F289939C
:1042900088818823C9F7DF91CF910895CF93DF9369
:1042A000FC01C081D181209729F407C090E00E94D1
:1042B0007DF2899388818823C9F7DF91CF91089592
:1042C000EF92FF920F931F93CF93DF93FC01DB01DB
:1042D0008617970719F12481358114968D919C9149
:1042E000159728173907E1F4232BC1F0E080F180FE
:1042F000CD91DC910FC090E00E947DF28C0188810D
:1043000090E00E947DF20817190751F40894E11C0F
:10431000F11C2196F7018081882369F781E001C0B3
:1043200080E0DF91CF911F910F91FF90EF90089562
:10433000AF92BF92CF92DF92EF92FF920F931F93B3
:10434000CF93DF93FC015B017A01DB0114962D9181
:104350003C9115972115310559F18481958100977C
:1043600039F18217930720F14817590720F07C0193
:104370000894E108F10800811181C801CFEFDFEF57
:104380006801CE0CDF1C10C0F501608171810E94B4
:10439000B2129C01009771F0801B910BE816F90690
:1043A00008F0EC01C9010196C816D90668F702C0E9
:1043B000CFEFDFEFCE01DF91CF911F910F91FF90F3
:1043C000EF90DF90CF90BF90AF900895FC01DB019C
:1043D0004481558114968D919C911597481B590BDA
:1043E000CF010E9498210895CF93DF93FC01DB0158
:1043F000848195814817590760F4C081D1816D91FE
:104400007C91CE01840F951F0E94B2129C010097EF
:1044100019F42FEF3FEF02C02C1B3D0BC901DF91B8
:10442000CF91089540E050E00E94F4210895DF927A
:10443000EF92FF920F931F93CF93DF93EC018C8148
:104440009D8148175907B8F47A010894E11CF11CC2
:10445000E881F981EE0DFF1DD0801082088119815D
:10446000C80170E00E94A7129C010E0D1F1DF801EB
:10447000D082009719F4EFEFFFEF05C08881998192
:10448000F901E81BF90BCF01DF91CF911F910F913B
:10449000FF90EF90DF900895FC01448155814150D9
:1044A00050400E9417220895CF93DF93FC0184812E
:1044B00095814817590758F4C081D181CE01840FE6
:1044C000951F70E00E946F129C01009719F42FEF66
:1044D0003FEF02C02C1B3D0BC901DF91CF91089526
:1044E00040E050E00E94542208950F931F93CF9311
:1044F000DF93FC018B0141155105F9F06115710540
:10450000E1F0848195812817390718F0FB011082AA
:1045100014C041505040EC01C21BD30B4C175D0737
:1045200008F4EA0160817181620F731FC801AE0156
:104530000E949812C00FD11F1882DF91CF911F9156
:104540000F910895FC01DB012481358114964D9172
:104550005C91159724173507A8F080819181009709
:1045600089F06D917C916115710561F0241B350B0B
:10457000820F931F0E947A129C0180E0232B19F472
:1045800081E0089580E00895DC01FB0114968D918F
:104590009C911597892B31F461157105A9F090E074
:1045A000808108C00D90BC91A02D6115710529F482
:1045B00090E08C91882349F407C0CD010E947A12C3
:1045C0009C0190E0232B09F491E0892F0895CF936B
:1045D000DF939C01FB01EC01A881B981109729F0C0
:1045E0006081718161157105D1F4C081D1812097FD
:1045F00059F084819581892B39F0888190E02227B8
:104600003327281B390B12C0109771F0F9018481F0
:104610009581892B49F08C91282F30E007C0CD017E
:104620000E947A129C0102C020E030E0C901DF91B3
:10463000CF9108950E94E722892F8095881F8827AF
:10464000881F08950E94E72220E0181619060CF032
:1046500021E0822F08950E94E72220E01816190613
:104660000CF421E0822F08950E94E722892F881FF1
:104670008827881F0895FC01DB0124813581149669
:104680008D919C9115972817390711F020E007C0EC
:10469000CF010E94E72220E0892B09F421E0822F3C
:1046A0000895FC01DB0114962D913C9115978481AE
:1046B0009581821B930B84179507A0F080819181CF
:1046C000009781F06D917C916115710559F0840F0F
:1046D000951FA9010E948A129C0180E0232B19F4E6
:1046E00081E0089580E00895FC01DB01248135819B
:1046F00014968D919C9115972817390710F480E036
:104700000895CF0140E050E00E94512308950F9397
:104710001F93CF93DF93EC018B016F5F7F4F8881F5
:1047200099810E945D0E009711F480E005C0998385
:1047300088831B830A8381E0DF91CF911F910F91C2
:1047400008952F923F924F925F926F927F928F9235
:104750009F92AF92BF92CF92DF92EF92FF920F9310
:104760001F93CF93DF935C012B014A01DC01149668
:104770000D911C9115970115110509F4D4C0FB0189
:10478000C480D580C114D10409F4CDC0DA011496D7
:104790006D907C9015976C187D08FC01E080F1808D
:1047A0006114710491F01BC0D4016C9111967C913D
:1047B000119714964D915C9115978C2F0E94491278
:1047C000F401E480F580EC0EFD1ED2016D917C9128
:1047D000C7010E94B212EC01009731F7A4C077FE26
:1047E00002C067012EC0FB0120803180E8013CC07F
:1047F0008E010E191F09C601B701A8010E944912B6
:104800000C0D1D1DD4016C9111967C91119714967D
:104810004D915C911597C8010E944912F401C48022
:10482000D580C00ED11ED2011496ED90FC90159744
:10483000EC0EFD1EF50184819581860D971D9583F3
:104840008483D2016D917C91C7010E94B212EC0168
:10485000009771F6C601B7010E94831264C07B0104
:10486000EC0CFD1CC60DD71DC701B1010E94B21290
:10487000BC010097A1F7C017D10709F454C0F50196
:10488000828193818C179D0708F044C0C501BE0149
:104890000E9487238823F1F546C0C501B201A90112
:1048A0000E949821EC0197FD3EC0D5016D917C914D
:1048B0001197F201848195818C0F9D1F680F791FDC
:1048C00014964D915C911597481B590BCB01860DA1
:1048D000971D0E945212D50114968D919C911597A7
:1048E000860D971D15969C938E931497ED91FC91D0
:1048F0001197E80FF91F10822D913C912C0F3D1F4D
:10490000F4016081718144815581C9010E9449127D
:104910009E0105C0D50114962D913C91159721500B
:10492000304037FFBACFDF91CF911F910F91FF90A9
:10493000EF90DF90CF90BF90AF909F908F907F903F
:104940006F905F904F903F902F900895CF93DF939B
:10495000EC0188819981892B29F08A819B818617B6
:10496000970760F4CE010E948723882341F08C8151
:104970009D81892B19F4E881F981108281E0DF9112
:10498000CF910895EF92FF920F931F93CF93DF93F0
:10499000EC017B016C817D81E114F104C1F04115D2
:1049A000510599F08A01060F171FB8010E94A6242D
:1049B000882369F0888199812C813D81820F931F22
:1049C000B7010E9483121D830C8381E001C080E047
:1049D000DF91CF911F910F91FF90EF900895EF928B
:1049E000FF920F931F93DF93CF93CDB7DEB72B9733
:1049F0000FB6F894DEBF0FBECDBF7C01CB01BA016C
:104A00008E010F5F1F4FA8012AE030E00E9436138D
:104A1000F80101900020E9F73197E01BF10BC70185
:104A2000B801AF010E94C2242B960FB6F894DEBFE6
:104A30000FBECDBFCF91DF911F910F91FF90EF90EF
:104A40000895EF92FF920F931F93DF93CF93CDB70B
:104A5000DEB72C970FB6F894DEBF0FBECDBF7C013A
:104A6000CB01BA018E010F5F1F4FA8012AE030E091
:104A70000E94ED12F80101900020E9F73197E01B48
:104A8000F10BC701B801AF010E94C2242C960FB6EA
:104A9000F894DEBF0FBECDBFCF91DF911F910F9174
:104AA000FF90EF900895EF92FF920F931F93DF9383
:104AB000CF9300D000D0CDB7DEB77C01CB018E0103
:104AC0000F5F1F4FB8014AE050E00E945B13F801EE
:104AD00001900020E9F73197E01BF10BC701B80105
:104AE000AF010E94C22426960FB6F894DEBF0FBE17
:104AF000CDBFCF91DF911F910F91FF90EF9008955F
:104B0000EF92FF920F931F93DF93CF93CDB7DEB752
:104B100027970FB6F894DEBF0FBECDBF7C01CB0147
:104B20008E010F5F1F4FB8014AE050E00E94CC1287
:104B3000F80101900020E9F73197E01BF10BC70164
:104B4000B801AF010E94C22427960FB6F894DEBFC9
:104B50000FBECDBFCF91DF911F910F91FF90EF90CE
:104B60000895EF92FF920F931F93DF93CF9300D09E
:104B70000F92CDB7DEB77C01862F90E08E010F5FDC
:104B80001F4FB8014AE050E00E94CC12F80101909A
:104B90000020E9F73197E01BF10BC701B801AF0125
:104BA0000E94C2240F900F900F900F90CF91DF9131
:104BB0001F910F91FF90EF900895DF93CF930F9285
:104BC0000F92CDB7DEB769831A82BE016F5F7F4F48
:104BD00041E050E00E94C2240F900F90CF91DF91EE
:104BE00008956115710511F480E00895DB010D90C1
:104BF0000020E9F71197A61BB70BAD010E94C22454
:104C00000895FB0160817181448155810E94C22415
:104C10000895CF93DF93EC0188819981009711F07B
:104C20000E94050E198218821D821C821B821A8224
:104C3000DF91CF9108950F931F93182F092F0E9492
:104C4000EF24882321F4812F902F0E940926812FA1
:104C5000902F1F910F9108950F931F93182F092FD5
:104C60000E942125882321F4812F902F0E9409265C
:104C7000812F902F1F910F9108950F931F93182F3D
:104C8000092F0E945325882321F4812F902F0E9401
:104C90000926812F902F1F910F9108950F931F9335
:104CA000182F092F0E948025882321F4812F902F0F
:104CB0000E940926812F902F1F910F9108950F9325
:104CC0001F93182F092F0E94B125882321F4812FCB
:104CD000902F0E940926812F902F1F910F910895E8
:104CE0000F931F93182F092F0E94DD25882321F48D
:104CF000812F902F0E940926812F902F1F910F91B5
:104D000008950F931F93182F092F6115710561F0F6
:104D1000DB010D900020E9F71197A61BB70BAD0141
:104D20000E94C224882321F4812F902F0E940926FB
:104D3000812F902F1F910F9108950F931F93182F7C
:104D4000092FFB0160817181448155810E94C22439
:104D5000882321F4812F902F0E940926812F902FE4
:104D60001F910F910895EF92FF920F931F93CF938E
:104D7000DF93EC017B018A01BA010E94A6248823FB
:104D800021F4CE010E94092607C01D830C8388816F
:104D90009981B7010E948312CE01DF91CF911F91BB
:104DA0000F91FF90EF900895CF93DF93EC0119825C
:104DB00018821B821A821D821C821E826115710557
:104DC00051F0DB010D900020E9F71197A61BB70BFE
:104DD000AD010E94B326DF91CF910895CF93DF9369
:104DE000EC01198218821B821A821D821C821E828B
:104DF0006115710551F0DB010D900020E9F7119765
:104E0000A61BB70BAD010E94B326DF91CF91089589
:104E10000F931F93182F092F6115710559F0DB01AE
:104E20000D900020E9F71197A61BB70BAD010E946A
:104E3000B32602C00E940926812F902F1F910F9147
:104E40000895EF92FF920F931F93DF93CF93CDB707
:104E5000DEB7A1970FB6F894DEBF0FBECDBF8C01B1
:104E6000FC01118210821382128215821482168232
:104E7000CB01BA017E010894E11CF11CA70130E0CE
:104E80000E943613C801B7010E940827A1960FB6E9
:104E9000F894DEBF0FBECDBFCF91DF911F910F9170
:104EA000FF90EF900895EF92FF920F931F93DF937F
:104EB000CF93CDB7DEB7A1970FB6F894DEBF0FBE84
:104EC000CDBF8C01FC0111821082138212821582E7
:104ED00014821682CB01BA017E010894E11CF11CF8
:104EE000A70130E00E943613C801B7010E940827CD
:104EF000A1960FB6F894DEBF0FBECDBFCF91DF9164
:104F00001F910F91FF90EF900895EF92FF920F93F2
:104F10001F93DF93CF93CDB7DEB7A2970FB6F89468
:104F2000DEBF0FBECDBF8C01FC0111821082138247
:104F30001282158214821682CB01BA017E01089476
:104F4000E11CF11CA70130E00E94ED12C801B7017D
:104F50000E940827A2960FB6F894DEBF0FBECDBF01
:104F6000CF91DF911F910F91FF90EF900895EF92F5
:104F7000FF920F931F93DF93CF93CDB7DEB7A29726
:104F80000FB6F894DEBF0FBECDBF8C01FC011182BD
:104F9000108213821282158214821682CB01BA010A
:104FA0007E010894E11CF11CA70130E00E94ED1283
:104FB000C801B7010E940827A2960FB6F894DEBF79
:104FC0000FBECDBFCF91DF911F910F91FF90EF905A
:104FD0000895EF92FF920F931F93DF93CF93CDB776
:104FE000DEB761970FB6F894DEBF0FBECDBF8C0160
:104FF000CB01F80111821082138212821582148271
:1050000016827E010894E11CF11CB70150E00E9459
:105010005B13C801B7010E94082761960FB6F89488
:10502000DEBF0FBECDBFCF91DF911F910F91FF90DB
:10503000EF900895EF92FF920F931F93DF93CF931A
:10504000CDB7DEB761970FB6F894DEBF0FBECDBF08
:105050008C01CB01F8011182108213821282158219
:10506000148216827E010894E11CF11CB70150E005
:105070000E945B13C801B7010E94082761960FB612
:10508000F894DEBF0FBECDBFCF91DF911F910F917E
:10509000FF90EF900895EF92FF920F931F93DF938D
:1050A000CF93CDB7DEB762970FB6F894DEBF0FBED1
:1050B000CDBF8C01CB01F8011182108213821282C4
:1050C0001582148216827E010894E11CF11CB7013E
:1050D00050E00E94CC12C801B7010E9408276296D6
:1050E0000FB6F894DEBF0FBECDBFCF91DF911F91F9
:1050F0000F91FF90EF900895EF92FF920F931F93FF
:10510000DF93CF93CDB7DEB762970FB6F894DEBFCB
:105110000FBECDBF8C01CB01F8011182108213822A
:1051200012821582148216827E010894E11CF11C01
:10513000B70150E00E94CC12C801B7010E940827B5
:1051400062960FB6F894DEBF0FBECDBFCF91DF9150
:105150001F910F91FF90EF900895EF92FF920F93A0
:105160001F93DF93CF93CDB7DEB729970FB6F8948F
:10517000DEBF0FBECDBF8C01862FF80111821082D9
:105180001382128215821482168290E07E010894A6
:10519000E11CF11CB70150E00E945B13C801B7018C
:1051A0000E94082729960FB6F894DEBF0FBECDBF28
:1051B000CF91DF911F910F91FF90EF900895EF92A3
:1051C000FF920F931F93DF93CF93CDB7DEB729974D
:1051D0000FB6F894DEBF0FBECDBF8C01862FF8014D
:1051E000118210821382128215821482168290E03C
:1051F0007E010894E11CF11CB70150E00E945B1392
:10520000C801B7010E94082729960FB6F894DEBF9F
:105210000FBECDBFCF91DF911F910F91FF90EF9007
:105220000895DF93CF930F920F92CDB7DEB7FC01B5
:10523000118210821382128215821482168269836F
:105240001A82BE016F5F7F4F0E9408270F900F9058
:10525000CF91DF910895DF93CF930F920F92CDB747
:10526000DEB7FC0111821082138212821582148231
:10527000168269831A82BE016F5F7F4F0E940827E2
:105280000F900F90CF91DF910895BF92CF92DF9250
:10529000EF92FF920F931F93CF93DF93082FB92EB6
:1052A0006B017A01E9012417350710F4EA0179014D
:1052B000802F9B2D63E072E00E94D426D6011496C5
:1052C0008D919C9115978E159F05D0F08C179D0799
:1052D00008F4EC01D601ED91FC911197EC0FFD1F44
:1052E000108110826D917C916E0D7F1D802F9B2D02
:1052F0000E940827D601ED91FC91EC0FFD1F108351
:10530000802F9B2DDF91CF911F910F91FF90EF90F8
:10531000DF90CF90BF9008950F931F938C01FB01F6
:10532000248135810E944529C8011F910F9108955C
:10533000CF93DF93EC01FB018617970761F0608143
:1053400071816115710529F0448155810E94B32650
:1053500002C00E940926CE01DF91CF910895FC0181
:1053600011821082138212821582148216820E9488
:1053700098290895FC0111821082138212821582ED
:10538000148216820E9498290895FC0180819181DF
:105390000E94050E0895FC01808191810E94050EF6
:1053A0000895CF93DF930E94D52A0E94E35FC0E067
:1053B000D0E00E945D5F2097E1F30E940000F9CFEA
:1053C000FC0120E030E08081882311F421E030E00E
:1053D000C9010895FC0181E080830895089508952E
:1053E0000E94050E08950E945B0D08951F920F9272
:1053F0000FB60F9211242F933F938F939F93AF93E8
:10540000BF938091B8049091B904A091BA04B0916F
:10541000BB043091BC040196A11DB11D232F2D5F4B
:105420002D3720F02D570196A11DB11D2093BC04EE
:105430008093B8049093B904A093BA04B093BB04CA
:105440008091B4049091B504A091B604B091B704D2
:105450000196A11DB11D8093B4049093B504A0934F
:10546000B604B093B704BF91AF919F918F913F91D4
:105470002F910F900FBE0F901F9018958FB7F89433
:105480002091B8043091B9044091BA045091BB0402
:105490008FBFB901CA0108959FB7F8942091B40451
:1054A0003091B5044091B6045091B70486B5A89BDD
:1054B00006C08F3F21F02F5F3F4F4F4F5F4F9FBF81
:1054C000542F432F322F2227280F311D411D511DEC
:1054D00082E0220F331F441F551F8A95D1F7B9016F
:1054E000CA0108959B01AC017FB7F8948091B40480
:1054F0009091B504A091B604B091B70466B5A89B8D
:1055000005C06F3F19F00196A11DB11D7FBFBA2FD5
:10551000A92F982F8827860F911DA11DB11D62E02C
:10552000880F991FAA1FBB1F6A95D1F7BC012DC018
:10553000FFB7F8948091B4049091B504A091B6049B
:10554000B091B704E6B5A89B05C0EF3F19F00196EE
:10555000A11DB11DFFBFBA2FA92F982F88278E0F2D
:10556000911DA11DB11DE2E0880F991FAA1FBB1F4D
:10557000EA95D1F7861B970B885E9340C8F22150BD
:1055800030404040504068517C4F21153105410565
:10559000510571F60895019739F0880F991F880F0A
:1055A000991F02970197F1F70895789484B5826066
:1055B00084BD84B5816084BD85B5826085BD85B5B7
:1055C000816085BDEEE6F0E0808181608083E1E866
:1055D000F0E010828081826080838081816080839E
:1055E000E0E8F0E0808181608083E1EBF0E08081A1
:1055F00084608083E0EBF0E0808181608083E1E97A
:10560000F0E0808182608083808181608083E0E936
:10561000F0E0808181608083E1EAF0E08081826057
:105620008083808181608083E0EAF0E08081816016
:105630008083E1E2F1E0808182608083808181600B
:105640008083E0E2F1E0808181608083EAE7F0E03E
:10565000808184608083808182608083808181609A
:1056600080838081806880831092C1000895809338
:105670004B030895382F863308F0365320917B0072
:10568000832F86958695869590E08170907043E093
:10569000880F991F4A95E1F7277F282B20937B00DD
:1056A000377080914B038295880F880F807C832B05
:1056B00080937C0080917A00806480937A0080914E
:1056C0007A0086FDFCCF2091780040917900942FDC
:1056D00080E030E0282B392BC90108951F93CF9328
:1056E000DF93182FEB0161E00E944E2C209709F404
:1056F000CAC0CF3FD10509F4C9C0E12FF0E0E75F90
:10570000FD4F8491893009F466C08A30B0F484304A
:10571000F1F1853040F4823059F1833070F58130F9
:1057200009F0AEC020C0873009F443C0883008F0CB
:1057300048C0863009F0A4C034C08D3009F478C068
:105740008E3038F48B3009F45AC08C3008F066C0C3
:105750004CC0803109F480C0813109F487C08F309A
:1057600009F08EC06FC084B5806884BDC7BD92C08B
:1057700084B5806284BDC8BD8DC080918000806882
:1057800080938000D0938900C093880083C080916B
:105790008000806280938000D0938B00C0938A0049
:1057A00079C08091B00080688093B000C093B3004E
:1057B00071C08091B00080628093B000C093B4004B
:1057C00069C080919000806880939000D093990088
:1057D000C09398005FC08091900080628093900099
:1057E000D0939B00C0939A0055C080919000886030
:1057F00080939000D0939D00C0939C004BC08091FB
:10580000A00080688093A0008091A0008F7B80938F
:10581000A000D093A900C093A8003CC08091A00034
:1058200080628093A000D093AB00C093AA0032C0E6
:105830008091A00088608093A000D093AD00C093B9
:10584000AC0028C080912001806880932001D09313
:105850002901C09328011EC080912001806280939D
:105860002001D0932B01C0932A0114C08091200104
:10587000886080932001D0932D01C0932C010AC031
:10588000C038D1051CF4812F60E002C0812F61E097
:105890000E94012DDF91CF911F910895CF93DF9347
:1058A000482F50E0CA018D539E4FFC01349143585C
:1058B0005E4FFA018491882369F190E0880F991F67
:1058C000FC01E15DFE4FA591B491FC01E75BFE4F49
:1058D000C591D491662351F42FB7F8948C91932FEE
:1058E000909589238C93888189230BC0623061F461
:1058F0002FB7F8948C91932F909589238C9388815E
:10590000832B88832FBF06C09FB7F8948C91832B7D
:105910008C939FBFDF91CF910895893009F449C0DE
:105920008A30A0F4843051F1853040F4823079F12E
:10593000833000F5813009F063C026C0873079F1EB
:10594000883098F5863009F05BC025C08D3009F4A9
:1059500042C08E3028F48B30B1F18C30C0F52DC0B0
:10596000803109F442C0813109F445C08F3009F01B
:1059700047C037C0809180008F7703C0809180003E
:105980008F7D80938000089584B58F7702C084B5A1
:105990008F7D84BD08958091B0008F7703C0809182
:1059A000B0008F7D8093B0000895809190008F7734
:1059B00007C0809190008F7D03C080919000877F09
:1059C0008093900008958091A0008F7707C0809108
:1059D000A0008F7D03C08091A000877F8093A000EE
:1059E0000895809120018F7703C0809120018F7DE1
:1059F00080932001089580912001877F809320016A
:105A00000895FF920F931F93F62E482F50E0CA017E
:105A1000875F9D4FFC012491CA018D539E4FFC016D
:105A2000149143585E4FFA0104910023C9F02223D8
:105A300019F0822F0E948D2CE02FF0E0EE0FFF1F57
:105A4000E75BFE4FA591B4919FB7F894FF2021F436
:105A50008C911095812302C08C91812B8C939FBFD8
:105A60001F910F91FF9008950F931F93482F50E0BF
:105A7000CA01875F9D4FFC012491CA018D539E4F3F
:105A8000FC01049143585E4FFA011491112319F45B
:105A900020E030E015C0222319F0822F0E948D2CC7
:105AA000812F90E0880F991F8D599E4FFC01A59181
:105AB000B4918C9120E030E0802311F021E030E0BF
:105AC000C9011F910F9108958F929F92AF92BF923B
:105AD000CF92DF92EF92FF920F931F93CF93DF93BA
