:100000000C9478190C947C230C94AD230C94DE236F
:100010000C940F240C9440240C9471240C94A2246E
:100020000C94D3240C94A5190C94A5190C94A5191F
:100030000C94A5190C9481A60C94A5190C94A519DF
:100040000C94A5190C94757B0C94A5190C94A51906
:100050000C94A5190C94A5190C9443840C940121BB
:100060000C94A5190C94D4500C94A5190C94A519B2
:100070000C94A5190C94A5190C94A5190C94A51908
:100080000C94A5190C94A5190C94A5190C94A519F8
:100090000C94A5190C94A5190C94A5190C9465B091
:1000A0000C94A5190C94A5190C94A5190C94A519D8
:1000B0000C94A5190C94A5190C94A5190C94A519C8
:1000C0000C94A5190C94A5190C94A5190C94A519B8
:1000D0000C94A5190C94A5190C94A5190C94A519A8
:1000E0000C94A519D1A4DFA4E6A4EDA4F4A4FBA468
:1000F000CEA402A509A511A5CEA419A522A52DA5BA
:1001000038A543A54EA5CEA459A564A571A5CEA436
:100110007EA58DA58FA591A593A595A597A599A534
:100120009BA59DA59FA5A1A5A3A5A5A5A7A5A9A597
:10013000ABA5084AD73B3BCE016E84BCBFFDC12FA7
:100140003D6C74319ABD56833DDA3D00C77F11BEC8
:10015000D9E4BB4C3E916BAAAABE000000803F05CB
:10016000A84CCDB2D44EB93836A9020C50B99186FC
:1001700088083CA6AAAA2ABE000000803F000021F1
:1001800000240027002A002D003000330001010068
:1001900000040107010A0100002200250028002BAD
:1001A000002E003100340002010000050108010B9F
:1001B00001000020002300260029002C002F00321F
:1001C00000000100000301060109010505050507FE
:1001D0000508080808020202020A0A0808040404C2
:1001E00004010101010101010103030303030303EE
:1001F00003040707070C0C0C0C0C0C0C0C0202027D
:100200000206060606060606060B0B0B0B0B0B0B6F
:100210000B0102102020080810204010204080020E
:10022000010201080402010102040810204080803C
:1002300040201008040201800402018040201008C0
:100240000402010804020101020408102040800198
:10025000020408102040800000090A02080B0C0D5F
:100260000706030401000000000000000000000079
:10027000000000000000000000000000000000007E
:1002800000000011100F000000000000000000003E
:10029000000000000000000000000000006563682E
:1002A0006F3A004572726F723A005072696E7465EF
:1002B000722073746F707065642064756520746F4C
:1002C000206572726F72732E20466978207468659B
:1002D000206572726F7220616E6420757365204DA7
:1002E00039393920746F20726573746172742E20ED
:1002F0002854656D7065726174757265206973202C
:1003000072657365742E205365742069742061666C
:100310007465722072657374617274696E67290006
:100320005072696E7465722068616C7465642E2009
:100330006B696C6C28292063616C6C656421006FAB
:100340006B00526573656E643A20002200556E6B37
:100350006E6F776E20636F6D6D616E643A20220060
:10036000456C656374726F6E6963735F74657374F3
:100370000020423A300020423A31006F6B20523A5E
:10038000002200556E6B6E6F776E20636F6D6D612E
:100390006E643A2022007A5F6D61783A2000795FBE
:1003A0006D61783A2000785F6D696E3A20005A3AA4
:1003B00000593A0020436F756E7420583A2000456A
:1003C0003A005A3A00593A00583A004649524D57B5
:1003D0004152455F4E414D453A4D61726C696E2008
:1003E000556C74696D616B6572323B205370726934
:1003F0006E7465722F6772626C206D6173687570C0
:1004000020666F722067656E36204649524D57410F
:1004100052455F55524C3A687474703A2F2F676991
:10042000746875622E636F6D2F556C74696D616BA6
:1004300065722050524F544F434F4C5F56455253B4
:10044000494F4E3A312E30204D414348494E455F89
:10045000545950453A556C74696D616B657220450D
:10046000585452554445525F434F554E543A310A01
:100470000020423A0020453A00543A0020573A0002
:1004800020453A00543A002042403A0020403A00C9
:10049000202F0020423A00202F006F6B20543A009A
:1004A0002569206D696E2C202569207365630045E0
:1004B0006E642066696C65206C69737400426567C0
:1004C000696E2066696C65206C69737400000000B9
:1004D00000000066430000664300000000000000CA
:1004E0000000000000000066430000664300006654
:1004F00043456E6473746F70207374696C6C207004
:1005000072657373656420616674657220626163ED
:100510006B696E67206F66662E20456E6473746F1C
:100520007020737475636B3F00456E6473746F70F5
:10053000206E6F74207072657373656420616674D9
:10054000657220686F6D696E6720646F776E2E200C
:10055000456E6473746F702062726F6B656E3F00DE
:10056000456E6473746F70206E6F74207072657363
:1005700073656420616674657220686F6D696E676B
:1005800020646F776E2E20456E6473746F702062E6
:10059000726F6B656E3F00000066430000664300AB
:1005A0000066430000E0400000E0400000E040FF43
:1005B0000101256920686F757273202569206D69B6
:1005C0006E7574657300446F6E65207072696E7429
:1005D000696E672066696C65005072696E74657239
:1005E0002073746F707065642064756520746F206B
:1005F0006572726F72732E20466978207468652068
:100600006572726F7220616E6420757365204D395A
:10061000393920746F20726573746172742E2028CA
:1006200054656D70657261747572652069732072AE
:10063000657365742E205365742069742061667437
:1006400065722072657374617274696E6729006FD8
:100650006B004E6F204C696E65204E756D62657241
:10066000207769746820636865636B73756D2C20EF
:100670004C617374204C696E653A20004E6F2043C4
:100680006865636B73756D2077697468206C696E3B
:1006900065206E756D6265722C204C617374204C00
:1006A000696E653A2000636865636B73756D206DD4
:1006B00069736D617463682C204C617374204C699C
:1006C0006E653A20004C696E65204E756D626572EC
:1006D000206973206E6F74204C617374204C696EB6
:1006E00065204E756D6265722B312C204C617374E0
:1006F000204C696E653A20004D31313000446F6EF8
:100700006520736176696E672066696C652E006F7F
:100710006B004D3239002020506C616E6E65724264
:10072000756666657242797465733A200020467278
:100730006565204D656D6F72793A200044656320D0
:100740003239203230313400436F6D70696C65642A
:100750003A200054696E6B65725F31352E30312D51
:1007600052433500207C20417574686F723A200036
:1007700044656320323920323031342031393A3007
:10078000343A323800204C617374205570646174BF
:1007900065643A2000312E302E30004D61726C6954
:1007A0006E200020536F6674776172652052657306
:1007B000657400205761746368646F6720526573C5
:1007C0006574002042726F776E206F7574205265D9
:1007D000736574002045787465726E616C20526593
:1007E00073657400506F7765725570007374617231
:1007F00074002200656E717565696E6720220022A3
:1008000000656E717565696E672022000000211019
:10081000422063308440A550C660E770088129916A
:100820004AA16BB18CC1ADD1CEE1EFF13112100212
:1008300073325222B5529442F772D66239931883BA
:100840007BB35AA3BDD39CC3FFF3DEE362244334DE
:1008500020040114E664C774A44485546AA54BB50A
:1008600028850995EEE5CFF5ACC58DD553367226B2
:1008700011163006D776F6669556B4465BB77AA75A
:1008800019973887DFF7FEE79DD7BCC7C448E558FE
:100890008668A7784008611802282338CCC9EDD9AA
:1008A0008EE9AFF9488969990AA92BB9F55AD44A52
:1008B000B77A966A711A500A333A122AFDDBDCCBFA
:1008C000BFFB9EEB799B588B3BBB1AABA66C877C1E
:1008D000E44CC55C222C033C600C411CAEED8FFD4A
:1008E000ECCDCDDD2AAD0BBD688D499D977EB66EF2
:1008F000D55EF44E133E322E511E700E9FFFBEEF9A
:10090000DDDFFCCF1BBF3AAF599F788F8891A9815B
:10091000CAB1EBA10CD12DC14EF16FE18010A10045
:10092000C230E3200450254046706760B983989335
:10093000FBA3DAB33DC31CD37FE35EF3B102901295
:10094000F322D2323542145277625672EAB5CBA501
:10095000A89589856EF54FE52CD50DC5E234C324E5
:10096000A01481046674476424540544DBA7FAB7D5
:100970009987B8975FE77EF71DC73CD7D326F23635
:100980009106B01657667676154634564CD96DC921
:100990000EF92FE9C899E9898AB9ABA94458654885
:1009A00006782768C018E1088238A3287DCB5CDB75
:1009B0003FEB1EFBF98BD89BBBAB9ABB754A545AD5
:1009C000376A167AF10AD01AB32A923A2EFD0FED41
:1009D0006CDD4DCDAABD8BADE89DC98D267C076C25
:1009E000645C454CA23C832CE01CC10C1FEF3EFF15
:1009F0005DCF7CDF9BAFBABFD98FF89F176E367E75
:100A0000554E745E932EB23ED10EF01E7C3C3E5E7F
:100A10002B3D3F2F5B5D3B2C2A225C006563686F9A
:100A20003A0020746F6F206C6F6E67206578747267
:100A30007573696F6E2070726576656E746564009B
:100A400020636F6C6420657874727573696F6E20B3
:100A500070726576656E7465640045313A200045B4
:100A6000303A20005A3A2000593A2000583A2000E3
:100A70004D53312C4D53322050696E730A0024F4CB
:100A800004D9201BC40C5C0E9804C4095F026507DE
:100A90007101F405F900FB04B30048048700C103A9
:100AA00069005803550003034500BE023A00840262
:100AB000310053022A002902250004022000E4012B
:100AC0001C00C8011900AF0117009801140084012F
:100AD0001300710110006101100051010E0043016B
:100AE0000D0036010B002B010B0020010B0015013E
:100AF00009000C01090003010800FB000800F300D5
:100B00000800EB000700E4000600DE000600D80045
:100B10000600D2000600CC000500C7000500C20098
:100B20000500BD000400B9000400B5000400B100D8
:100B30000400AD000400A9000400A5000300A20009
:100B400003009F0004009B00030098000300950031
:100B5000020093000300900003008D0002008B0050
:100B60000300880002008600020084000300810068
:100B700002007F0002007D0002007B00020079007D
:100B8000020077000100760002007400020072008B
:100B90000100710002006F0002006D0001006C0096
:100BA00002006A000100690002006700010066009F
:100BB00001006500010064000200620001006100A4
:100BC0000100600001005F0002005D0001005C00A8
:100BD00001005B0001005A000100590001005800AB
:100BE00001005700010056000100550001005400AB
:100BF00001005300000053000100520001005100A9
:100C00000100500001004F0001004E0000004E00A6
:100C100001004D0001004C0001004B0000004B00A2
:100C200001004A000100490001004800000048009E
:100C30000100470001004600000046000100450099
:100C40000000450001004400010043000000430093
:100C5000010042000000420001004100000041008C
:100C60000100400001003F0000003F0001003E0085
:100C700000003E0001003D0000003D0001003C007E
:100C800000003C0000003C0001003B0000003B0075
:100C900001003A0000003A0001003900000039006C
:100CA0000100380000003800000038000100370063
:100CB000000037000100360000003600000036005A
:100CC000010035000000350000003500010034004F
:100CD0000000340000003400010033000000330045
:100CE000000033000100320000003200000032003A
:100CF000010031000000310000003100010030002F
:100D0000000030000000300001002F0000002F0024
:100D100000002F0000002F0001002E0000002E0018
:100D200000002E0001002D0000002D0000002D000D
:100D300000002D0001002C0000002C0000002C0001
:100D400000002C0001002B0000002B0000002B00F5
:100D500000002B0001002A0000002A0000002A00E9
:100D600000002A00010029000000290000002900DD
:100D700000002900000029000100280000002800D0
:100D800000002800000028000000280001002700C3
:100D900000002700000027000000270000002700B7
:100DA00001002600000026000000260000002600AA
:100DB000000026000100250000002500000025009D
:100DC000000025000000250000002500010024008F
:100DD0000000240000002400000024000000240083
:100DE0000100230000002300000023000000230076
:100DF0000000230000002300000023000100220067
:100E0000000022000000220000002200000022005A
:100E1000000022000100210000002100000021004C
:100E2000000021000000210000002100000021003E
:100E30000100200000002000000020000000200031
:100E40000000200000002000000020000000200022
:100E500001001F0000001F0000001F0000001F0015
:100E600000001F0000001F0000001F0001001E0006
:100E700000001E0000001E0000001E00000024F400
:100E8000D43050C38E20C2A24017828B7011127AC8
:100E9000910D816CD90AA861E108C75866076151B4
:100EA00043061E4B5D05C145A7041A411104093DC7
:100EB0009803713931034036DB0265339102D43037
:100EC0005402802E1D02632CEE01752AC501B02844
:100ED000A001102781018F2564012B244B01E02202
:100EE0003401AC211F018D200D01801FFC00841EE8
:100EF000ED00971DDF00B81CD200E61BC600201BCA
:100F0000BC00641AB200B219A8000A19A0006A183D
:100F10009900D117910040178B00B5168400311647
:100F20007E00B31579003A157300C7146F0058148A
:100F30006A00EE1366008813630025135E00C71273
:100F40005B006C12570015125400C1115100701152
:100F50004F0021114B00D61049008D10470046105C
:100F6000440002104200C00F4000800F3E00420FBC
:100F70003C00060F3B00CB0E3800930E37005C0E92
:100F80003500270E3400F30D3200C10D3100900DF5
:100F90003000600D2E00320D2D00050D2C00D90CF7
:100FA0002B00AE0C2900850C29005C0C2700350CA9
:100FB00027000E0C2600E80B2400C40B2400A00B15
:100FC00023007D0B23005A0B2100390B2100180B45
:100FD0002000F80A1F00D90A1E00BB0A1E009D0A45
:100FE0001D00800A1D00630A1C00470A1B002C0A12
:100FF0001B00110A1A00F7091A00DD091900C409BB
:101000001900AB091900920917007B091800630940
:1010100017004C09160036091600200916000A09A7
:101020001500F5081500E0081400CC081400B808F5
:101030001400A4081400900813007D0812006B0827
:101040001300580812004608120034081100230843
:1010500011001208110001081100F0071000E0074C
:101060001000D0071000C0071000B0070F00A10744
:10107000100091070E0083070F0074070F0065072B
:101080000E0057070E0049070E003B070D002E0704
:101090000E0020070D0013070D0006070D00F906CE
:1010A0000C00ED060D00E0060C00D4060C00C8068E
:1010B0000C00BC060C00B0060C00A4060B00990640
:1010C0000C008D060B0082060B0077060B006C06E9
:1010D0000B0061060A0057060B004C060A00420688
:1010E0000A0038060A002E060A0024060A001A061C
:1010F0000A001006090007060A00FD050900F405AC
:101100000900EB050900E2050900D9050900D00531
:101110000900C7050900BE050900B5050800AD05B1
:101120000800A50509009C050800940508008C0529
:101130000800840508007C050800740508006C059B
:101140000700650508005D050700560508004E0507
:10115000070047050700400508003805070031056E
:1011600007002A050700230507001C0506001605D1
:1011700007000F0507000805060002050700FB042D
:101180000600F5040700EE040600E8040600E20489
:101190000700DB040600D5040600CF040600C904DE
:1011A0000600C3040600BD040600B7040600B1042F
:1011B0000500AC040600A6040600A00405009B047C
:1011C000060095040500900406008A0405008504C5
:1011D0000500800406007A0405007504050070040B
:1011E00005006B04050066040500610405005C044D
:1011F000050057040500520405004D04050048048D
:101200000500430405003E0404003A0405003504CB
:101210000500300404002C04050027040400230406
:1012200005001E0404001A0404001604050011043D
:1012300004000D0404000904050004040400000473
:101240000400FC030400F8030400F4030400F003AA
:101250000400EC030400E8030400E4030400E003DA
:101260000400DC030400D8030400D4030400D0030A
:101270000400CC030400C8030300C5030300656336
:10128000686F3A00205A3A0020593A0020583A0034
:10129000656E6473746F7073206869743A200045DA
:1012A00072726F723A003A20457874727564657292
:1012B000207377697463686564206F66662E204DBD
:1012C000415854454D502074726967676572656472
:1012D0002021003A20457874727564657220737716
:1012E000697463686564206F66662E204D494E54AC
:1012F000454D5020747269676765726564202100EE
:1013000054656D706572617475726520686561748D
:10131000656420626564207377697463686564201E
:101320006F66662E204D415854454D5020747269A9
:1013300067676572656420212100202D20496E7643
:10134000616C6964206578747275646572206E756D
:101350006D6265722021000000000018070100A8DE
:1013600007140030082800B8083C0038095000C0B5
:10137000096400480A7800C80A8C00480BA000C81D
:101380000BB400480CC800C80CDC00400DF000C0D5
:101390000D0401380E1801B00E2C01280F4001A0D9
:1013A0000F54011810680188107C01001190013061
:1013B00013F401481558024017BC0228192003F005
:1013C0001A8403A81CE803401E4C045049442041E1
:1013D00075746F74756E652066696E69736865648F
:1013E000212050757420746865204B702C204B6947
:1013F00020616E64204B6420636F6E7374616E7441
:101400007320696E746F20436F6E666967757261D1
:1014100074696F6E2E6800504944204175746F7472
:10142000756E65206661696C6564212074696D65FF
:101430006F75740020403A006F6B20543A006F6B58
:1014400020423A00504944204175746F74756E65AE
:10145000206661696C6564212054656D70657261F8
:101460007475726520746F6F206869676800204B1F
:10147000643A2000204B693A2000204B703A20004B
:1014800020436C61736963205049442000205475E7
:101490003A2000204B753A2000206D61783A2000F8
:1014A000206D696E3A200020643A20002062696154
:1014B000733A20004D383420582059205A204500D6
:1014C0006563686F3A0043616E6E6F7420656E7479
:1014D0006572207375626469723A20004D3234007F
:1014E0004D3233202573006175746F25692E6700B6
:1014F0004572726F723A006572726F72207772690C
:1015000074696E6720746F2066696C650043617250
:1015100064206572726F723A004E6F7420534420DB
:101520007072696E74696E67002F00534420707288
:10153000696E74696E67206279746520002E0044BC
:10154000656C6574696F6E206661696C65642C20DA
:1015500046696C653A200046696C652064656C6577
:101560007465643A002E006F70656E206661696C68
:1015700065642C2046696C653A200057726974696D
:101580006E6720746F2066696C653A20002E006FCC
:1015900070656E206661696C65642C2046696C65B7
:1015A0003A20002E006F70656E206661696C65647C
:1015B0002C2046696C653A200046696C652073658D
:1015C0006C6563746564002053697A653A2000464F
:1015D000696C65206F70656E65643A20002E006F3F
:1015E00070656E206661696C65642C2046696C6567
:1015F0003A200053442063617264206F6B006F7067
:10160000656E526F6F74206661696C656400766FF9
:101610006C756D652E696E6974206661696C6564B0
:1016200000534420696E6974206661696C006563CB
:10163000686F3A0048617264636F64656420446552
:101640006661756C742053657474696E6773204CA1
:101650006F6164656400563031300053746F726599
:10166000642073657474696E67732072657472693F
:1016700065766564002044002049002020204D3319
:1016800030312050005049442073657474696E678E
:10169000733A00205A0020590020204D3230362065
:1016A0005800486F6D65206F666673657420286DFD
:1016B0006D293A00204500205A00205800204200A1
:1016C00020540020204D3230352053004164766193
:1016D0006E636564207661726961626C65733A203D
:1016E000533D4D696E20666565647261746520289E
:1016F0006D6D2F73292C20543D4D696E20747261DD
:1017000076656C20666565647261746520286D6D10
:101710002F73292C20423D6D696E696D756D2073A4
:1017200065676D656E742074696D6520286D732919
:101730002C20583D6D6178696D756D205859206A6F
:1017400065726B20286D6D2F73292C20205A3D6DFA
:101750006178696D756D205A206A65726B20286DFD
:101760006D2F73292C2020453D6D6178696D756D55
:101770002045206A65726B20286D6D2F732900202B
:10178000540020204D323034205300416363656C97
:1017900065726174696F6E3A20533D616363656C75
:1017A00065726174696F6E2C20543D72657472614C
:1017B000637420616363656C65726174696F6E0048
:1017C000204500205A0020590020204D3230312081
:1017D00058004D6178696D756D20416363656C6576
:1017E000726174696F6E20286D6D2F7332293A0013
:1017F000204500205A0020590020204D323033204F
:1018000058004D6178696D756D206665656472611B
:1018100074657320286D6D2F73293A0020450020D0
:101820005A0020590020204D393220580053746549
:1018300070732070657220756E69743A0053657418
:1018400074696E67732053746F72656400544553F6
:10185000540D0A000D0A00556E6B6E6F776E206393
:101860006F6D6D616E643A20000D0A003F0054698F
:101870006E6B65725F31352E30312D52433500026B
:101880004D41494E54454E414E4345004D4154450E
:101890005249414C005052494E54005072696E7486
:1018A000696E672077697468205553422E2E2E008A
:1018B000737570706F727440756C74696D616B656F
:1018C000722E636F6D00436F6E746163743A0058DB
:1018D000206F722059207377697463682073747560
:1018E000636B0058206F72205920737769746368A6
:1018F0002062726F6B656E005A207377697463683B
:1019000020737475636B005A207377697463682061
:1019100062726F6B656E00536166657479206369EE
:1019200072637569740048656174657220657272CE
:101930006F720054656D702073656E736F72204214
:1019400045440054656D702073656E736F72004579
:1019500052524F52202D2053544F50504544008036
:101960001506060606FEFEFEFEFC00000000000056
:1019700000FCFEFEFEFC0000000EFEFEFEFE00006F
:10198000E0FCFEFEFCE0E0000000CECECE00000059
:10199000C0C0C0C0C0C08000000000000080C0C047
:1019A000800000000000008080C0C0C0C0C0C0C077
:1019B00080800000000006FEFEFEFE0000000080A9
:1019C000C0C0C00000000000008080C0C0C0808097
:1019D0008000000000C0C0C0C00080C0C0C0C08087
:1019E00000000000007FFFFFFFFF800000000000FC
:1019F00080FFFFFFFFFF00000000FFFFFFFF000070
:101A000000FFFFFFFF0000000000FFFFFF000000DD
:101A100081F1FFFF3F0F3FFFFCF0F0FCFF3F0F3F66
:101A2000FFFEF880000000C1E1F1F1713101018396
:101A3000FFFFFFFC000000FFFFFFFF000C3EFFFF69
:101A4000F7C301000000FCFEFF8703113131333F73
:101A50003F3F1E000001FFFFFFFF070301010101DF
:101A6000000000000000010307070F0F0F0F0F0F0A
:101A70000F0707070F0F06000000070F0F070000F2
:101A800000070F0F0700000000000F0F0F000006F7
:101A90000F0F070100000001070F0F0701000000F2
:101AA00001070F0F06000003070F0F0E0E060703B6
:101AB000070F0F07000000070F0F070000000003CB
:101AC0000F0F0F060000000307070F0E0E0E0E0E7D
:101AD0000E06000000000F0F0F0F000000000000B6
:101AE0000043414E43454C002073656300206D69FF
:101AF0006E0020686F75720020686F757273000049
:101B00000000000000005F00000007000700147FD5
:101B1000147F14242A7F2A1223130864623649553D
:101B200022500005030000001C2241000041221C3D
:101B300000082A1C2A0808083E0808005030000047
:101B40000808080808006060000020100804023E31
:101B50005149453E00427F40004261514946214182
:101B6000454B311814127F1027454545393C4A49E9
:101B70004930017109050336494949360649492961
:101B80001E003636000000563600000008142241C0
:101B900014141414144122140800020151090632CD
:101BA0004979413E7E1111117E7F494949363E41B6
:101BB0004141227F4141221C7F494949417F090916
:101BC00001013E414151327F0808087F00417F41B9
:101BD000002040413F017F081422417F40404040A7
:101BE0007F0204027F7F0408107F3E4141413E7F17
:101BF000090909063E4151215E7F091929464649D6
:101C000049493101017F01013F4040403F1F2040D1
:101C1000201F7F2018207F631408146303047804B6
:101C200003615149454300007F41410204081020EF
:101C300041417F0000040201020440404040400056
:101C40000102040020545454787F484444383844F6
:101C5000444420384444487F3854545418087E097A
:101C60000102081454543C7F0804047800447D4069
:101C7000002040443D00007F10284400417F400088
:101C80007C041804787C0804047838444444387C84
:101C900014141408081414187C7C0804040848540C
:101CA000545420043F4440203C4040207C1C2040B1
:101CB000201C3C4030403C44281028440C505050DC
:101CC0003C4464544C44000836410000007F00004E
:101CD000004136080008082A1C08081C2A08086267
:101CE00075696C64706C6174652E006F6620616448
:101CF0006A757374696E6720796F757200746872A3
:101D00006F756768207468652070726F63657373A0
:101D100000492077696C6C20677569646520796F6C
:101D2000750043414E43454C00434F4E54494E5578
:101D30004500473120462569205A256920582569E4
:101D40002059256900473238205A30205830205910
:101D5000300066726F6D20746865206275696C640E
:101D6000706C6174652E0061206D696C6C696D65C5
:101D7000746572206177617900756E74696C207486
:101D80006865206E6F7A7A6C6520697300526F7493
:101D90006174652074686520627574746F6E0034B8
:101DA0002F323100434F4E54494E554500434F4E5C
:101DB00054494E554500473120462569205A300088
:101DC0004731204625692058256920592569004753
:101DD0003120462569205A350066726F6D2074687F
:101DE00065206275696C64706C6174652E0069733E
:101DF0002061206D696C6C696D6574657220617716
:101E000061790073637265772074696C6C20746803
:101E100065206E6F7A7A6C65005475726E206C6501
:101E20006674206275696C64706C61746500352F2E
:101E3000323100434F4E54494E55450047312046FC
:101E40002569205A300047312046256920582569E8
:101E50002059256900473120462569205A350066FA
:101E6000726F6D20746865206275696C64706C6156
:101E700074652E0069732061206D696C6C696D65F5
:101E8000746572206177617900736372657720747D
:101E9000696C6C20746865206E6F7A7A6C6500548A
:101EA00075726E207269676874206275696C6470FF
:101EB0006C61746500362F323100434F4E54494EE9
:101EC000554500746865206275696C64706C617456
:101ED00065206C6576656C2E00706170657220748B
:101EE0006F2066696E652D74756E65006E6F772064
:101EF0007573652061207368656574206F66005294
:101F00006570656174207468697320737465702CE2
:101F10002062757400372F323100434F4E54494EC2
:101F2000554500473120462569205A300047312069
:101F300046256920582569205925690047312046E2
:101F40002569205A3500626974207265736973745B
:101F5000616E63652E00756E74696C20796F7520F3
:101F60006665656C2061006275696C64706C617493
:101F70006520616E64206E6F7A7A6C6500536C69BF
:101F80006465206120706170657220626574776598
:101F9000656E00382F323100434F4E54494E55453F
:101FA00000434F4E54494E554500746865206C659A
:101FB000667420636F726E65722E2E2E00526570ED
:101FC000656174207468697320666F7200392F32FE
:101FD0003100434F4E54494E554500746865207298
:101FE0006967687420636F726E65722E2E2E0052C0
:101FF0006570656174207468697320666F72003162
:10200000302F323100434F4E54494E554500444F16
:102010004E4500473238205A3000746F20696E7385
:10202000657274206D6174657269616C2E007468EC
:1020300065206E6578742073746570206973007410
:102040006865206275696C64706C617465004E6FC0
:10205000772074686174207765206C6576656C659F
:10206000640031312F323100434F4E54494E5545B3
:10207000004D38340047312046313230303020585E
:1020800031313020593130006D6174657269616C95
:10209000206C6F6164696E67007072696E74686548
:1020A00061642068656174696E6720666F720050B4
:1020B0006C6561736520776169742C0031322F3251
:1020C000310061626F766520746865206172726F9D
:1020D000772E00796F757220556C74696D616B6530
:1020E00072322C0066726F6D2074686520726561B3
:1020F00072206F6600496E73657274206E6577207A
:102100006D6174657269616C0031332F3231004347
:102110004F4E54494E5545004C6F6164696E6720BF
:102120006D6174657269616C2E2E2E0031342F3210
:10213000310066726F6D206E6F7A7A6C652E2E2E6E
:10214000006D6174657269616C20657869747300F3
:102150005075736820627574746F6E207768656E51
:102160000031352F323100434F4E54494E55450012
:10217000556C74696D616B6572322E00696E7365A2
:102180007274656420696E2074686520006D6174E6
:10219000657269616C20796F752068617665004EA3
:1021A0006578742C2073656C6563742074686500B1
:1021B00031362F32310052454144590031372F32E8
:1021C000310041425300504C4100697320746869EA
:1021D000732072696768743F004142532061732025
:1021E0006D6174657269616C2C00596F752068614E
:1021F00076652063686F73656E0031382F32310069
:102200004E4F0059455300697420697320757369F6
:102210006E672E006F66206D6174657269616C0077
:102220006B6E6F77732077686174206B696E6400E2
:102230004E6F7720796F757220556C74696D616B84
:102240006572320031392F323100434F4E54494EBE
:102250005545006D616B65206120334420507269E3
:102260006E74210049276D207265616479206C6568
:102270007427730032302F32310041524520594FBC
:10228000552052454144593F00746F207072696E69
:10229000742069742100616E64207072657373200C
:1022A00074686520627574746F6E006F6E20746858
:1022B000652053442D636172640053656C656374DB
:1022C0002061207072696E742066696C650032311D
:1022D0002F3231004C45542753205052494E540060
:1022E00052656164696E6720636172642E2E2E00F0
:1022F00032312F323100796F757220556C74696DEF
:10230000616B6572322E2E2E0074686174206361D9
:102310006D65207769746800506C6561736520692C
:102320006E736572742053442D63617264003231A0
:102330002F3231006973207468697320726967688D
:10234000743F00504C41206173206D617465726967
:10235000616C2C00596F7520686176652063686F29
:1023600073656E0031382F3231004E4F005945539E
:1023700000627574746F6E20746F20636F6E746981
:102380006E756500556C74696D616B6572212050C6
:10239000726573732074686500737461727475700C
:1023A000206F6620796F75720057656C636F6D657D
:1023B00020746F2074686520666972737400312F11
:1023C000323100434F4E54494E55450061206669F5
:1023D0007273742072756E2077697A6172642E0050
:1023E00077616C6B20796F75207468726F756768A0
:1023F0000066697273742073746172747570204919
:102400002077696C6C004265636175736520746840
:1024100069732069732074686500322F323100437C
:102420004F4E54494E554500473120462569205AA4
:10243000256900473238205A3000676F696E67207F
:10244000746F20646F2074686174206E6F772E0043
:1024500061646A7573746D656E74732C2077652082
:10246000617265007765206E65656420746F206415
:102470006F20736F6D6500416674657220747261C0
:102480006E73706F72746174696F6E00332F3231C6
:1024900000434F4E54494E5545004731204625696B
:1024A000205A256920582569205925690047323866
:1024B0002058302059300025004272696768746ED8
:1024C000657373004C45440025003F3F3F002047A3
:1024D0006C6F77207768656E20646F6E6500204FA3
:1024E0006E207768696C65207072696E74696E67BA
:1024F0000020416C77617973204F66660020416C43
:1025000077617973204F6E004272696768746E65F7
:102510007373003C2052455455524E006D410043A8
:10252000757272656E742045006D4100437572725C
:10253000656E74205A006D410043757272656E7449
:1025400020582F59006D6D2F736563004D61782001
:102550007370656564205A006D6D2F736563004D5F
:1025600061782073706565642059006D6D2F736507
:1025700063004D61782073706565642058006D6D4F
:102580002F73656300582F59204A65726B003030F5
:102590006D6D2F7365635E3200416363656C6572B8
:1025A0006174696F6E004D4F54494F4E006D41008C
:1025B0006D41006D41006D6D2F736563006D6D2F72
:1025C000736563006D6D2F736563006D6D2F7365AB
:1025D00063006D6D2F7365635E32003F3F3F0043C4
:1025E000757272656E7420450043757272656E7403
:1025F000205A0043757272656E7420582F59004D31
:102600006178207370656564205A004D617820738D
:10261000706565642059004D61782073706565644C
:10262000205800582F59204A65726B00416363653A
:102630006C65726174696F6E003C2052455455524E
:102640004E006D6D2F736563005265747261637423
:10265000207370656564006D6D005265747261630E
:1026600074206C656E67746800524554524143543F
:10267000494F4E006D6D2F736563006D6D003F3FD8
:102680003F00526574726163742073706565640005
:1026900052657472616374206C656E677468003C87
:1026A0002052455455524E00746F20646566617522
:1026B0006C743F0052657365742065766572797439
:1026C00068696E67004E4F00594553006D00204DFC
:1026D00061743A003A005072696E74696E673A002C
:1026E0003A004D616368696E65206F6E20666F7297
:1026F0003A0052657475726E0054696E6B65725F54
:1027000031352E30312D5243350044656320323946
:1027100020323031342031393A30343A34330052B7
:10272000657475726E004300432F00436C69636BE0
:1027300020746F2072657475726E004275696C64E6
:10274000706C6174652074656D702E3A00430043AF
:102750002F00436C69636B20746F2072657475720F
:102760006E00526F7461746520746F2065787472A6
:10277000756465004E6F7A7A6C652074656D70655E
:102780007261747572653A004300432F00436C69AF
:10279000636B20746F2072657475726E004E6F7A71
:1027A0007A6C652074656D70657261747572653AD6
:1027B00000250046616E2073706565640047312016
:1027C0005A343000473238205A3000473238205AC5
:1027D00030004732382058302059300041445641AB
:1027E0004E434544004D41494E54454E414E4345AC
:1027F0000054696E6B65725F31352E30312D524356
:1028000035005374616E64617264204D6F646500BD
:102810004765656B204D6F64650025004300432FBD
:10282000004300432F0025003F3F3F004661637493
:102830006F72792072657365740052756E74696D7C
:10284000652073746174730056657273696F6E00EE
:102850004578706572742073657474696E6773006F
:1028600041646A757374206275696C64706C61741C
:1028700065004D6F74696F6E2073657474696E675F
:10288000730052657472616374696F6E207365744E
:1028900074696E6773005365742066616E2073708F
:1028A000656564004D6F7665206D61746572696160
:1028B0006C00496E73657274206D61746572696134
:1028C0006C005261697365206275696C64706C613B
:1028D0007465004C6F776572206275696C64706C0A
:1028E00061746500486F6D652068656164004865C6
:1028F00061747570206275696C64706C61746500D8
:10290000486561747570206E6F7A7A6C65004C450D
:10291000442073657474696E6773003C205245549B
:1029200055524E0052455455524E00414456414E68
:10293000434544004255494C442D7C504C4154453C
:1029400000555045540055504554005550455400CD
:1029500041425300504C41004731204625692058E0
:1029600025692059256900473238205830205930D0
:10297000006D6174657269616C20696E7365727453
:10298000696F6E0048656174696E67207072696E68
:10299000746865616420666F720047323820583071
:1029A0002059300061626F7665207468652061721D
:1029B000726F772E00796F7572206D616368696E32
:1029C000652C0066726F6D20746865206261636BB0
:1029D00073696465206F6600496E73657274206E5A
:1029E0006577206D6174657269616C0043414E4387
:1029F000454C00524541445900466F7277617264FC
:102A0000696E67206D6174657269616C00636F6DDA
:102A10006573206F757420746865206E6F7A7A6CA8
:102A20006500576169742074696C6C206D61746510
:102A30007269616C0043414E43454C00524541442C
:102A400059004D4154455249414C0053656C6563F2
:102A5000746564206D6174657269616C3A004F4BF6
:102A600000250046616E3A200043004300250046E1
:102A70006C6F773A006D6D0052455455524E0053BD
:102A8000455454494E4753004348414E4745004D35
:102A90004154455249414C006469616D65746572E9
:102AA00000666C6F770066616E5F737065656400C9
:102AB0006265645F74656D706572617475726500DE
:102AC00074656D7065726174757265006E616D65B7
:102AD000005B6D6174657269616C5D00466F756E57
:102AE00064206F6E20636172642E004E6F206578E3
:102AF000706F72742066696C650052656164696EFE
:102B00006720636172642E2E2E00506C65617365C0
:102B100020696E736572742063617264004E6F2069
:102B200053442D43415244210066726F6D207468F6
:102B3000652053442063617264004C6F6164656476
:102B4000206D6174657269616C73004F6B000A0AD5
:102B5000006469616D657465723D000A00666C6FA2
:102B6000773D000A0066616E5F73706565643D00C5
:102B70000A006265645F74656D7065726174757278
:102B8000653D000A0074656D7065726174757265EB
:102B90003D000A006E616D653D005B6D617465729C
:102BA00069616C5D0A0052656164696E67206361EA
:102BB00072642E2E2E00506C6561736520696E73F1
:102BC0006572742063617264004E6F2053442D431C
:102BD0004152442100696E204D4154455249414CB7
:102BE0002E54585400746F20746865205344206339
:102BF000617264005361766564206D617465726909
:102C0000616C73004F6B0025004D617465726961E2
:102C10006C20666C6F7700250046616E20737065CE
:102C20006564006D6D004D6174657269616C20446E
:102C300069616D657465720043004275696C64700A
:102C40006C6174652054656D702E00430054656D91
:102C50007065726174757265004D41544552494109
:102C60004C0050524553455453004E6577207072C6
:102C700065736574003C2052455455524E00250042
:102C800025006D6D00430043003F3F3F0053746FCC
:102C900072652061732070726573657400466C6F95
:102CA0007720250046616E004469616D6574657228
:102CB00000486561746564206275696C64706C615C
:102CC00074650054656D7065726174757265003C61
:102CD0002052455455524E004C6F61647320616C14
:102CE0006C206D6174657269616C73005361766507
:102CF0007320616C6C206D6174657269616C730026
:102D00004D6F6469667920746865207365747469B1
:102D10006E677300250046616E3A20004300430051
:102D20002500466C6F773A006D6D00496D706F72CB
:102D3000742066726F6D205344004578706F727412
:102D400020746F20534400437573746F6D697A6506
:102D5000003C2052455455524E00666F72206D6102
:102D600074657269616C2072656D6F76616C004884
:102D7000656174696E67207072696E7468656164FC
:102D800000526576657273696E67206D6174657255
:102D900069616C0052656D6F7665206D6174657256
:102DA00069616C0043414E43454C005245414459D2
:102DB000004731204625692058256920592569009A
:102DC0004732382058302059300025004272696758
:102DD00068746E6573730025004D61746572696176
:102DE0006C20666C6F7700250046616E20737065FD
:102DF00065640025005072696E74207370656564A7
:102E0000004D3630312058313020593230205A3080
:102E1000204C3330004D363031205831302059327B
:102E200030205A32204C3330004D3630312058316A
:102E30003020593230205A3230204C333000545533
:102E40004E45006D6D2F736563005265747261634A
:102E500074207370656564006D6D005265747261F5
:102E60006374206C656E6774680052455452414328
:102E700054494F4E006D6D2F736563006D6D003FBB
:102E80003F3F0052657472616374207370656564BE
:102E90000052657472616374206C656E67746800BB
:102EA0003C2052455455524E002500250025004334
:102EB0000043004300430025004C45442042726912
:102EC0006768746E657373005265747261637469C8
:102ED0006F6E004D6174657269616C20666C6F770E
:102EE0000046616E207370656564004275696C64AC
:102EF000706C6174652074656D702E0054656D7022
:102F00006572617475726500537065656400506127
:102F10007573696E672E2E2E00526573756D650090
:102F200043616E206E6F742070617573650050612F
:102F3000757365003C2052455455524E0043004382
:102F40002F00436C69636B20746F20726574757217
:102F50006E004E6F7A7A6C652074656D7065726173
:102F6000747572653A0041626F72742074686520EE
:102F70007072696E743F004E4F00594553004D38D2
:102F8000340047323800473120462569204530005B
:102F900047393220452569004300432000507269BB
:102FA0006E74657220636F6F6C696E6720646F77F3
:102FB0006E004241434B20544F204D454E55007406
:102FC0006865207072696E742E00596F7520636198
:102FD0006E2072656D6F7665005072696E74206642
:102FE000696E6973686564004241434B20544F2009
:102FF0004D454E5500534420434152440047312033
:103000004631323030302058352059313000473287
:1030100038003B464C41564F523A556C7469474311
:103020006F6465003B464C41564F523A556C74698B
:1030300047436F6465004E6F2066696C6573206658
:103040006F756E6421004F4B004F4B0052656164F9
:10305000696E6720636172642E2E2E00506C65616C
:10306000736520696E736572742063617264004ECB
:103070006F2053442D4341524421003C20424143A0
:103080004B003C2052455455524E0066726F6D20E5
:1030900074686520736C696365722E00736574745F
:1030A000696E6720776974682073657474696E67E8
:1030B000006F76657272696465206D616368696E20
:1030C0006500546869732066696C652077696C6C6B
:1030D0000043414E43454C00434F4E54494E5545E5
:1030E0000054696D65206C6566740054696D6520D7
:1030F0006C65667420756E6B6E6F776E004300436F
:103100000048656174696E67206275696C64706CF3
:10311000617465004300430048656174696E67002F
:10312000746F20636F6E74696E756500507265739D
:103130007320627574746F6E005072696E74696E7C
:10314000673A0041424F52540054554E4500507268
:1031500065706172696E6720746F207072696E7439
:103160003A0048656174696E672075702E2E2E00D6
:1031700041424F52540054554E45004E6F20696EE7
:10318000666F20617661696C61626C65006D006DCF
:10319000004D6174657269616C3A200054696D6517
:1031A0003A20003B4D4154455249414C3A003B5472
:1031B000494D453A00466F6C64657200436F646523
:1031C0003A0053442D636172642100726561646941
:1031D0006E67004572726F72207768696C65005285
:1031E000455455524E20544F204D41494E00430006
:1031F000430025002500457870657274207365745E
:1032000074696E6773003F3F3F00204765656B2020
:103210004D6F646500205374616E64617264204D6B
:103220006F6465003C2052455455524E00250043C2
:1032300000430048656174696E67206275696C645B
:10324000706C617465004300430048656174696E89
:103250006700746F20636F6E74696E7565005072DD
:1032600065737320627574746F6E004300430025AC
:103270000046616E0025005370656564005A004386
:10328000002F00430043002F0043002500486561E4
:1032900074696E672075702E2E2E200041424F52A9
:1032A000540054554E4500494E46494E4954594ED6
:1032B000414ECDCCCC3D0AD7233C17B7D13877CC83
:1032C0002B329595E6241FB14F0A000020410000E3
:1032D000C84200401C4620BCBE4CCA1B0E5AAEC59C
:1032E0009D740D94E500552668514BAB502654ABA8
:1032F00011241FBECFEFD1E2DEBFCDBF00E00CBF77
:1033000014E0A0E0B2E0E2E1F1E102E00BBF02C0B4
:1033100007900D92A438B107D9F71BBE1AE1A4E8B3
:10332000B4E001C01D92A73FB107E1F712E3CCEE74
:10333000D2E304C02297FE010F942F08C63ED107A6
:10334000C9F70F94FE020D947D080C940000CF93F2
:10335000DF93BC018230910510F462E070E0A0912F
:10336000F31AB091F41AED01E0E0F0E040E050E033
:1033700021C0888199818617970769F48A819B818A
:10338000309719F09383828304C09093F41A80934A
:10339000F31AFE0134C06817790738F44115510556
:1033A00019F08417950708F4AC01FE018A819B810E
:1033B0009C01E9012097E9F641155105A9F1CA01DF
:1033C000861B970B049708F4BA01E0E0F0E02AC0EE
:1033D0008D919C91119784179507F9F464177507DF
:1033E00081F412968D919C911397309719F09383E5
:1033F000828304C09093F41A8093F31AFD013296ED
:103400004CC0CA01861B970BFD01E80FF91F6193A1
:10341000719302978D939C9340C0FD0182819381AB
:103420009C01D9011097A1F68091F11A9091F21A9E
:10343000892B41F480915503909156039093F21A91
:103440008093F11A4091570350915803411551054B
:1034500041F44DB75EB78091530390915403481BDC
:10346000590B2091F11A3091F21ACA01821B930B69
:103470008617970780F0AB014E5F5F4F8417950763
:1034800050F0420F531F5093F21A4093F11AF90172
:103490006193719302C0E0E0F0E0CF01DF91CF9142
:1034A0000895CF93DF93009709F450C0EC01229761
:1034B0001B821A82A091F31AB091F41A109709F1A5
:1034C00040E050E0AC17BD0708F1BB83AA83FE01C2
:1034D00021913191E20FF31FAE17BF0779F48D915F
:1034E0009C911197280F391F2E5F3F4F39832883F6
:1034F00012968D919C9113979B838A834115510558
:1035000071F4D093F41AC093F31A20C012968D91DF
:103510009C911397AD01009711F0DC01D3CFFA0114
:10352000D383C28321913191E20FF31FCE17DF07BE
:1035300069F488819981280F391F2E5F3F4FFA0166
:10354000318320838A819B8193838283DF91CF9112
:103550000895A0E0B0E0EFEAFAE10D944C08EC0128
:103560005B016115710519F0FB0191838083F9906E
:103570008F2D90E00F943308892BC9F7FDE2FF16D9
:1035800021F4F990EE24E39405C02BE2F21609F43D
:10359000F990EE248E0101501040C80167EA72E3F1
:1035A00043E050E0D4D2892BF9F48E010E5F1F4F17
:1035B000C8016AEA72E345E050E0C9D2892B19F4E8
:1035C0008E01095F1F4FA114B10419F0F501118399
:1035D0000083E0FC04C070E090E080E813C070E07D
:1035E00090E080E86FEF07C1C8016FEA72E343E043
:1035F00050E0ADD2892B69F4A114B10429F470E034
:1036000090E080EC6FE7F7C02296F501D183C0838C
:10361000F6CF8824992440E050E060E070E0EF2D80
:10362000E053EA30A0F5F2E0EF2A8E2D90E09C0105
:1036300028703070E2FE06C0232B79F50894811CB7
:10364000911C2BC0232B19F0089481089108DB01F1
:10365000CA0112E0880F991FAA1FBB1F1A95D1F744
:10366000480F591F6A1F7B1F440F551F661F771F86
:103670004E0F511D611D711D483929E9520729E975
:10368000620729E1720748F084E0E82A06C0EE3FAD
:1036900031F4E3FC39C098E0E92AF990C0CFE53372
:1036A00011F0E53189F529912D3219F4E0E1EE2A86
:1036B00005C02B3219F081E090E003C0299182E02F
:1036C00090E0E22FE053EA3018F0C81BD90B1CC081
:1036D00020E030E0FCE020383F075CF4C901880FAF
:1036E000991F880F991F280F391F220F331F2E0F84
:1036F000311DE991E053EA3068F3E4FE03C03095F0
:1037000021953F4F820E931ECE2CDD24E1FE07C093
:10371000A114B10421F02197F501D183C083CB011D
:10372000BA010F9488047B018C01F3E0CF22DD24E1
:1037300023E0C216D10421F417FB109517F9109558
:1037400057016801C801B70120E030E040E050E0D7
:103750000F94E803882309F44AC097FE0DC026ECB5
:10376000E22E22E3F22E9094819491089394C0E289
:10377000D0E000E010E012C09EEDE92E92E3F92EB9
:10378000F6CFF7012591359145915491C601B501C8
:103790000F94C8065B016C018C1A9D0A8C169D065D
:1037A00084F7D595C7950F5F1F4F0630110529F097
:1037B0008CEF9FEFE80EF91EF1CFC501D6017C0119
:1037C0008D018C2D880F8D2D881F8F3F51F0C601E4
:1037D000B50120E030E040E050E00F94E80388239A
:1037E00031F482E290E09093F61A8093F51A7E2DE0
:1037F0009F2D802F612F272F392F482F562FB9014A
:10380000CA01CDB7DEB7ECE00D9468082F923F9265
:103810005F926F927F928F929F92AF92BF92CF9260
:10382000DF92EF92FF920F931F93CF93DF938C0160
:103830001B01EA016115710519F0FB019183808379
:10384000209749F0CE010297839728F020E030E0DE
:1038500040E050E0F6C0F801A1908F018A2D90E081
:103860000F943308892BB9F7FDE2AF1631F4F80154
:10387000A1908F015524539407C0FBE2AF1619F4B1
:10388000F801A1908F015524209719F0C031D1057E
:10389000C1F4F0E3AF1679F4F8018081883711F0B4
:1038A000883549F4F801A1800E5F1F4FF2E05F2ACE
:1038B000C0E1D0E006C0209721F480E3A816E9F427
:1038C00027C0C830D10531F1C930D10524F4C23048
:1038D000D10531F50CC0CA30D10589F0C031D10510
:1038E000F9F4C12CD12CE12CB8E0FB2E28C0C12C5E
:1038F000D12CE12CA0E4FA2E22C0CAE0D0E0FCECEE
:10390000CF2EFCECDF2EFCECEF2EFCE0FF2E17C0E0
:10391000C8E0D0E0C12CD12CE12CE0E1FE2E0FC09C
:103920009E01442737FD4095542F60E070E080E011
:1039300090E80F94DC07C901DA016C017D0120E0F9
:1039400030E040E050E060E03E01882477FC809465
:10395000982C70EDB72EBA0CE9E0EB1570F48A2DB7
:1039600081548A3118F499ECB92E06C08A2D8156FB
:103970008A3150F589EAB82EBA0C8B2D90E08C175D
:103980009D0714F56F3FE1F0C216D306E406F50675
:10399000B0F0CA01B901A40193010F949E079B01E5
:1039A000AC012B0D311D411D511D2130F0E03F07B1
:1039B000F0E04F07F0E85F0710F461E001C06FEF3F
:1039C000F801A1908F01C5CF2114310481F0662345
:1039D00031F001501040F1011183008308C051FE05
:1039E0001AC002501040F1011183008314C067FF18
:1039F00012C050FC05C02FEF3FEF4FEF5FE704C050
:103A000020E030E040E050E882E290E09093F61A47
:103A10008093F51A16C050FE08C050954095309519
:103A200021953F4F4F4F5F4F0CC057FF0AC082E2B6
:103A300090E09093F61A8093F51A2FEF3FEF4FEF37
:103A40005FE7B901CA01DF91CF911F910F91FF90FC
:103A5000EF90DF90CF90BF90AF909F908F907F902E
:103A60006F905F903F902F900895FC0188279927D1
:103A7000E89421912032E9F3293010F02E30C8F378
:103A80002B3239F02D3231F4689403C01FD1820FEC
:103A9000911D219120532A30C8F31EF490958195F1
:103AA0009F4F08951F93FC0199278827BC01E89434
:103AB00011911032E9F3193010F01E30C8F31B32A7
:103AC00049F01D3241F4689405C0EBD0610F711DBF
:103AD000811D911D119110531A30B8F33EF4909549
:103AE0008095709561957F4F8F4F9F4F1F910895DF
:103AF000FB01DC010D900020E9F7119705900D9274
:103B00000020E1F70895FC010590061621F0002041
:103B1000D9F7C00108953197CF010895FB01DC0169
:103B20008D91059080190110D9F3990B0895FB012F
:103B3000DC0105900D920020E1F70895FC0105904D
:103B40000020E9F7809590958E0F9F1F0895FB0147
:103B5000DC014150504088F08D9181341CF08B3550
:103B60000CF4805E659161341CF06B350CF4605E82
:103B7000861B611171F3990B0895881BFCCFFB0123
:103B8000DC014150504030F08D910590801919F4BE
:103B90000020B9F7881B990B0895FB01DC01415007
:103BA000504048F005900D920020C9F701C01D92C9
:103BB00041505040E0F70895FB0155915523A9F07D
:103BC000BF01DC014D9145174111E1F759F4CD01D9
:103BD0000590002049F04D9140154111C9F3FB01BA
:103BE0004111EFCF81E090E001970895FB01DC01E6
:103BF00004C08D910190801921F441505040C8F7C4
:103C0000881B990B0895FB01DC0102C001900D9205
:103C100041505040D8F70895FB01DC010D90002081
:103C2000E9F7119701900D920020E1F70895FC014A
:103C30008191861721F08823D9F799270895319724
:103C4000CF010895FB01DC0101900D920020E1F706
:103C50000895FB01DC014150504030F08D910190FE
:103C6000801919F40020B9F7881B990B0895FB01FE
:103C7000DC014150504048F001900D920020C9F7FE
:103C800001C01D9241505040E0F70895FC0181E0D1
:103C900090E00190061609F4CF010020D1F70197BA
:103CA0000895592F482F372F262F660F771F881F0B
:103CB000991F660F771F881F991F620F731F841F3C
:103CC000951F660F771F881F991F08957AE0979FA9
:103CD000902D879F802D910D11240895AEE0B0E0C6
:103CE000E4E7FEE10D9454080E891F898EE08C8371
:103CF0001A8309838FEF9FE79E838D839E01265E43
:103D00003F4FCE010196688D798DA9010AD02F8190
:103D10003885020F131FF80110822E96E4E00D94EF
:103D20007008ABE0B0E0E7E9FEE10D9446083C0125
:103D30002B015A01FC0117821682838181FD03C089
:103D40006FEF7FEFB9C19AE0892E1E010894211C04
:103D5000311CF3012381F20123FD859123FF819121
:103D60002F01882309F4A5C1853239F423FD8591FB
:103D700023FF81912F01853221F490E0B301B7D167
:103D8000E8CF982FFF24EE249924FFE1FF15D0F00F
:103D90009B3269F09C3228F4903259F0933291F4BE
:103DA0000EC09D3249F0903369F441E024C052E0E6
:103DB000F52A84E0F82A28C098E0F92A25C0E0E135
:103DC000FE2A22C0F7FC29C0892F80538A3070F464
:103DD000F6FE05C0989C902C1124980E15C0E89C06
:103DE000E02C1124E80EF0E2FF2A0EC09E3229F4E6
:103DF000F6FC5FC140E4F42A07C09C3619F450E891
:103E0000F52A02C0983649F4F20123FD959123FF6B
:103E100091912F01992309F0B8CF892F85548330D0
:103E200018F08052833038F444E050E0A40EB51E00
:103E30005FE359830FC0933631F0933779F09335B0
:103E400009F052C01FC0F5018081898342E050E033
:103E5000A40EB51E610101E010E011C0F501C080A3
:103E6000D180F6FC03C06FEF7FEF02C0692D70E0D8
:103E700042E050E0A40EB51EC6012ED18C015FE7D2
:103E8000F52213C0F501C080D180F6FC03C06FEFAE
:103E90007FEF02C0692D70E042E050E0A40EB51E35
:103EA000C6010FD18C0150E8F52AF3FE06C018C0F8
:103EB00080E290E0B3011BD1EA948E2D90E00817C8
:103EC0001907B0F30DC0F601F7FC8591F7FE81915B
:103ED0006F0190E0B3010BD1E110EA940150104062
:103EE0000115110581F7E2C0943611F0993661F59C
:103EF000F7FE08C0F501208131814281538184E0C1
:103F000090E00AC0F501808191819C01442737FD32
:103F10004095542F82E090E0A80EB91E9FE6F9224A
:103F200057FF09C050954095309521953F4F4F4F11
:103F30005F4FE0E8FE2ACA01B901A1012AE030E0A2
:103F400002D1D82ED2183FC0953729F41F2D1F7EDD
:103F50002AE030E01DC01F2D197F9F3661F0903799
:103F600020F4983509F0A5C00FC0903739F0983784
:103F700009F09FC004C028E030E00AC0106114FDC1
:103F8000146020E130E004C014FD166020E132E04E
:103F900017FF08C0F501608171818281938144E03F
:103FA00050E008C0F50180819181BC0180E090E083
:103FB00042E050E0A40EB51EA101C5D0D82ED21803
:103FC0008FE7F82EF122F6FE0BC05EEFF522D91432
:103FD00038F4F4FE07C0F2FC05C08FEEF82202C0F0
:103FE0001D2D01C0192DF4FE0DC0FE01ED0DF11DBA
:103FF0008081803319F499EEF92208C01F5FF2FE28
:1040000005C003C08F2D867809F01F5F0F2DF3FCCC
:1040100013C0F0FE0EC01E1510F09D2C0AC09D2C82
:104020009E0C911A1E2D05C080E290E0B3015FD076
:104030001F5F1E15C8F304C01E1510F4E11A01C05D
:10404000EE2404FF0EC080E390E0B30150D002FFE5
:104050001BC001FD03C088E790E00EC088E590E03A
:104060000BC0802F867881F001FF02C08BE201C077
:1040700080E2F7FC8DE290E0B30139D005C080E327
:1040800090E0B30134D09A94D914C8F3DA94F101D2
:10409000ED0DF11D808190E0B30129D0DD20B1F755
:1040A00005C080E290E0B30122D0EA94EE20C9F787
:1040B00050CEF30166817781CB012B96E2E10D941E
:1040C0006208FC010590615070400110D8F780959E
:1040D00090958E0F9F1F0895FC01615070400190D4
:1040E0000110D8F7809590958E0F9F1F08950F931C
:1040F0001F93CF93DF938C01EB018B8181FF1BC05A
:1041000082FF0DC02E813F818C819D812817390748
:1041100064F4E881F9810193F983E88306C0E885B6
:10412000F985802F1995892B31F48E819F81019615
:104130009F838E8302C00FEF1FEFC801DF91CF91E5
:104140001F910F910895FA01AA27283051F12031CB
:1041500081F1E8946F936E7F6E5F7F4F8F4F9F4F1B
:10416000AF4FB1E03ED0B4E03CD0670F781F891F5D
:104170009A1FA11D680F791F8A1F911DA11D6A0F2B
:10418000711D811D911DA11D20D009F468943F91DE
:104190002AE0269F11243019305D3193DEF6CF01DD
:1041A0000895462F4770405D4193B3E00FD0C9F7A3
:1041B000F6CF462F4F70405D4A3318F0495D31FD10
:1041C0004052419302D0A9F7EACFB4E0A695979563
:1041D000879577956795BA95C9F700976105710539
:1041E00008959B01AC010A2E069457954795379583
:1041F0002795BA95C9F7620F731F841F951FA01DDD
:1042000008951F920F920FB60F9211242F933F9390
:104210008F939F93AF93BF9380918804909189046B
:10422000A0918A04B0918B0430918C040196A11D59
:10423000B11D232F2D5F2D3720F02D570196A11D85
:10424000B11D20938C048093880490938904A093DB
:104250008A04B0938B048091840490918504A0918A
:104260008604B09187040196A11DB11D809384043A
:1042700090938504A0938604B0938704BF91AF9177
:104280009F918F913F912F910F900FBE0F901F9094
:1042900018958FB7F8942091880430918904409143
:1042A0008A0450918B048FBFB901CA010895789494
:1042B00084B5826084BD84B5816084BD85B582602B
:1042C00085BD85B5816085BDEEE6F0E080818160C9
:1042D0008083E1E8F0E010828081826080838081C9
:1042E00081608083E0E8F0E0808181608083E1EBA1
:1042F000F0E0808184608083E0EBF0E08081816089
:104300008083E1E9F0E08081826080838081816048
:104310008083E0E9F0E0808181608083E1EAF0E081
:10432000808182608083808181608083E0EAF0E028
:10433000808181608083E1E2F1E08081826080831E
:10434000808181608083E0E2F1E080818160808310
:10435000EAE7F0E0808184608083808182608083EE
:104360008081816080838081806880831092C10019
:1043700008951F93CF93DF93182FEB0161E0D7D0FF
:10438000209709F4CAC0CF3FD10509F4C9C0E12F75
:10439000F0E0E95AFD4F8491893009F466C08A3013
:1043A000B0F48430F1F1853040F4823059F183303B
:1043B00070F5813009F0AEC020C0873009F443C0E9
:1043C000883008F048C0863009F0A4C034C08D3071
:1043D00009F478C08E3038F48B3009F45AC08C3030
:1043E00008F066C04CC0803109F480C0813109F406
:1043F00087C08F3009F08EC06FC084B5806884BDDF
:10440000C7BD91C084B5806284BDC8BD8CC0809199
:104410008000806880938000D0938900C0938800DA
:1044200082C080918000806280938000D0938B0056
:10443000C0938A0078C08091B00080688093B000FB
:10444000C093B30070C08091B00080628093B000D0
:10445000C093B40068C08091900080688093900001
:10446000D0939900C09398005EC0809190008062C4
:1044700080939000D0939B00C0939A0054C0809189
:104480009000886080939000D0939D00C0939C0022
:104490004AC08091A00080688093A0008091A00015
:1044A0008F7B8093A000D093A900C093A8003BC04D
:1044B0008091A00080628093A000D093AB00C09355
:1044C000AA0031C08091A00088608093A000D093A2
:1044D000AD00C093AC0027C080912001806880931C
:1044E0002001D0932901C09328011DC08091200193
:1044F000806280932001D0932B01C0932A0113C0C6
:1045000080912001886080932001D0932D01C09379
:104510002C0109C0C038D1051CF4812F60E002C015
:10452000812F61E0B7D0DF91CF911F910895CF9394
:10453000DF93482F50E0CA018F5E9D4FFC013491FC
:1045400045535E4FFA018491882369F190E0880F0A
:10455000991FFC01E358FE4FA591B491FC01E95667
:10456000FE4FC591D491662351F42FB7F8948C91E6
:10457000932F909589238C93888189230BC0623077
:1045800061F42FB7F8948C91932F909589238C9395
:104590008881832B88832FBF06C09FB7F8948C91A6
:1045A000832B8C939FBFDF91CF910895893009F4BD
:1045B00049C08A30A0F4843051F1853040F4823013
:1045C00079F1833000F5813009F063C026C087306F
:1045D00079F1883098F5863009F05BC025C08D30C0
:1045E00009F442C08E3028F48B30B1F18C30C0F524
:1045F0002DC0803109F442C0813109F445C08F30AB
:1046000009F047C037C0809180008F7703C0809148
:1046100080008F7D80938000089584B58F7702C0DD
:1046200084B58F7D84BD08958091B0008F7703C0DD
:104630008091B0008F7D8093B000089580919000AC
:104640008F7707C0809190008F7D03C0809190008C
:10465000877F8093900008958091A0008F7707C096
:104660008091A0008F7D03C08091A000877F809300
:10467000A0000895809120018F7703C080912001D0
:104680008F7D80932001089580912001877F809302
:1046900020010895FF920F931F93F62E482F50E0AC
:1046A000CA01895A9D4FFC012491CA018F5E9D4F1A
:1046B000FC01149145535E4FFA0104910023C1F0AF
:1046C000222311F0822F72DFE02FF0E0EE0FFF1FA8
:1046D000E956FE4FA591B4919FB7F894FF2021F4BD
:1046E0008C911095812302C08C91812B8C939FBF5C
:1046F0001F910F91FF9008951F920F920FB60F9286
:104700000BB60F9211242F933F934F935F936F93A8
:104710007F938F939F93AF93BF93EF93FF9380917A
:10472000910490919204892B29F0E0919104F091E9
:1047300092041995FF91EF91BF91AF919F918F9145
:104740007F916F915F914F913F912F910F900BBE91
:104750000F900FBE0F901F9018951F920F920FB6DB
:104760000F920BB60F9211242F933F934F935F93A9
:104770006F937F938F939F93AF93BF93EF93FF9329
:104780008091930490919404892B29F0E0919304F3
:10479000F09194041995FF91EF91BF91AF919F9182
:1047A0008F917F916F915F914F913F912F910F90DA
:1047B0000BBE0F900FBE0F901F9018951F920F9277
:1047C0000FB60F920BB60F9211242F933F934F9376
:1047D0005F936F937F938F939F93AF93BF93EF9369
:1047E000FF938091950490919604892B29F0E09194
:1047F0009504F09196041995FF91EF91BF91AF91B7
:104800009F918F917F916F915F914F913F912F91E8
:104810000F900BBE0F900FBE0F901F9018951F9218
:104820000F920FB60F920BB60F9211242F933F9356
:104830004F935F936F937F938F939F93AF93BF93A8
:10484000EF93FF938091970490919804892B29F01E
:10485000E0919704F09198041995FF91EF91BF9121
:10486000AF919F918F917F916F915F914F913F9108
:104870002F910F900BBE0F900FBE0F901F901895A9
:104880001F920F920FB60F920BB60F9211242F9317
:104890003F934F935F936F937F938F939F93AF93C8
:1048A000BF93EF93FF9380918D0490918E04892B99
:1048B00029F0E0918D04F0918E041995FF91EF910C
:1048C000BF91AF919F918F917F916F915F914F9128
:1048D0003F912F910F900BBE0F900FBE0F901F9026
:1048E00018951F920F920FB60F920BB60F921124CC
:1048F0002F933F934F935F936F937F938F939F93E8
:10490000AF93BF93EF93FF9380918F0490919004A6
:10491000892B29F0E0918F04F09190041995FF9173
:10492000EF91BF91AF919F918F917F916F915F9127
:104930004F913F912F910F900BBE0F900FBE0F9094
:104940001F9018951F920F920FB60F920BB60F92F1
:1049500011242F933F934F935F936F937F938F9384
:104960009F93AF93BF93EF93FF938091990490919E
:104970009A04892B29F0E0919904F0919A041995F1
:10498000FF91EF91BF91AF919F918F917F916F9127
:104990005F914F913F912F910F900BBE0F900FBEE3
:1049A0000F901F9018951F920F920FB60F920BB693
:1049B0000F9211242F933F934F935F936F937F93A5
:1049C0008F939F93AF93BF93EF93FF9380919B043B
:1049D00090919C04892B29F0E0919B04F0919C0418
:1049E0001995FF91EF91BF91AF919F918F917F9119
:1049F0006F915F914F913F912F910F900BBE0F9050
:104A00000FBE0F901F901895CF92DF92EF92FF92FA
:104A10000F931F93CF93DF937C016B018A01C0E05A
:104A2000D0E00FC0D6016D916D01D701ED91FC91E1
:104A30000190F081E02DC7011995C80FD91F0150D1
:104A400010400115110571F7CE01DF91CF911F9133
:104A50000F91FF90EF90DF90CF9008958091E20C3E
:104A60009091E30C181619069CF48091C809909156
:104A7000C909019668E070E00F94C9079093DD0CB6
:104A80008093DC0C81E090E09093E30C8093E20C47
:104A9000089520E08091E20C9091E30C181619061D
:104AA0000CF421E0822F08958091E20C0895EF929A
:104AB000FF920F931F93CF93DF93EC01E090BC061E
:104AC000F090BD060091BE061091BF066881798105
:104AD0008A819B81A80197010F94E803882324F41D
:104AE000E882F9820A831B83E090C006F090C10639
:104AF0000091C2061091C3066C817D818E819F81D9
:104B0000A80197010F94E803882324F4EC82FD8226
:104B10000E831F83E090C406F090C5060091C60680
:104B20001091C706688579858A859B85A8019701BC
:104B30000F94E803882324F4E886F9860A871B8704
:104B4000E0906D03F0906E0300916F03109170037D
:104B5000688179818A819B81A80197010F94F6056C
:104B6000181624F4E882F9820A831B83E09071030B
:104B7000F090720300917303109174036C817D8136
:104B80008E819F81A80197010F94F605181624F4D1
:104B9000EC82FD820E831F83E0907503F090760314
:104BA0000091770310917803688579858A859B85C4
:104BB000A80197010F94F605181624F4E886F986E3
:104BC0000A871B87DF91CF911F910F91FF90EF9084
:104BD000089580919509811181E00895809195094A
:104BE00008950F931F93CF93DF938130910591F434
:104BF0006F5F7F4F09F04FC08DE994E00E942F9ABC
:104C0000EFE0F7E01082EA5BFF4F89E0EB3CF8074A
:104C1000C9F741C0892B09F03EC06F5F7F4FD9F5BE
:104C20008CE494E090936A06809369068091700604
:104C3000882321F08DE696E00E944557C5E2D6E034
:104C40000CE414E005C06F9784E0CF3ED80751F024
:104C5000198308838F818823B1F3CE0104960E94C3
:104C60004557F1CF8CE494E0998388838F81882322
:104C700021F0CE0104960E9445578CE494E0909375
:104C8000CF048093CE048091D504882321F082ED57
:104C900094E00E944557DF91CF911F910F910895A5
:104CA00080E090E06FEF7FEF9CCF81E090E06FEFCE
:104CB0007FEF97CF1F93182F0E94618380919509F2
:104CC000882309F035C01093950980919709909138
:104CD0009809A0919909B0919A0980939B099093A2
:104CE0009C09A0939D09B0939E09E3EAF2E0949198
:104CF00008C08091C00085FFFCCF9093C60031961C
:104D000094919923B1F7EAEAF2E0949108C0809176
:104D1000C00085FFFCCF9093C600319694919923F3
:104D2000B1F78091C00085FFFCCF8AE08093C60078
:104D30001F910895F8940E946183159A469A439AA8
:104D4000409A88E160E0F3DBE3EAF2E0949108C086
:104D50008091C00085FFFCCF9093C600319694915E
:104D60009923B1F7E0E2F3E0949108C08091C0008C
:104D700085FFFCCF9093C600319694919923B1F7AB
:104D80008091C00085FFFCCF8AE08093C600FFCFF2
:104D900080DA60939F097093A0098093A109909392
:104DA000A209E091C809F091C909E653F64F808144
:104DB0008823A9F4EFE3F3E0949108C08091C00048
:104DC00085FFFCCF9093C600319694919923B1F75B
:104DD0008091C00085FFFCCF8AE08093C6000895D3
:104DE000EF92FF920F931F9354DAE090A309F09093
:104DF000A4090091A5091091A60920919F0930915D
:104E0000A0094091A1095091A209621B730B840B68
:104E1000950BE616F7060807190730F4E114F104BC
:104E20000105110509F086DF80918A0390918B03BB
:104E3000A0918C03B0918D030097A105B105F1F00D
:104E400028DA20919F093091A0094091A109509141
:104E5000A209621B730B840B950B20918A0330917E
:104E60008B0340918C0350918D0326173707480719
:104E7000590720F48091BE148091BF14069B02C094
:104E80008AE018DF0E945F6A1F910F91FF90EF90F8
:104E900008956F927F928F929F92AF92BF92CF921E
:104EA000DF92EF92FF920F931F93F82E6091A70964
:104EB0007091A8098091A9099091AA092091AB0944
:104EC0003091AC094091AD095091AE090F940306A1
:104ED0003B014C0100D000D00DB71EB70F5F1F4F34
:104EE0006091690370916A03882777FD8095982FF8
:104EF0000F948A0420918E0330918F034091900388
:104F0000509191030F94C80620E030E040E752E44E
:104F10000F94EF0320E030E048EC52E40F94EF03ED
:104F20005B016C01F8016082718282829382F4825B
:104F30008091C806858380EA96E063EB79E047EAD2
:104F400059E020E001E032E0E32E0E9447648091C6
:104F5000B3099091B409A091B509B091B6098093B5
:104F6000A0069093A106A093A206B093A3068091F9
:104F7000B7099091B809A091B909B091BA09809385
:104F8000A4069093A506A093A606B093A7068091C9
:104F9000BB099091BC09A091BD09B091BE09809355
:104FA000A8069093A906A093AA06B093AB06809199
:104FB000BF099091C009A091C109B091C209809325
:104FC000AC069093AD06A093AE06B093AF068DB736
:104FD0009EB706960FB6F8949EBF0FBE8DBF59D9E7
:104FE00060939F097093A0098093A1099093A209EF
:104FF0001F910F91FF90EF90DF90CF90BF90AF90F7
:105000009F908F907F906F900895CF92DF92EF9254
:10501000FF920F931F9383EB99E049DD3AD9609398
:105020009F097093A0098093A1099093A2096091B0
:10503000A0067091A1068091A2069091A3062091EE
:10504000B3093091B4094091B5095091B6090F9454
:10505000E803882309F07AC06091A4067091A50640
:105060008091A6069091A7062091B7093091B809C2
:105070004091B9095091BA090F94E803882309F0C7
:1050800065C060918E0370918F0380919003909121
:10509000910320E030E040E752E40F94EF037B01FE
:1050A0008C0183EB99E067EB79E04BEB59E02FEB58
:1050B00039E0E8ECCE2EE6E0DE2E0E94886D80918D
:1050C000B3099091B409A091B509B091B609809344
:1050D000A0069093A106A093A206B093A306809188
:1050E000B7099091B809A091B909B091BA09809314
:1050F000A4069093A506A093A606B093A706809158
:10510000BB099091BC09A091BD09B091BE098093E3
:10511000A8069093A906A093AA06B093AB06809127
:10512000BF099091C009A091C109B091C2098093B3
:10513000AC069093AD06A093AE06B093AF061F9158
:105140000F91FF90EF90DF90CF90089560916903E9
:1051500070916A03882777FD8095982F0F948A04B1
:1051600020918E0330918F034091900350919103D1
:105170000F94C80620E030E040E752E40F94EF03BC
:1051800020E030E048EC52E488CF8CE69DE00E94BD
:105190005F51E2E4F3E0949108C08091C00085FF84
:1051A000FCCF9093C600319694919923B1F740912A
:1051B0009709509198096091990970919A094F5FE8
:1051C0005F4F6F4F7F4F8CE69DE02AE030E00E94FA
:1051D0001B528091C00085FFFCCF8AE08093C600FF
:1051E000D7CD682F2091C8093091C90980E690E099
:1051F000AC01249FC001259F900D349F900D112478
:105200008852964F70E00E94171E9C019093D70918
:105210008093D60980E0232B09F081E00895FC01FA
:10522000949108C08091C00085FFFCCF9093C60088
:10523000319694919923B1F78CE69DE022E030E01D
:105240000C942153FC01949108C08091C00085FF0B
:10525000FCCF9093C600319694919923B1F78CE6D8
:105260009DE02AE030E00C94FF512F923F924F9244
:105270005F926F927F928F929F92AF92BF92CF92E6
:10528000DF92EF92FF920F931F93DF93CF9300D0A3
:1052900000D0CDB7DEB79E838D838330910508F0B3
:1052A00053C22C01440C551C440C551CB0EA2B2E47
:1052B000B6E03B2E240C351C80E090E0A0E0B0E08E
:1052C000F10180839183A283B38380EA96E064EA4C
:1052D00076E048EA56E02CEA36E00E942B68F201BC
:1052E000E956FA4F65917591859194912D813E8192
:1052F00021553A4F3A832983F901E49092012D54C4
:10530000364F3C832B8320E030E040EC5FE30F948A
:10531000C8065B016C01FF24E7FCF0940F2D1F2DE4
:10532000C801B7010F948A043B014C01C601B501C5
:10533000A40193010F94C806AB81BC816D937D934A
:105340008D939C931397F201E75AFC4F6081718112
:105350008281938160938E0370938F038093900377
:105360009093910320E030E040E752E40F94EF0384
:105370007B018C0183EB99E067EB79E04BEB59E023
:105380002FEB39E0A8ECCA2EA6E0DA2E0E94886D39
:105390000E945F7B0E94E179882309F09DC0F3EAB7
:1053A0004F2EF2E05F2EED81FE81329709F06FC043
:1053B00080E090E0A0E0B0E08093A8069093A9067A
:1053C000A093AA06B093AB0680EA96E064EA76E082
:1053D00048EA56E02CEA36E00E942B68EBEAF5E05A
:1053E00065917591859194919058A40193010F94C2
:1053F000C80620E030E040E251E40F94C806609314
:10540000BB097093BC098093BD099093BE0960915C
:105410008E0370918F03809190039091910320E00F
:1054200030E040E752E40F94EF037B018C0183EB03
:1054300099E067EB79E04BEB59E02FEB39E00E9404
:10544000886D0E945F7BF201949108C08091C0003A
:1054500085FFFCCF9093C600319694919923B1F7C4
:10546000E0E6F5E0949108C08091C00085FFFCCF94
:105470009093C600319694919923B1F78091C00022
:1054800085FFFCCF8AE08093C60085E023C0F2014F
:10549000949108C08091C00085FFFCCF9093C60016
:1054A000319694919923B1F7E9E2F5E0949108C01F
:1054B0008091C00085FFFCCF9093C60031969491F7
:1054C0009923B1F78091C00085FFFCCF8AE08093DB
:1054D000C60087E0EFDB38C180E090E0A0E0B0E0FC
:1054E000F10180839183A283B38380EA96E064EA2A
:1054F00076E048EA56E02CEA36E00E942B6823EA80
:1055000035E0420E531EF20165917591859194919B
:105510009058A40193010F94C806AB81BC816D9390
:105520007D938D939C93139760918E0370918F035D
:10553000809190039091910320E030E040E752E4A5
:105540000F94EF037B018C0183EB99E067EB79E02B
:105550004BEB59E02FEB39E0E8ECCE2EE6E0DE2E07
:105560000E94886D0E945F7BED81FE81E130F10534
:1055700049F0E230F105A1F0EF2B09F03FC080B116
:1055800080950BC080B190E014E0969587951A95B0
:10559000E1F72D813E8182279327817019F42EC077
:1055A00007992CC0E3EAF2E0949108C08091C00012
:1055B00085FFFCCF9093C600319694919923B1F763
:1055C000E1EFF4E0949108C08091C00085FFFCCF2A
:1055D0009093C600319694919923B1F78091C000C1
:1055E00085FFFCCF8AE08093C6008D819E81029763
:1055F00011F486E001C088E05DDBA4C0F2012591D2
:10560000359145915491E981FA81E4908D809E8095
:10561000880C991C880C991CA3EB6A2EA9E07A2EA1
:10562000680C791CCA01B9010F940F035B016C016E
:10563000FF24E7FCF0940F2D1F2DC801B7010F9434
:105640008A049B01AC01C601B5010F94C806D301C1
:105650006D937D938D939C931397F401E75AFC4FC0
:10566000608171818281938120E030E040E450E4E8
:105670000F94EF0360938E0370938F0380939003D6
:105680009093910320E030E040E752E40F94EF0361
:105690007B018C0183EB99E067EB79E04BEB59E000
:1056A0002FEB39E0F8ECCF2EF6E0DF2E0E94886D6C
:1056B0000E945F7BF401E353FB4F659175918591E7
:1056C000949184010056194FF401E055F94F20815F
:1056D0003181428153810F940F03F80160837183FC
:1056E00082839383F401E752FB4F259135914591D5
:1056F0005491F401E454F94F20833183428353835E
:10570000F401EB51FB4F2591359145915491ADE654
:10571000B3E08A0E9B1EF4012083318342835383BE
:10572000D3016D937D938D939C93139780E090E0CC
:10573000A0E0B0E080938E0390938F03A09390033A
:10574000B09391030E94EE7926960FB6F894DEBFCF
:105750000FBECDBFCF91DF911F910F91FF90EF90C2
:10576000DF90CF90BF90AF909F908F907F906F9081
:105770005F904F903F902F9008958091D60990911F
:10578000D709019660E070E04AE050E00C94061CF6
:105790008091D6099091D709019660E070E00C9451
:1057A000A91ACF93DF93EC018091C80680939609E4
:1057B00084E517DD882309F46EC0EADF0F945C04EA
:1057C000262F60939609662309F465C0EDE9F2E09F
:1057D000949108C08091C00085FFFCCF9093C600D3
:1057E000319694919923B1F7C936D10599F0CA360B
:1057F000D10524F4C836D105F1F50FC0CD36D10559
:1058000031F0CA3DD105B9F5E0E0F2E031C0E7E1A1
:10581000F2E023C0EEE2F2E015C0E5E4F2E007C0FA
:105820008091C00085FFFCCF31969093C600908197
:105830009923B1F720C08091C00085FFFCCF31963D
:105840009093C60090819923B1F715C08091C00054
:1058500085FFFCCF31969093C60090819923B1F7D4
:105860000AC08091C00085FFFCCF31969093C6009E
:1058700090819923B1F78CE69DE0622F40E050E0E3
:105880000E940A528091C00085FFFCCF8AE080937D
:10589000C60081E001C080E0DF91CF9108955F9262
:1058A0006F927F928F929F92AF92BF92CF92DF9230
:1058B000EF92FF920F931F93DF93CF9300D00F923D
:1058C000CDB7DEB719821A821B821C8280EAC82EED
:1058D00086E0D82E03EBE02E09E0F02E00E010E089
:1058E0003E010894611C711C55245394F801E45F37
:1058F000FB4F808176DC882359F14ADF4B015C0144
:10590000F801E656F94F8081882311F061E002C06A
:105910006091C30970E0882777FD8095982F0F94D8
:105920008A04F60120813181428153810F94C80697
:105930009B01AC01C501B4010F940F03F701608313
:10594000718382839383F301E00FF11F50820AC0B9
:10595000F60180819181A281B381F70180839183D7
:10596000A283B3830F5F1F4F84E090E0C80ED91E5F
:10597000E80EF91E0430110509F0B8CF86E431DCD9
:105980008823D9F005DF7B018C016093C4097093F3
:10599000C5098093C6099093C70920E030E040E034
:1059A00050E00F94F605181644F4E0928E03F0923E
:1059B0008F030093900310939103809186098823AD
:1059C00009F4C1C08981882309F0BDC08A81882378
:1059D00009F0B9C08B81882309F0B5C08C81882378
:1059E00009F4B1C0A090AC06B090AD06C090AE0670
:1059F000D090AF066091BF097091C0098091C10934
:105A00009091C209A60195010F940E037B018C01B0
:105A10002DEC3CEC4CEC5DEB0F94E80388230CF090
:105A20004EC080918709882309F08DC06091BB0921
:105A30007091BC098091BD099091BE0920918203AB
:105A40003091830340918403509185030F940F0399
:105A50006093BB097093BC098093BD099093BE0904
:105A6000C801B701905820917A0330917B0340918F
:105A70007C0350917D030F940E039B01AC01C60182
:105A8000B5010F940E036093AC067093AD0680933E
:105A9000AE069093AF0680917E0390917F03A09114
:105AA0008003B091810380938E0390938F03A09322
:105AB0009003B093910381E08093870944C0C801AB
:105AC000B7012DEC3CEC4CEC5DE30F94F605181699
:105AD000D4F5809187098823B1F160917A037091A0
