:100000000C94CA190C94CE230C94FF230C94302426
:100010000C9461240C9492240C94C3240C94F42426
:100020000C9425250C94F7190C94F7190C94F719D6
:100030000C94F7190C9419A70C94F7190C94F71950
:100040000C94F7190C940D7C0C94F7190C94F71977
:100050000C94F7190C94F7190C94DB840C9453212D
:100060000C94F7190C946C510C94F7190C94F71923
:100070000C94F7190C94F7190C94F7190C94F719C0
:100080000C94F7190C94F7190C94F7190C94F719B0
:100090000C94F7190C94F7190C94F7190C9443B1BC
:1000A0000C94F7190C94F7190C94F7190C94F71990
:1000B0000C94F7190C94F7190C94F7190C94F71980
:1000C0000C94F7190C94F7190C94F7190C94F71970
:1000D0000C94F7190C94F7190C94F7190C94F71960
:1000E0000C94F71969A577A57EA585A58CA593A580
:1000F00066A59AA5A1A5A9A566A5B1A5BAA5C5A5F8
:10010000D0A5DBA5E6A566A5F1A5FCA509A666A573
:1001100016A625A627A629A62BA62DA62FA631A66C
:1001200033A635A637A639A63BA63DA63FA641A6CF
:1001300043A6084AD73B3BCE016E84BCBFFDC12F0E
:100140003D6C74319ABD56833DDA3D00C77F11BEC8
:10015000D9E4BB4C3E916BAAAABE000000803F05CB
:10016000A84CCDB2D44EB93836A9020C50B99186FC
:1001700088083CA6AAAA2ABE000000803F000021F1
:1001800000240027002A002D003000330001010068
:1001900000040107010A0100002200250028002BAD
:1001A000002E003100340002010000050108010B9F
:1001B00001000020002300260029002C002F00321F
:1001C00000000100000301060109010505050507FE
:1001D0000508080808020202020A0A0808040404C2
:1001E00004010101010101010103030303030303EE
:1001F00003040707070C0C0C0C0C0C0C0C0202027D
:100200000206060606060606060B0B0B0B0B0B0B6F
:100210000B0102102020080810204010204080020E
:10022000010201080402010102040810204080803C
:1002300040201008040201800402018040201008C0
:100240000402010804020101020408102040800198
:10025000020408102040800000090A02080B0C0D5F
:100260000706030401000000000000000000000079
:10027000000000000000000000000000000000007E
:1002800000000011100F000000000000000000003E
:10029000000000000000000000000000006563682E
:1002A0006F3A004572726F723A005072696E7465EF
:1002B000722073746F707065642064756520746F4C
:1002C000206572726F72732E20466978207468659B
:1002D000206572726F7220616E6420757365204DA7
:1002E00039393920746F20726573746172742E20ED
:1002F0002854656D7065726174757265206973202C
:1003000072657365742E205365742069742061666C
:100310007465722072657374617274696E67290006
:100320005072696E7465722068616C7465642E2009
:100330006B696C6C28292063616C6C656421006FAB
:100340006B00526573656E643A20002200556E6B37
:100350006E6F776E20636F6D6D616E643A20220060
:10036000456C656374726F6E6963735F74657374F3
:100370000020423A300020423A31006F6B20523A5E
:10038000002200556E6B6E6F776E20636F6D6D612E
:100390006E643A2022007A5F6D61783A2000795FBE
:1003A0006D61783A2000785F6D696E3A20005A3AA4
:1003B00000593A0020436F756E7420583A2000456A
:1003C0003A005A3A00593A00583A004649524D57B5
:1003D0004152455F4E414D453A4D61726C696E2008
:1003E000556C74696D616B6572323B205370726934
:1003F0006E7465722F6772626C206D6173687570C0
:1004000020666F722067656E36204649524D57410F
:1004100052455F55524C3A687474703A2F2F676991
:10042000746875622E636F6D2F556C74696D616BA6
:1004300065722050524F544F434F4C5F56455253B4
:10044000494F4E3A312E30204D414348494E455F89
:10045000545950453A556C74696D616B657220450D
:10046000585452554445525F434F554E543A310A01
:100470000020423A0020453A00543A0020573A0002
:1004800020453A00543A002042403A0020403A00C9
:10049000202F0020423A00202F006F6B20543A009A
:1004A0002569206D696E2C202569207365630045E0
:1004B0006E642066696C65206C69737400426567C0
:1004C000696E2066696C65206C69737400000000B9
:1004D00000000066430000664300000000000000CA
:1004E0000000000000000066430000664300006654
:1004F00043456E6473746F70207374696C6C207004
:1005000072657373656420616674657220626163ED
:100510006B696E67206F66662E20456E6473746F1C
:100520007020737475636B3F00456E6473746F70F5
:10053000206E6F74207072657373656420616674D9
:10054000657220686F6D696E6720646F776E2E200C
:10055000456E6473746F702062726F6B656E3F00DE
:10056000456E6473746F70206E6F74207072657363
:1005700073656420616674657220686F6D696E676B
:1005800020646F776E2E20456E6473746F702062E6
:10059000726F6B656E3F00000066430000664300AB
:1005A0000066430000E0400000E0400000E040FF43
:1005B0000101256920686F757273202569206D69B6
:1005C0006E7574657300446F6E65207072696E7429
:1005D000696E672066696C65005072696E74657239
:1005E0002073746F707065642064756520746F206B
:1005F0006572726F72732E20466978207468652068
:100600006572726F7220616E6420757365204D395A
:10061000393920746F20726573746172742E2028CA
:1006200054656D70657261747572652069732072AE
:10063000657365742E205365742069742061667437
:1006400065722072657374617274696E6729006FD8
:100650006B004E6F204C696E65204E756D62657241
:10066000207769746820636865636B73756D2C20EF
:100670004C617374204C696E653A20004E6F2043C4
:100680006865636B73756D2077697468206C696E3B
:1006900065206E756D6265722C204C617374204C00
:1006A000696E653A2000636865636B73756D206DD4
:1006B00069736D617463682C204C617374204C699C
:1006C0006E653A20004C696E65204E756D626572EC
:1006D000206973206E6F74204C617374204C696EB6
:1006E00065204E756D6265722B312C204C617374E0
:1006F000204C696E653A20004D31313000446F6EF8
:100700006520736176696E672066696C652E006F7F
:100710006B004D3239002020506C616E6E65724264
:10072000756666657242797465733A200020467278
:100730006565204D656D6F72793A20004A616E20C3
:100740002038203230313500436F6D70696C65643C
:100750003A200054696E6B65725F31352E30312D51
:1007600052433600207C20417574686F723A200035
:100770004A616E20203820323031352032323A3111
:10078000313A343200204C617374205570646174C6
:1007900065643A2000312E302E30004D61726C6954
:1007A0006E200020536F6674776172652052657306
:1007B000657400205761746368646F6720526573C5
:1007C0006574002042726F776E206F7574205265D9
:1007D000736574002045787465726E616C20526593
:1007E00073657400506F7765725570007374617231
:1007F00074002200656E717565696E6720220022A3
:1008000000656E717565696E672022000000211019
:10081000422063308440A550C660E770088129916A
:100820004AA16BB18CC1ADD1CEE1EFF13112100212
:1008300073325222B5529442F772D66239931883BA
:100840007BB35AA3BDD39CC3FFF3DEE362244334DE
:1008500020040114E664C774A44485546AA54BB50A
:1008600028850995EEE5CFF5ACC58DD553367226B2
:1008700011163006D776F6669556B4465BB77AA75A
:1008800019973887DFF7FEE79DD7BCC7C448E558FE
:100890008668A7784008611802282338CCC9EDD9AA
:1008A0008EE9AFF9488969990AA92BB9F55AD44A52
:1008B000B77A966A711A500A333A122AFDDBDCCBFA
:1008C000BFFB9EEB799B588B3BBB1AABA66C877C1E
:1008D000E44CC55C222C033C600C411CAEED8FFD4A
:1008E000ECCDCDDD2AAD0BBD688D499D977EB66EF2
:1008F000D55EF44E133E322E511E700E9FFFBEEF9A
:10090000DDDFFCCF1BBF3AAF599F788F8891A9815B
:10091000CAB1EBA10CD12DC14EF16FE18010A10045
:10092000C230E3200450254046706760B983989335
:10093000FBA3DAB33DC31CD37FE35EF3B102901295
:10094000F322D2323542145277625672EAB5CBA501
:10095000A89589856EF54FE52CD50DC5E234C324E5
:10096000A01481046674476424540544DBA7FAB7D5
:100970009987B8975FE77EF71DC73CD7D326F23635
:100980009106B01657667676154634564CD96DC921
:100990000EF92FE9C899E9898AB9ABA94458654885
:1009A00006782768C018E1088238A3287DCB5CDB75
:1009B0003FEB1EFBF98BD89BBBAB9ABB754A545AD5
:1009C000376A167AF10AD01AB32A923A2EFD0FED41
:1009D0006CDD4DCDAABD8BADE89DC98D267C076C25
:1009E000645C454CA23C832CE01CC10C1FEF3EFF15
:1009F0005DCF7CDF9BAFBABFD98FF89F176E367E75
:100A0000554E745E932EB23ED10EF01E7C3C3E5E7F
:100A10002B3D3F2F5B5D3B2C2A225C006563686F9A
:100A20003A0020746F6F206C6F6E67206578747267
:100A30007573696F6E2070726576656E746564009B
:100A400020636F6C6420657874727573696F6E20B3
:100A500070726576656E7465640045313A200045B4
:100A6000303A20005A3A2000593A2000583A2000E3
:100A70004D53312C4D53322050696E730A0024F4CB
:100A800004D9201BC40C5C0E9804C4095F026507DE
:100A90007101F405F900FB04B30048048700C103A9
:100AA00069005803550003034500BE023A00840262
:100AB000310053022A002902250004022000E4012B
:100AC0001C00C8011900AF0117009801140084012F
:100AD0001300710110006101100051010E0043016B
:100AE0000D0036010B002B010B0020010B0015013E
:100AF00009000C01090003010800FB000800F300D5
:100B00000800EB000700E4000600DE000600D80045
:100B10000600D2000600CC000500C7000500C20098
:100B20000500BD000400B9000400B5000400B100D8
:100B30000400AD000400A9000400A5000300A20009
:100B400003009F0004009B00030098000300950031
:100B5000020093000300900003008D0002008B0050
:100B60000300880002008600020084000300810068
:100B700002007F0002007D0002007B00020079007D
:100B8000020077000100760002007400020072008B
:100B90000100710002006F0002006D0001006C0096
:100BA00002006A000100690002006700010066009F
:100BB00001006500010064000200620001006100A4
:100BC0000100600001005F0002005D0001005C00A8
:100BD00001005B0001005A000100590001005800AB
:100BE00001005700010056000100550001005400AB
:100BF00001005300000053000100520001005100A9
:100C00000100500001004F0001004E0000004E00A6
:100C100001004D0001004C0001004B0000004B00A2
:100C200001004A000100490001004800000048009E
:100C30000100470001004600000046000100450099
:100C40000000450001004400010043000000430093
:100C5000010042000000420001004100000041008C
:100C60000100400001003F0000003F0001003E0085
:100C700000003E0001003D0000003D0001003C007E
:100C800000003C0000003C0001003B0000003B0075
:100C900001003A0000003A0001003900000039006C
:100CA0000100380000003800000038000100370063
:100CB000000037000100360000003600000036005A
:100CC000010035000000350000003500010034004F
:100CD0000000340000003400010033000000330045
:100CE000000033000100320000003200000032003A
:100CF000010031000000310000003100010030002F
:100D0000000030000000300001002F0000002F0024
:100D100000002F0000002F0001002E0000002E0018
:100D200000002E0001002D0000002D0000002D000D
:100D300000002D0001002C0000002C0000002C0001
:100D400000002C0001002B0000002B0000002B00F5
:100D500000002B0001002A0000002A0000002A00E9
:100D600000002A00010029000000290000002900DD
:100D700000002900000029000100280000002800D0
:100D800000002800000028000000280001002700C3
:100D900000002700000027000000270000002700B7
:100DA00001002600000026000000260000002600AA
:100DB000000026000100250000002500000025009D
:100DC000000025000000250000002500010024008F
:100DD0000000240000002400000024000000240083
:100DE0000100230000002300000023000000230076
:100DF0000000230000002300000023000100220067
:100E0000000022000000220000002200000022005A
:100E1000000022000100210000002100000021004C
:100E2000000021000000210000002100000021003E
:100E30000100200000002000000020000000200031
:100E40000000200000002000000020000000200022
:100E500001001F0000001F0000001F0000001F0015
:100E600000001F0000001F0000001F0001001E0006
:100E700000001E0000001E0000001E00000024F400
:100E8000D43050C38E20C2A24017828B7011127AC8
:100E9000910D816CD90AA861E108C75866076151B4
:100EA00043061E4B5D05C145A7041A411104093DC7
:100EB0009803713931034036DB0265339102D43037
:100EC0005402802E1D02632CEE01752AC501B02844
:100ED000A001102781018F2564012B244B01E02202
:100EE0003401AC211F018D200D01801FFC00841EE8
:100EF000ED00971DDF00B81CD200E61BC600201BCA
:100F0000BC00641AB200B219A8000A19A0006A183D
:100F10009900D117910040178B00B5168400311647
:100F20007E00B31579003A157300C7146F0058148A
:100F30006A00EE1366008813630025135E00C71273
:100F40005B006C12570015125400C1115100701152
:100F50004F0021114B00D61049008D10470046105C
:100F6000440002104200C00F4000800F3E00420FBC
:100F70003C00060F3B00CB0E3800930E37005C0E92
:100F80003500270E3400F30D3200C10D3100900DF5
:100F90003000600D2E00320D2D00050D2C00D90CF7
:100FA0002B00AE0C2900850C29005C0C2700350CA9
:100FB00027000E0C2600E80B2400C40B2400A00B15
:100FC00023007D0B23005A0B2100390B2100180B45
:100FD0002000F80A1F00D90A1E00BB0A1E009D0A45
:100FE0001D00800A1D00630A1C00470A1B002C0A12
:100FF0001B00110A1A00F7091A00DD091900C409BB
:101000001900AB091900920917007B091800630940
:1010100017004C09160036091600200916000A09A7
:101020001500F5081500E0081400CC081400B808F5
:101030001400A4081400900813007D0812006B0827
:101040001300580812004608120034081100230843
:1010500011001208110001081100F0071000E0074C
:101060001000D0071000C0071000B0070F00A10744
:10107000100091070E0083070F0074070F0065072B
:101080000E0057070E0049070E003B070D002E0704
:101090000E0020070D0013070D0006070D00F906CE
:1010A0000C00ED060D00E0060C00D4060C00C8068E
:1010B0000C00BC060C00B0060C00A4060B00990640
:1010C0000C008D060B0082060B0077060B006C06E9
:1010D0000B0061060A0057060B004C060A00420688
:1010E0000A0038060A002E060A0024060A001A061C
:1010F0000A001006090007060A00FD050900F405AC
:101100000900EB050900E2050900D9050900D00531
:101110000900C7050900BE050900B5050800AD05B1
:101120000800A50509009C050800940508008C0529
:101130000800840508007C050800740508006C059B
:101140000700650508005D050700560508004E0507
:10115000070047050700400508003805070031056E
:1011600007002A050700230507001C0506001605D1
:1011700007000F0507000805060002050700FB042D
:101180000600F5040700EE040600E8040600E20489
:101190000700DB040600D5040600CF040600C904DE
:1011A0000600C3040600BD040600B7040600B1042F
:1011B0000500AC040600A6040600A00405009B047C
:1011C000060095040500900406008A0405008504C5
:1011D0000500800406007A0405007504050070040B
:1011E00005006B04050066040500610405005C044D
:1011F000050057040500520405004D04050048048D
:101200000500430405003E0404003A0405003504CB
:101210000500300404002C04050027040400230406
:1012200005001E0404001A0404001604050011043D
:1012300004000D0404000904050004040400000473
:101240000400FC030400F8030400F4030400F003AA
:101250000400EC030400E8030400E4030400E003DA
:101260000400DC030400D8030400D4030400D0030A
:101270000400CC030400C8030300C5030300656336
:10128000686F3A00205A3A0020593A0020583A0034
:10129000656E6473746F7073206869743A200045DA
:1012A00072726F723A003A20457874727564657292
:1012B000207377697463686564206F66662E204DBD
:1012C000415854454D502074726967676572656472
:1012D0002021003A20457874727564657220737716
:1012E000697463686564206F66662E204D494E54AC
:1012F000454D5020747269676765726564202100EE
:1013000054656D706572617475726520686561748D
:10131000656420626564207377697463686564201E
:101320006F66662E204D415854454D5020747269A9
:1013300067676572656420212100202D20496E7643
:10134000616C6964206578747275646572206E756D
:101350006D6265722021000000000018070100A8DE
:1013600007140030082800B8083C0038095000C0B5
:10137000096400480A7800C80A8C00480BA000C81D
:101380000BB400480CC800C80CDC00400DF000C0D5
:101390000D0401380E1801B00E2C01280F4001A0D9
:1013A0000F54011810680188107C01001190013061
:1013B00013F401481558024017BC0228192003F005
:1013C0001A8403A81CE803401E4C045049442041E1
:1013D00075746F74756E652066696E69736865648F
:1013E000212050757420746865204B702C204B6947
:1013F00020616E64204B6420636F6E7374616E7441
:101400007320696E746F20436F6E666967757261D1
:1014100074696F6E2E6800504944204175746F7472
:10142000756E65206661696C6564212074696D65FF
:101430006F75740020403A006F6B20543A006F6B58
:1014400020423A00504944204175746F74756E65AE
:10145000206661696C6564212054656D70657261F8
:101460007475726520746F6F206869676800204B1F
:10147000643A2000204B693A2000204B703A20004B
:1014800020436C61736963205049442000205475E7
:101490003A2000204B753A2000206D61783A2000F8
:1014A000206D696E3A200020643A20002062696154
:1014B000733A20004D383420582059205A204500D6
:1014C0006563686F3A0043616E6E6F7420656E7479
:1014D0006572207375626469723A20004D3234007F
:1014E0004D3233202573006175746F25692E6700B6
:1014F0004572726F723A006572726F72207772690C
:1015000074696E6720746F2066696C650043617250
:1015100064206572726F723A004E6F7420534420DB
:101520007072696E74696E67002F00534420707288
:10153000696E74696E67206279746520002E0044BC
:10154000656C6574696F6E206661696C65642C20DA
:1015500046696C653A200046696C652064656C6577
:101560007465643A002E006F70656E206661696C68
:1015700065642C2046696C653A200057726974696D
:101580006E6720746F2066696C653A20002E006FCC
:1015900070656E206661696C65642C2046696C65B7
:1015A0003A20002E006F70656E206661696C65647C
:1015B0002C2046696C653A200046696C652073658D
:1015C0006C6563746564002053697A653A2000464F
:1015D000696C65206F70656E65643A20002E006F3F
:1015E00070656E206661696C65642C2046696C6567
:1015F0003A200053442063617264206F6B006F7067
:10160000656E526F6F74206661696C656400766FF9
:101610006C756D652E696E6974206661696C6564B0
:1016200000534420696E6974206661696C006563CB
:10163000686F3A0048617264636F64656420446552
:101640006661756C742053657474696E6773204CA1
:101650006F6164656400563031300053746F726599
:10166000642073657474696E67732072657472693F
:1016700065766564002044002049002020204D3319
:1016800030312050005049442073657474696E678E
:10169000733A00205A0020590020204D3230362065
:1016A0005800486F6D65206F666673657420286DFD
:1016B0006D293A00204500205A00205800204200A1
:1016C00020540020204D3230352053004164766193
:1016D0006E636564207661726961626C65733A203D
:1016E000533D4D696E20666565647261746520289E
:1016F0006D6D2F73292C20543D4D696E20747261DD
:1017000076656C20666565647261746520286D6D10
:101710002F73292C20423D6D696E696D756D2073A4
:1017200065676D656E742074696D6520286D732919
:101730002C20583D6D6178696D756D205859206A6F
:1017400065726B20286D6D2F73292C20205A3D6DFA
:101750006178696D756D205A206A65726B20286DFD
:101760006D2F73292C2020453D6D6178696D756D55
:101770002045206A65726B20286D6D2F732900202B
:10178000540020204D323034205300416363656C97
:1017900065726174696F6E3A20533D616363656C75
:1017A00065726174696F6E2C20543D72657472614C
:1017B000637420616363656C65726174696F6E0048
:1017C000204500205A0020590020204D3230312081
:1017D00058004D6178696D756D20416363656C6576
:1017E000726174696F6E20286D6D2F7332293A0013
:1017F000204500205A0020590020204D323033204F
:1018000058004D6178696D756D206665656472611B
:1018100074657320286D6D2F73293A0020450020D0
:101820005A0020590020204D393220580053746549
:1018300070732070657220756E69743A0053657418
:1018400074696E67732053746F72656400544553F6
:10185000540D0A000D0A00556E6B6E6F776E206393
:101860006F6D6D616E643A20000D0A003F0054698F
:101870006E6B65725F31352E30312D52433600026A
:101880004D41494E54454E414E4345004D4154450E
:101890005249414C005052494E54005072696E7486
:1018A000696E672077697468205553422E2E2E008A
:1018B000737570706F727440756C74696D616B656F
:1018C000722E636F6D00436F6E746163743A0058DB
:1018D000206F722059207377697463682073747560
:1018E000636B0058206F72205920737769746368A6
:1018F0002062726F6B656E005A207377697463683B
:1019000020737475636B005A207377697463682061
:1019100062726F6B656E00536166657479206369EE
:1019200072637569740048656174657220657272CE
:101930006F720054656D702073656E736F72204214
:1019400045440054656D702073656E736F72004579
:1019500052524F52202D2053544F50504544008036
:101960001506060606FEFEFEFEFC00000000000056
:1019700000FCFEFEFEFC0000000EFEFEFEFE00006F
:10198000E0FCFEFEFCE0E0000000CECECE00000059
:10199000C0C0C0C0C0C08000000000000080C0C047
:1019A000800000000000008080C0C0C0C0C0C0C077
:1019B00080800000000006FEFEFEFE0000000080A9
:1019C000C0C0C00000000000008080C0C0C0808097
:1019D0008000000000C0C0C0C00080C0C0C0C08087
:1019E00000000000007FFFFFFFFF800000000000FC
:1019F00080FFFFFFFFFF00000000FFFFFFFF000070
:101A000000FFFFFFFF0000000000FFFFFF000000DD
:101A100081F1FFFF3F0F3FFFFCF0F0FCFF3F0F3F66
:101A2000FFFEF880000000C1E1F1F1713101018396
:101A3000FFFFFFFC000000FFFFFFFF000C3EFFFF69
:101A4000F7C301000000FCFEFF8703113131333F73
:101A50003F3F1E000001FFFFFFFF070301010101DF
:101A6000000000000000010307070F0F0F0F0F0F0A
:101A70000F0707070F0F06000000070F0F070000F2
:101A800000070F0F0700000000000F0F0F000006F7
:101A90000F0F070100000001070F0F0701000000F2
:101AA00001070F0F06000003070F0F0E0E060703B6
:101AB000070F0F07000000070F0F070000000003CB
:101AC0000F0F0F060000000307070F0E0E0E0E0E7D
:101AD0000E06000000000F0F0F0F000000000000B6
:101AE0000043414E43454C002073656300206D69FF
:101AF0006E0020686F75720020686F757273001138
:101B0000150A000019151200000609090600000058
:101B100000000000005F00000007000700147F14B1
:101B20007F14242A7F2A122313086462364955221F
:101B3000500005030000001C2241000041221C004F
:101B4000082A1C2A0808083E08080050300000082F
:101B500008080808006060000020100804023E51D8
:101B600049453E00427F400042615149462141457E
:101B70004B311814127F1027454545393C4A4949D5
:101B80003001710905033649494936064949291E7C
:101B900000363600000056360000000814224114BA
:101BA0001414141441221408000201510906324988
:101BB00079413E7E1111117E7F494949363E4141AE
:101BC00041227F4141221C7F494949417F09090146
:101BD000013E414151327F0808087F00417F4100AA
:101BE0002040413F017F081422417F404040407F18
:101BF0000204027F7F0408107F3E4141413E7F097D
:101C00000909063E4151215E7F0919294646494985
:101C1000493101017F01013F4040403F1F204020EA
:101C20001F7F2018207F63140814630304780403C3
:101C3000615149454300007F4141020408102041A1
:101C4000417F000004020102044040404040000186
:101C500002040020545454787F48444438384444A3
:101C60004420384444487F3854545418087E0901AD
:101C700002081454543C7F0804047800447D40005A
:101C80002040443D00007F10284400417F40007CFC
:101C9000041804787C0804047838444444387C14DC
:101CA000141408081414187C7C08040408485454BC
:101CB0005420043F4440203C4040207C1C204020D5
:101CC0001C3C4030403C44281028440C5050503CB0
:101CD0004464544C44000836410000007F0000007A
:101CE0004136080008082A1C08081C2A08086275E2
:101CF000696C64706C6174652E006F662061646A43
:101D0000757374696E6720796F7572007468726F8D
:101D1000756768207468652070726F6365737300FF
:101D2000492077696C6C20677569646520796F75E7
:101D30000043414E43454C00434F4E54494E554598
:101D400000473120462569205A25692058256920F9
:101D500059256900473238205A30205830205930F0
:101D60000066726F6D20746865206275696C6470BE
:101D70006C6174652E0061206D696C6C696D6574B1
:101D80006572206177617900756E74696C20746882
:101D900065206E6F7A7A6C6520697300526F74618A
:101DA00074652074686520627574746F6E00342FDA
:101DB000323100434F4E54494E554500434F4E5427
:101DC000494E554500473120462569205A30004785
:101DD0003120462569205825692059256900473159
:101DE00020462569205A350066726F6D207468653B
:101DF000206275696C64706C6174652E0069732073
:101E000061206D696C6C696D6574657220617761C4
:101E1000790073637265772074696C6C20746865EF
:101E2000206E6F7A7A6C65005475726E206C6566F0
:101E300074206275696C64706C61746500352F3252
:101E40003100434F4E54494E5545004731204625F9
:101E500069205A30004731204625692058256920DD
:101E600059256900473120462569205A3500667298
:101E70006F6D20746865206275696C64706C617444
:101E8000652E0069732061206D696C6C696D6574E5
:101E90006572206177617900736372657720746978
:101EA0006C6C20746865206E6F7A7A6C650054756E
:101EB000726E207269676874206275696C64706CF8
:101EC00061746500362F323100434F4E54494E55F0
:101ED0004500746865206275696C64706C61746536
:101EE000206C6576656C2E00706170657220746F71
:101EF0002066696E652D74756E65006E6F7720754E
:101F000073652061207368656574206F6600526593
:101F100070656174207468697320737465702C2017
:101F200062757400372F323100434F4E54494E557D
:101F30004500473120462569205A30004731204668
:101F400025692058256920592569004731204625F3
:101F500069205A350062697420726573697374610F
:101F60006E63652E00756E74696C20796F752066DE
:101F700065656C2061006275696C64706C61746584
:101F800020616E64206E6F7A7A6C6500536C6964B0
:101F90006520612070617065722062657477656587
:101FA0006E00382F323100434F4E54494E55450094
:101FB000434F4E54494E554500746865206C656624
:101FC0007420636F726E65722E2E2E0052657065DE
:101FD0006174207468697320666F7200392F323122
:101FE00000434F4E54494E55450074686520726950
:101FF00067687420636F726E65722E2E2E005265B4
:1020000070656174207468697320666F7200313086
:102010002F323100434F4E54494E554500444F4EE8
:102020004500473238205A3000746F20696E73655E
:102030007274206D6174657269616C2E00746865DC
:10204000206E6578742073746570206973007468FD
:1020500065206275696C64706C617465004E6F77A1
:102060002074686174207765206C6576656C6564A2
:102070000031312F323100434F4E54494E55450007
:102080004D3834004731204631323030302058311D
:10209000313020593130006D6174657269616C2096
:1020A0006C6F6164696E67007072696E74686561F7
:1020B000642068656174696E6720666F7200506C99
:1020C0006561736520776169742C0031322F32317C
:1020D0000061626F766520746865206172726F7747
:1020E0002E00796F757220556C74696D616B657225
:1020F000322C0066726F6D207468652072656172A3
:10210000206F6600496E73657274206E6577206D6E
:102110006174657269616C0031332F323100434F55
:102120004E54494E5545004C6F6164696E67206D91
:102130006174657269616C2E2E2E0031342F32313C
:102140000066726F6D206E6F7A7A6C652E2E2E008F
:102150006D6174657269616C206578697473005093
:1021600075736820627574746F6E207768656E0091
:1021700031352F323100434F4E54494E55450055AD
:102180006C74696D616B6572322E00696E73657275
:1021900074656420696E2074686520006D617465E3
:1021A0007269616C20796F752068617665004E6593
:1021B00078742C2073656C656374207468650031D5
:1021C000362F32310052454144590031372F3231D8
:1021D0000041425300504C41006973207468697398
:1021E0002072696768743F00414253206173206D1B
:1021F0006174657269616C2C00596F752068617635
:10220000652063686F73656E0031382F3231004E80
:102210004F00594553006974206973207573696EC6
:10222000672E006F66206D6174657269616C006B6A
:102230006E6F77732077686174206B696E64004EEF
:102240006F7720796F757220556C74696D616B655D
:1022500072320031392F323100434F4E54494E55BE
:1022600045006D616B652061203344205072696EBA
:1022700074210049276D207265616479206C657452
:1022800027730032302F32310041524520594F55CB
:102290002052454144593F00746F207072696E743A
:1022A0002069742100616E642070726573732074FC
:1022B000686520627574746F6E006F6E2074686557
:1022C0002053442D636172640053656C6563742010
:1022D00061207072696E742066696C650032312FFE
:1022E0003231004C45542753205052494E5400522D
:1022F000656164696E6720636172642E2E2E003200
:10230000312F323100796F757220556C74696D61AF
:102310006B6572322E2E2E00746861742063616DBD
:1023200065207769746800506C6561736520696E1B
:10233000736572742053442D636172640032312FCF
:102340003231006973207468697320726967687438
:102350003F00504C41206173206D6174657269616A
:102360006C2C00596F7520686176652063686F7307
:10237000656E0031382F3231004E4F005945530001
:10238000627574746F6E20746F20636F6E74696E03
:10239000756500556C74696D616B657221205072B2
:1023A000657373207468650073746172747570204E
:1023B0006F6620796F75720057656C636F6D65206D
:1023C000746F2074686520666972737400312F32EF
:1023D0003100434F4E54494E5545006120666972A5
:1023E00073742072756E2077697A6172642E00773B
:1023F000616C6B20796F75207468726F7567680007
:1024000066697273742073746172747570204920E8
:1024100077696C6C004265636175736520746869E7
:10242000732069732074686500322F323100434F86
:102430004E54494E554500473120462569205A25BE
:102440006900473238205A3000676F696E67207420
:102450006F20646F2074686174206E6F772E006146
:10246000646A7573746D656E74732C207765206172
:102470007265007765206E65656420746F20646FF7
:1024800020736F6D65004166746572207472616EB1
:1024900073706F72746174696F6E00332F32310024
:1024A000434F4E54494E554500473120462569203B
:1024B0005A25692058256920592569004732382056
:1024C0005830205930004300432F00436C69636B40
:1024D00020746F2072657475726E004275696C6449
:1024E000706C6174652074656D702E3A002500462D
:1024F000616E207370656564004731205A34300086
:10250000473238205A3000473238205A300047329C
:102510003820583020593000414456414E434544FC
:10252000004D41494E54454E414E434500746F2085
:1025300064656661756C743F0052657365742065EF
:10254000766572797468696E67004E4F005945531D
:10255000006D00204D61743A003A005072696E744B
:10256000696E673A003A004D616368696E65206F75
:102570006E20666F723A0052657475726E0054690F
:102580006E6B65725F31352E30312D524336004A05
:10259000616E20203820323031352032323A3131EC
:1025A0003A34380052657475726E006D410043759F
:1025B0007272656E742045006D41004375727265DC
:1025C0006E74205A006D410043757272656E7420FE
:1025D000582F59006D6D2F736563004D617820731E
:1025E00070656564205A006D6D2F736563004D61E1
:1025F000782073706565642059006D6D2F73656375
:10260000004D61782073706565642058006D6D2FF2
:1026100073656300582F59204A65726B0030306D26
:102620006D2F7365635E3200416363656C65726133
:1026300074696F6E004D4F54494F4E006D41006DEF
:1026400041006D41006D6D2F736563006D6D2F73DB
:102650006563006D6D2F736563006D6D2F7365632A
:10266000006D6D2F7365635E32003F3F3F00437521
:102670007272656E7420450043757272656E7420C7
:102680005A0043757272656E7420582F59004D615F
:1026900078207370656564205A004D6178207370EE
:1026A0006565642059004D6178207370656564200C
:1026B0005800582F59204A65726B00416363656C5E
:1026C00065726174696F6E003C2052455455524EDC
:1026D000006D6D2F736563005265747261637420C1
:1026E0007370656564006D6D00526574726163742A
:1026F000206C656E677468005245545241435449DA
:102700004F4E006D6D2F736563006D6D003F3F3F51
:102710000052657472616374207370656564005261
:10272000657472616374206C656E677468003C2028
:1027300052455455524E004300432F00436C696389
:102740006B20746F2072657475726E00526F7461C5
:10275000746520746F2065787472756465004E6FBF
:102760007A7A6C652074656D7065726174757265D6
:102770003A004300432F00436C69636B20746F2061
:1027800072657475726E004E6F7A7A6C652074652E
:102790006D70657261747572653A002500427269E8
:1027A0006768746E657373004C45440025003F3FB5
:1027B0003F0020476C6F77207768656E20646F6EEE
:1027C0006500204F6E207768696C65207072696EB5
:1027D00074696E670020416C77617973204F66667B
:1027E0000020416C77617973204F6E0042726967F7
:1027F00068746E657373003C2052455455524E0008
:1028000054696E6B65725F31352E30312D5243360F
:10281000005374616E64617264204D6F646500479B
:1028200065656B204D6F64650025004300432F00F4
:102830004300432F0025003F3F3F00466163746F14
:1028400072792072657365740052756E74696D6576
:102850002073746174730056657273696F6E0045FE
:1028600078706572742073657474696E6773004163
:10287000646A757374206275696C64706C617465E8
:10288000004D6F74696F6E2073657474696E677341
:102890000052657472616374696F6E20736574743D
:1028A000696E6773005365742066616E207370658E
:1028B0006564004D6F7665206D6174657269616C49
:1028C00000496E73657274206D6174657269616C24
:1028D000005261697365206275696C64706C617423
:1028E00065004C6F776572206275696C64706C610D
:1028F000746500486F6D65206865616400486561B6
:10290000747570206275696C64706C6174650048E0
:102910006561747570206E6F7A7A6C65004C454401
:102920002073657474696E6773003C20524554557A
:10293000524E0052455455524E00414456414E436A
:102940004544004255494C442D7C504C415445006F
:10295000555045540055504554005550455400417C
:10296000425300504C4100473120462569205825EC
:1029700069205925690047323820583020593000E5
:102980006D6174657269616C20696E7365727469DA
:102990006F6E0048656174696E67207072696E744D
:1029A0006865616420666F720047323820583020B5
:1029B00059300061626F76652074686520617272BB
:1029C0006F772E00796F7572206D616368696E652F
:1029D0002C0066726F6D20746865206261636B7392
:1029E000696465206F6600496E73657274206E6558
:1029F00077206D6174657269616C0043414E434597
:102A00004C00524541445900466F727761726469C7
:102A10006E67206D6174657269616C00636F6D65CE
:102A200073206F757420746865206E6F7A7A6C6598
:102A300000576169742074696C6C206D61746572F3
:102A400069616C0043414E43454C00524541445935
:102A5000004D4154455249414C0053656C656374C7
:102A60006564206D6174657269616C3A004F4B005A
:102A7000250046616E3A2000430043002500466C65
:102A80006F773A006D6D0052455455524E005345D4
:102A90005454494E4753004348414E4745004D4129
:102AA00054455249414C006469616D65746572001A
:102AB000666C6F770066616E5F7370656564006257
:102AC00065645F74656D70657261747572650074BC
:102AD000656D7065726174757265006E616D65001B
:102AE0005B6D6174657269616C5D00466F756E64E3
:102AF000206F6E20636172642E004E6F20657870C7
:102B00006F72742066696C650052656164696E67F6
:102B100020636172642E2E2E00506C6561736520F7
:102B2000696E736572742063617264004E6F205326
:102B3000442D43415244210066726F6D20746865D4
:102B40002053442063617264004C6F6164656420AB
:102B50006D6174657269616C73004F6B000A0A00E5
:102B60006469616D657465723D000A00666C6F771B
:102B70003D000A0066616E5F73706565643D000A22
:102B8000006265645F74656D70657261747572650D
:102B90003D000A0074656D70657261747572653D03
:102BA000000A006E616D653D005B6D617465726960
:102BB000616C5D0A0052656164696E6720636172D1
:102BC000642E2E2E00506C6561736520696E7365EE
:102BD00072742063617264004E6F2053442D434130
:102BE00052442100696E204D4154455249414C2EBA
:102BF00054585400746F20746865205344206361F6
:102C00007264005361766564206D617465726961F8
:102C10006C73004F6B0025004D6174657269616CC7
:102C200020666C6F7700250046616E2073706565C5
:102C300064006D6D004D6174657269616C2044695A
:102C4000616D657465720043004275696C64706CF7
:102C50006174652054656D702E00430054656D707D
:102C600065726174757265004D4154455249414C1D
:102C70000050524553455453004E6577207072659D
:102C8000736574003C2052455455524E0025002572
:102C9000006D6D00430043003F3F3F0053746F726F
:102CA000652061732070726573657400466C6F7780
:102CB00020250046616E004469616D65746572008F
:102CC000486561746564206275696C64706C6174D8
:102CD000650054656D7065726174757265003C20A5
:102CE00052455455524E004C6F61647320616C6CB8
:102CF000206D6174657269616C73005361766573F0
:102D000020616C6C206D6174657269616C73004D3B
:102D10006F64696679207468652073657474696E80
:102D2000677300250046616E3A200043004300258A
:102D300000466C6F773A006D6D00496D706F72746C
:102D40002066726F6D205344004578706F72742056
:102D5000746F20534400437573746F6D697A650016
:102D60003C2052455455524E00666F72206D61747E
:102D7000657269616C2072656D6F76616C00486583
:102D80006174696E67207072696E74686561640051
:102D9000526576657273696E67206D6174657269DC
:102DA000616C0052656D6F7665206D617465726946
:102DB000616C0043414E43454C005245414459002B
:102DC0004731204625692058256920592569004743
:102DD0003238205830205930004D363031205831AB
:102DE000302059313930205A30204C3330004D36A4
:102DF0003031205831302059313930205A32204C6E
:102E00003330004D3630312058313020593139308F
:102E1000205A3230204C33300025004272696768F6
:102E2000746E6573730025004D6174657269616C21
:102E300020666C6F7700250046616E2073706565B3
:102E4000640025005072696E7420737065656400BB
:102E500054554E45006D6D2F736563005265747255
:102E6000616374207370656564006D6D00526574F4
:102E700072616374206C656E6774680052455452C9
:102E8000414354494F4E006D6D2F736563006D6D66
:102E9000003F3F3F00526574726163742073706538
:102EA00065640052657472616374206C656E67744A
:102EB00068003C2052455455524E002500250025FF
:102EC00000430043004300430025004C454420429A
:102ED00072696768746E65737300526574726163BA
:102EE00074696F6E004D6174657269616C20666C07
:102EF0006F770046616E2073706565640042756986
:102F00006C64706C6174652074656D702E0054651E
:102F10006D706572617475726500537065656400EB
:102F200050617573696E672E2E2E00526573756D34
:102F3000650043616E206E6F74207061757365006B
:102F40005061757365003C2052455455524E004304
:102F500000432F00436C69636B20746F20726574AB
:102F600075726E004E6F7A7A6C652074656D70654F
:102F70007261747572653A0041626F727420746890
:102F800065207072696E743F004E4F0059455300C2
:102F90004D383400473238004731204625692045F6
:102FA0003000473932204525690043004320005056
:102FB00072696E74657220636F6F6C696E672064EE
:102FC0006F776E004241434B20544F204D454E5584
:102FD00000746865207072696E742E00596F7520D8
:102FE00063616E2072656D6F7665005072696E74F4
:102FF0002066696E6973686564004241434B2054E2
:103000004F204D454E550053442043415244004704
:10301000312046313230303020583520593130009F
:10302000473238003B464C41564F523A556C746912
:1030300047436F6465003B464C41564F523A556CCE
:10304000746947436F6465004E6F2066696C6573F1
:1030500020666F756E6421004F4B004F4B00526528
:103060006164696E6720636172642E2E2E00506C5D
:103070006561736520696E73657274206361726443
:10308000004E6F2053442D4341524421003C2042C6
:1030900041434B003C2052455455524E0066726FDE
:1030A0006D2074686520736C696365722E007365AA
:1030B0007474696E672077697468207365747469C5
:1030C0006E67006F76657272696465206D61636812
:1030D000696E6500546869732066696C652077695C
:1030E0006C6C0043414E43454C00434F4E54494E97
:1030F00055450054696D65206C6566740054696DB2
:1031000065206C65667420756E6B6E6F776E00431C
:1031100000430048656174696E67206275696C647C
:10312000706C617465004300430048656174696EAA
:103130006700746F20636F6E74696E7565005072FE
:1031400065737320627574746F6E005072696E746B
:10315000696E673A0041424F52540054554E450043
:10316000507265706172696E6720746F2070726949
:103170006E743A0048656174696E672075702E2E12
:103180002E0041424F52540054554E45004E6F2080
:10319000696E666F20617661696C61626C65006D55
:1031A000006D004D6174657269616C3A200054696C
:1031B0006D653A20003B4D4154455249414C3A001F
:1031C0003B54494D453A00466F6C64657200436F4D
:1031D00064653A0053442D63617264210072656135
:1031E00064696E67004572726F72207768696C65FA
:1031F0000052455455524E20544F204D41494E00E7
:1032000046616E0025006D6D2F7300537065656417
:10321000200025004275696C64706C6174652074CF
:10322000656D702E001F004E6F7A7A6C6520746594
:103230006D7065726174757265001F006D6D1D2F74
:103240007300466C6F7720002500457870657274B6
:103250002073657474696E6773003F3F3F002047B9
:1032600065656B204D6F646500205374616E646109
:103270007264204D6F6465003C2052455455524E97
:103280000007087F5D4941495D7F07081C3E7F714B
:10329000773E1C07080708137F1308070508609E80
:1032A000819E600708404A55404A5540060822144E
:1032B0000822140805082634081632250025001FA8
:1032C000001F0025005A0048656174696E6720621E
:1032D00075696C64706C6174650048656174696ED1
:1032E000670050617573696E672E2E2E00436C69FE
:1032F000636B20746F20636F6E74696E75652E2E1C
:103300002E005061757365642E2E2E0025005061CD
:103310007573696E672E2E2E005061757365642E6D
:103320002E2E001F002F001F001F002F001F002542
:103330000048656174696E672075702E2E2E20001E
:10334000494E46494E4954594E414ECDCCCC3D0A8A
:10335000D7233C17B7D13877CC2B329595E6241F6D
:10336000B14F0A000020410000C84200401C462026
:10337000BCBE4CCA1B0E5AAEC59D74000D945102C2
:103380000D94BA080D94BA05A7260052F8ABE0FBDD
:10339000A22601AC11241FBECFEFD1E2DEBFCDBF0C
:1033A00000E00CBF14E0A0E0B2E0E4ECFDE102E0DC
:1033B0000BBF02C007900D92AA3CB107D9F71BBE04
:1033C0001BE1AAECB4E001C01D92AC39B107E1F7F2
:1033D00013E3C0E9D3E304C02297FE010F94880EE3
:1033E000C838D107C9F70F9457090D94D60E0C941D
:1033F0000000CF93DF93BC018230910510F462E0AE
:1034000070E0A091981BB091991BED01E0E0F0E015
:1034100040E050E021C0888199818617970769F4C0
:103420008A819B81309719F09383828304C09093A3
:10343000991B8093981BFE0134C06817790738F4F4
:103440004115510519F08417950708F4AC01FE01E8
:103450008A819B819C01E9012097E9F6411551057C
:10346000A9F1CA01861B970B049708F4BA01E0E0A2
:10347000F0E02AC08D919C91119784179507F9F47B
:103480006417750781F412968D919C91139730976C
:1034900019F09383828304C09093991B8093981BA7
:1034A000FD0132964CC0CA01861B970BFD01E80F47
:1034B000F91F6193719302978D939C9340C0FD0116
:1034C000828193819C01D9011097A1F68091961B6E
:1034D0009091971B892B41F480915503909156034D
:1034E0009093971B8093961B4091570350915803DC
:1034F0004115510541F44DB75EB78091530390914A
:103500005403481B590B2091961B3091971BCA01FD
:10351000821B930B8617970780F0AB014E5F5F4FBE
:103520008417950750F0420F531F5093971B4093F9
:10353000961BF9016193719302C0E0E0F0E0CF01C6
:10354000DF91CF910895CF93DF93009709F450C096
:10355000EC0122971B821A82A091981BB091991BB3
:10356000109709F140E050E0AC17BD0708F1BB83AC
:10357000AA83FE0121913191E20FF31FAE17BF071D
:1035800079F48D919C911197280F391F2E5F3F4F31
:103590003983288312968D919C9113979B838A83FC
:1035A0004115510571F4D093991BC093981B20C00D
:1035B00012968D919C911397AD01009711F0DC014B
:1035C000D3CFFA01D383C28321913191E20FF31F4C
:1035D000CE17DF0769F488819981280F391F2E5F84
:1035E0003F4FFA01318320838A819B8193838283B9
:1035F000DF91CF910895A0E0B0E0E1E0FBE10D9410
:10360000A50EEC015B016115710519F0FB019183B9
:103610008083F9908F2D90E00F948C0E892BC9F741
:10362000FDE2FF1621F4F990EE24E39405C02BE2AD
:10363000F21609F4F990EE248E0101501040C801F1
:1036400060E473E343E050E0D4D2892BF9F48E01B7
:103650000E5F1F4FC80163E473E345E050E0C9D239
:10366000892B19F48E01095F1F4FA114B10419F0C1
:10367000F50111830083E0FC04C070E090E080E875
:1036800013C070E090E080E86FEF07C1C80168E404
:1036900073E343E050E0ADD2892B69F4A114B10487
:1036A00029F470E090E080EC6FE7F7C02296F50116
:1036B000D183C083F6CF8824992440E050E060E0B5
:1036C00070E0EF2DE053EA30A0F5F2E0EF2A8E2D06
:1036D00090E09C0128703070E2FE06C0232B79F543
:1036E0000894811C911C2BC0232B19F0089481088D
:1036F0009108DB01CA0112E0880F991FAA1FBB1FA6
:103700001A95D1F7480F591F6A1F7B1F440F551F89
:10371000661F771F4E0F511D611D711D483929E924
:10372000520729E9620729E1720748F084E0E82A94
:1037300006C0EE3F31F4E3FC39C098E0E92AF99085
:10374000C0CFE53311F0E53189F529912D3219F417
:10375000E0E1EE2A05C02B3219F081E090E003C0D1
:10376000299182E090E0E22FE053EA3018F0C81B84
:10377000D90B1CC020E030E0FCE020383F075CF4AF
:10378000C901880F991F880F991F280F391F220F11
:10379000331F2E0F311DE991E053EA3068F3E4FE48
:1037A00003C0309521953F4F820E931ECE2CDD2411
:1037B000E1FE07C0A114B10421F02197F501D183E6
:1037C000C083CB01BA010F94E10A7B018C01F3E0C5
:1037D000CF22DD2423E0C216D10421F417FB10957B
:1037E00017F9109557016801C801B70120E030E0D2
:1037F00040E050E00F94410A882309F44AC097FE44
:103800000DC02FE5E22E23E3F22E909481949108CF
:103810009394C0E2D0E000E010E012C097E7E92EF8
:1038200093E3F92EF6CFF701259135914591549107
:10383000C601B5010F94210D5B016C018C1A9D0A24
:103840008C169D0684F7D595C7950F5F1F4F0630E0
:10385000110529F08CEF9FEFE80EF91EF1CFC5019D
:10386000D6017C018D018C2D880F8D2D881F8F3FF7
:1038700051F0C601B50120E030E040E050E00F9487
:10388000410A882331F482E290E090939B1B80935D
:103890009A1B7E2D9F2D802F612F272F392F482F88
:1038A000562FB901CA01CDB7DEB7ECE00D94C10EB9
:1038B0002F923F925F926F927F928F929F92AF92E0
:1038C000BF92CF92DF92EF92FF920F931F93CF930D
:1038D000DF938C011B01EA016115710519F0FB01F1
:1038E00091838083209749F0CE010297839728F037
:1038F00020E030E040E050E0F6C0F801A1908F01F8
:103900008A2D90E00F948C0E892BB9F7FDE2AF164B
:1039100031F4F801A1908F015524539407C0FBE2C4
:10392000AF1619F4F801A1908F015524209719F0D2
:10393000C031D105C1F4F0E3AF1679F4F80180810C
:10394000883711F0883549F4F801A1800E5F1F4FC8
:10395000F2E05F2AC0E1D0E006C0209721F480E3C6
:10396000A816E9F427C0C830D10531F1C930D10516
:1039700024F4C230D10531F50CC0CA30D10589F02C
:10398000C031D105F9F4C12CD12CE12CB8E0FB2ECB
:1039900028C0C12CD12CE12CA0E4FA2E22C0CAE010
:1039A000D0E0FCECCF2EFCECDF2EFCECEF2EFCE0AC
:1039B000FF2E17C0C8E0D0E0C12CD12CE12CE0E1F3
:1039C000FE2E0FC09E01442737FD4095542F60E026
:1039D00070E080E090E80F94350EC901DA016C01C7
:1039E0007D0120E030E040E050E060E03E018824CE
:1039F00077FC8094982C70EDB72EBA0CE9E0EB15AB
:103A000070F48A2D81548A3118F499ECB92E06C0CD
:103A10008A2D81568A3150F589EAB82EBA0C8B2D41
:103A200090E08C179D0714F56F3FE1F0C216D306A6
:103A3000E406F506B0F0CA01B901A40193010F94A0
:103A4000F70D9B01AC012B0D311D411D511D213086
:103A5000F0E03F07F0E04F07F0E85F0710F461E0A7
:103A600001C06FEFF801A1908F01C5CF211431047F
:103A700081F0662331F001501040F1011183008381
:103A800008C051FE1AC002501040F101118300839A
:103A900014C067FF12C050FC05C02FEF3FEF4FEF7F
:103AA0005FE704C020E030E040E050E882E290E0D0
:103AB00090939B1B80939A1B16C050FE08C0509594
:103AC0004095309521953F4F4F4F5F4F0CC057FFAA
:103AD0000AC082E290E090939B1B80939A1B2FEF89
:103AE0003FEF4FEF5FE7B901CA01DF91CF911F911F
:103AF0000F91FF90EF90DF90CF90BF90AF909F908D
:103B00008F907F906F905F903F902F900895FC0171
:103B100088279927E89421912032E9F3293010F081
:103B20002E30C8F32B3239F02D3231F4689403C0B3
:103B30001FD1820F911D219120532A30C8F31EF40A
:103B4000909581959F4F08951F93FC019927882791
:103B5000BC01E89411911032E9F3193010F01E30D5
:103B6000C8F31B3249F01D3241F4689405C0EBD014
:103B7000610F711D811D911D119110531A30B8F301
:103B80003EF490958095709561957F4F8F4F9F4F34
:103B90001F910895FB01DC010D900020E9F71197BA
:103BA00005900D920020E1F70895FC01059006169E
:103BB00021F00020D9F7C00108953197CF01089571
:103BC000FB01DC018D91059080190110D9F3990B4F
:103BD0000895FB01DC0105900D920020E1F70895A6
:103BE000FC0105900020E9F7809590958E0F9F1FAE
:103BF0000895FB01DC014150504088F08D918134E3
:103C00001CF08B350CF4805E659161341CF06B35D3
:103C10000CF4605E861B611171F3990B0895881B8B
:103C2000FCCFFB01DC014150504030F08D910590FC
:103C3000801919F40020B9F7881B990B0895FB012E
:103C4000DC014150504048F005900D920020C9F72A
:103C500001C01D9241505040E0F70895FB0155917D
:103C60005523A9F0BF01DC014D9145174111E1F742
:103C700059F4CD010590002049F04D9140154111B6
:103C8000C9F3FB014111EFCF81E090E00197089566
:103C9000FB01DC0104C08D910190801921F4415099
:103CA0005040C8F7881B990B0895FB01DC0102C046
:103CB00001900D9241505040D8F70895FB01DC016E
:103CC0000D900020E9F7119701900D920020E1F787
:103CD0000895FC018191861721F08823D9F799274F
:103CE00008953197CF010895FB01DC0101900D92F9
:103CF0000020E1F70895FB01DC014150504030F015
:103D00008D910190801919F40020B9F7881B990B47
:103D10000895FB01DC014150504048F001900D92A4
:103D20000020C9F701C01D9241505040E0F70895AE
:103D3000FC0181E090E00190061609F4CF0100201B
:103D4000D1F701970895592F482F372F262F660F47
:103D5000771F881F991F660F771F881F991F620F93
:103D6000731F841F951F660F771F881F991F089563
:103D70007AE0979F902D879F802D910D11240895B3
:103D8000AEE0B0E0E6ECFEE10D94AD0E0E891F89C9
:103D90008EE08C831A8309838FEF9FE79E838D8348
:103DA0009E01265E3F4FCE010196688D798DA90157
:103DB0000AD02F813885020F131FF80110822E962A
:103DC000E4E00D94C90EABE0B0E0E9EEFEE10D9445
:103DD0009F0E3C012B015A01FC0117821682838140
:103DE00081FD03C06FEF7FEFB9C19AE0892E1E01FC
:103DF0000894211C311CF3012381F20123FD8591DC
:103E000023FF81912F01882309F4A5C1853239F45C
:103E100023FD859123FF81912F01853221F490E0CC
:103E2000B301B7D1E8CF982FFF24EE249924FFE106
:103E3000FF15D0F09B3269F09C3228F4903259F093
:103E4000933291F40EC09D3249F0903369F441E011
:103E500024C052E0F52A84E0F82A28C098E0F92A24
:103E600025C0E0E1FE2A22C0F7FC29C0892F80533B
:103E70008A3070F4F6FE05C0989C902C1124980EA0
:103E800015C0E89CE02C1124E80EF0E2FF2A0EC0D9
:103E90009E3229F4F6FC5FC140E4F42A07C09C3648
:103EA00019F450E8F52A02C0983649F4F20123FDCE
:103EB000959123FF91912F01992309F0B8CF892F74
:103EC0008554833018F08052833038F444E050E059
:103ED000A40EB51E5FE359830FC0933631F09337BC
:103EE00079F0933509F052C01FC0F50180818983B4
:103EF00042E050E0A40EB51E610101E010E011C0E7
:103F0000F501C080D180F6FC03C06FEF7FEF02C0E7
:103F1000692D70E042E050E0A40EB51EC6012ED11E
:103F20008C015FE7F52213C0F501C080D180F6FC5B
:103F300003C06FEF7FEF02C0692D70E042E050E0F8
:103F4000A40EB51EC6010FD18C0150E8F52AF3FE70
:103F500006C018C080E290E0B3011BD1EA948E2D18
:103F600090E008171907B0F30DC0F601F7FC859132
:103F7000F7FE81916F0190E0B3010BD1E110EA945B
:103F8000015010400115110581F7E2C0943611F07F
:103F9000993661F5F7FE08C0F50120813181428133
:103FA000538184E090E00AC0F501808191819C01F9
:103FB000442737FD4095542F82E090E0A80EB91EAB
:103FC0009FE6F92257FF09C05095409530952195FD
:103FD0003F4F4F4F5F4FE0E8FE2ACA01B901A101F0
:103FE0002AE030E002D1D82ED2183FC0953729F40C
:103FF0001F2D1F7E2AE030E01DC01F2D197F9F3628
:1040000061F0903720F4983509F0A5C00FC09037C3
:1040100039F0983709F09FC004C028E030E00AC0AA
:10402000106114FD146020E130E004C014FD16603E
:1040300020E132E017FF08C0F501608171818281C3
:10404000938144E050E008C0F50180819181BC017A
:1040500080E090E042E050E0A40EB51EA101C5D082
:10406000D82ED2188FE7F82EF122F6FE0BC05EEFA5
:10407000F522D91438F4F4FE07C0F2FC05C08FEE27
:10408000F82202C01D2D01C0192DF4FE0DC0FE0145
:10409000ED0DF11D8081803319F499EEF92208C0ED
:1040A0001F5FF2FE05C003C08F2D867809F01F5FE9
:1040B0000F2DF3FC13C0F0FE0EC01E1510F09D2C4A
:1040C0000AC09D2C9E0C911A1E2D05C080E290E026
:1040D000B3015FD01F5F1E15C8F304C01E1510F496
:1040E000E11A01C0EE2404FF0EC080E390E0B301AA
:1040F00050D002FF1BC001FD03C088E790E00EC056
:1041000088E590E00BC0802F867881F001FF02C027
:104110008BE201C080E2F7FC8DE290E0B30139D080
:1041200005C080E390E0B30134D09A94D914C8F369
:10413000DA94F101ED0DF11D808190E0B30129D0F9
:10414000DD20B1F705C080E290E0B30122D0EA940F
:10415000EE20C9F750CEF30166817781CB012B9613
:10416000E2E10D94BB0EFC0105906150704001101E
:10417000D8F7809590958E0F9F1F0895FC01615090
:10418000704001900110D8F7809590958E0F9F1F79
:1041900008950F931F93CF93DF938C01EB018B81D5
:1041A00081FF1BC082FF0DC02E813F818C819D81CC
:1041B0002817390764F4E881F9810193F983E883CA
:1041C00006C0E885F985802F1995892B31F48E81F9
:1041D0009F8101969F838E8302C00FEF1FEFC8015E
:1041E000DF91CF911F910F910895FA01AA272830EE
:1041F00051F1203181F1E8946F936E7F6E5F7F4FB4
:104200008F4F9F4FAF4FB1E03ED0B4E03CD0670F2F
:10421000781F891F9A1FA11D680F791F8A1F911D82
:10422000A11D6A0F711D811D911DA11D20D009F4D2
:1042300068943F912AE0269F11243019305D319314
:10424000DEF6CF010895462F4770405D4193B3E0FD
:104250000FD0C9F7F6CF462F4F70405D4A3318F0A4
:10426000495D31FD4052419302D0A9F7EACFB4E055
:10427000A6959795879577956795BA95C9F700970D
:104280006105710508959B01AC010A2E06945795AE
:10429000479537952795BA95C9F7620F731F841F05
:1042A000951FA01D08951F920F920FB60F92112413
:1042B0002F933F938F939F93AF93BF938091CE049F
:1042C0009091CF04A091D004B091D1043091D20448
:1042D0000196A11DB11D232F2D5F2D3720F02D57E5
:1042E0000196A11DB11D2093D2048093CE0490931A
:1042F000CF04A093D004B093D1048091CA049091CC
:10430000CB04A091CC04B091CD040196A11DB11DA8
:104310008093CA049093CB04A093CC04B093CD04B3
:10432000BF91AF919F918F913F912F910F900FBEB1
:104330000F901F9018958FB7F8942091CE0430916C
:10434000CF044091D0045091D1048FBFB901CA016C
:104350000895789484B5826084BD84B5816084BDFD
:1043600085B5826085BD85B5816085BDEEE6F0E0EE
:10437000808181608083E1E8F0E01082808182604A
:104380008083808181608083E0E8F0E080818160CB
:104390008083E1EBF0E0808184608083E0EBF0E0FB
:1043A000808181608083E1E9F0E0808182608083A8
:1043B000808181608083E0E9F0E08081816080839A
:1043C000E1EAF0E080818260808380818160808387
:1043D000E0EAF0E0808181608083E1E2F1E08081C9
:1043E00082608083808181608083E0E2F1E080816F
:1043F00081608083EAE7F0E080818460808380814F
:1044000082608083808181608083808180688083F6
:104410001092C10008951F93CF93DF93182FEB01E3
:1044200061E0D7D0209709F4CAC0CF3FD10509F485
:10443000C9C0E12FF0E0E95AFD4F8491893009F4B9
:1044400066C08A30B0F48430F1F1853040F48230B7
:1044500059F1833070F5813009F0AEC020C087304B
:1044600009F443C0883008F048C0863009F0A4C081
:1044700034C08D3009F478C08E3038F48B3009F4B4
:104480005AC08C3008F066C04CC0803109F480C03E
:10449000813109F487C08F3009F08EC06FC084B5B8
:1044A000806884BDC7BD91C084B5806284BDC8BD2D
:1044B0008CC080918000806880938000D0938900B8
:1044C000C093880082C080918000806280938000C9
:1044D000D0938B00C0938A0078C08091B000806830
:1044E0008093B000C093B30070C08091B000806230
:1044F0008093B000C093B40068C080919000806841
:1045000080939000D0939900C09398005EC08091F2
:104510009000806280939000D0939B00C0939A009B
:1045200054C080919000886080939000D0939D004B
:10453000C0939C004AC08091A00080688093A00036
:104540008091A0008F7B8093A000D093A900C0939E
:10455000A8003BC08091A00080628093A000D0930F
:10456000AB00C093AA0031C08091A0008860809306
:10457000A000D093AD00C093AC0027C08091200173
:10458000806880932001D0932901C09328011DC029
:1045900080912001806280932001D0932B01C093F1
:1045A0002A0113C080912001886080932001D0935C
:1045B0002D01C0932C0109C0C038D1051CF4812FF6
:1045C00060E002C0812F61E0B7D0DF91CF911F91F1
:1045D0000895CF93DF93482F50E0CA018F5E9D4F1F
:1045E000FC01349145535E4FFA018491882369F1AF
:1045F00090E0880F991FFC01E358FE4FA591B491FC
:10460000FC01E956FE4FC591D491662351F42FB7B2
:10461000F8948C91932F909589238C93888189238A
:104620000BC0623061F42FB7F8948C91932F909562
:1046300089238C938881832B88832FBF06C09FB7E3
:10464000F8948C91832B8C939FBFDF91CF91089529
:10465000893009F449C08A30A0F4843051F18530A2
:1046600040F4823079F1833000F5813009F063C085
:1046700026C0873079F1883098F5863009F05BC024
:1046800025C08D3009F442C08E3028F48B30B1F152
:104690008C30C0F52DC0803109F442C0813109F45D
:1046A00045C08F3009F047C037C0809180008F77B8
:1046B00003C0809180008F7D80938000089584B531
:1046C0008F7702C084B58F7D84BD08958091B0003E
:1046D0008F7703C08091B0008F7D8093B0000895E4
:1046E000809190008F7707C0809190008F7D03C0EC
:1046F00080919000877F8093900008958091A00022
:104700008F7707C08091A0008F7D03C08091A000AB
:10471000877F8093A0000895809120018F7703C048
:10472000809120018F7D8093200108958091200148
:10473000877F809320010895FF920F931F93F62E99
:10474000482F50E0CA01895A9D4FFC012491CA01AB
:104750008F5E9D4FFC01149145535E4FFA01049109
:104760000023C1F0222311F0822F72DFE02FF0E04E
:10477000EE0FFF1FE956FE4FA591B4919FB7F89435
:10478000FF2021F48C911095812302C08C91812B04
:104790008C939FBF1F910F91FF9008951F920F92CE
:1047A0000FB60F920BB60F9211242F933F934F9396
:1047B0005F936F937F938F939F93AF93BF93EF9389
:1047C000FF938091D7049091D804892B29F0E09130
:1047D000D704F091D8041995FF91EF91BF91AF9153
:1047E0009F918F917F916F915F914F913F912F9109
:1047F0000F900BBE0F900FBE0F901F9018951F9239
:104800000F920FB60F920BB60F9211242F933F9376
:104810004F935F936F937F938F939F93AF93BF93C8
:10482000EF93FF938091D9049091DA04892B29F0BA
:10483000E091D904F091DA041995FF91EF91BF91BD
:10484000AF919F918F917F916F915F914F913F9128
:104850002F910F900BBE0F900FBE0F901F901895C9
:104860001F920F920FB60F920BB60F9211242F9337
:104870003F934F935F936F937F938F939F93AF93E8
:10488000BF93EF93FF938091DB049091DC04892B1D
:1048900029F0E091DB04F091DC041995FF91EF9190
:1048A000BF91AF919F918F917F916F915F914F9148
:1048B0003F912F910F900BBE0F900FBE0F901F9046
:1048C00018951F920F920FB60F920BB60F921124EC
:1048D0002F933F934F935F936F937F938F939F9308
:1048E000AF93BF93EF93FF938091DD049091DE042B
:1048F000892B29F0E091DD04F091DE041995FF91F8
:10490000EF91BF91AF919F918F917F916F915F9147
:104910004F913F912F910F900BBE0F900FBE0F90B4
:104920001F9018951F920F920FB60F920BB60F9211
:1049300011242F933F934F935F936F937F938F93A4
:104940009F93AF93BF93EF93FF938091D304909184
:10495000D404892B29F0E091D304F091D404199563
:10496000FF91EF91BF91AF919F918F917F916F9147
:104970005F914F913F912F910F900BBE0F900FBE03
:104980000F901F9018951F920F920FB60F920BB6B3
:104990000F9211242F933F934F935F936F937F93C5
:1049A0008F939F93AF93BF93EF93FF938091D50421
:1049B0009091D604892B29F0E091D504F091D6048A
:1049C0001995FF91EF91BF91AF919F918F917F9139
:1049D0006F915F914F913F912F910F900BBE0F9070
:1049E0000FBE0F901F9018951F920F920FB60F9247
:1049F0000BB60F9211242F933F934F935F936F93B6
:104A00007F938F939F93AF93BF93EF93FF93809187
:104A1000DF049091E004892B29F0E091DF04F0910C
:104A2000E0041995FF91EF91BF91AF919F918F9104
:104A30007F916F915F914F913F912F910F900BBE9E
:104A40000F900FBE0F901F9018951F920F920FB6E8
:104A50000F920BB60F9211242F933F934F935F93B6
:104A60006F937F938F939F93AF93BF93EF93FF9336
:104A70008091E1049091E204892B29F0E091E10416
:104A8000F091E2041995FF91EF91BF91AF919F9141
:104A90008F917F916F915F914F913F912F910F90E7
:104AA0000BBE0F900FBE0F901F901895CF92DF9204
:104AB000EF92FF920F931F93CF93DF937C016B01D3
:104AC0008A01C0E0D0E00FC0D6016D916D01D70121
:104AD000ED91FC910190F081E02DC7011995C80F6F
:104AE000D91F015010400115110571F7CE01DF915A
:104AF000CF911F910F91FF90EF90DF90CF9008958D
:104B00008091290D90912A0D181619069CF4809118
:104B10000F0A9091100A019668E070E00F94220E3F
:104B20009093240D8093230D81E090E090932A0DC3
:104B30008093290D089520E08091290D90912A0DF0
:104B4000181619060CF421E0822F08958091290D82
:104B50000895EF92FF920F931F93CF93DF93EC0191
:104B6000E0900207F09003070091040710910507F9
:104B7000688179818A819B81A80197010F94410AFC
:104B8000882324F4E882F9820A831B83E0900607D5
:104B9000F090070700910807109109076C817D814B
:104BA0008E819F81A80197010F94410A882324F4E4
:104BB000EC82FD820E831F83E0900A07F0900B07C2
:104BC00000910C0710910D07688579858A859B8572
:104BD000A80197010F94410A882324F4E886F986F6
:104BE0000A871B87E0906D03F0906E0300916F03BE
:104BF00010917003688179818A819B81A801970156
:104C00000F944F0C181624F4E882F9820A831B8350
:104C1000E0907103F090720300917303109174039C
:104C20006C817D818E819F81A80197010F944F0C2B
:104C3000181624F4EC82FD820E831F83E090750326
:104C4000F090760300917703109178036885798559
:104C50008A859B85A80197010F944F0C181624F4A0
:104C6000E886F9860A871B87DF91CF911F910F9104
:104C7000FF90EF9008958091DB09811181E0089504
:104C80008091DB0908950F931F93CF93DF938130B9
:104C9000910591F46F5F7F4F09F04FC083EE94E070
:104CA0000E94C79AE5E5F7E01082EA5BFF4F8AE0D1
:104CB000E131F807C9F741C0892B09F03EC06F5FA9
:104CC0007F4FD9F583E994E09093B0068093AF06C7
:104CD0008091B606882321F083EB96E00E94DD5791
:104CE000CBE6D6E003E914E005C06F9785E0C53355
:104CF000D80751F0198308838F818823B1F3CE013F
:104D000004960E94DD57F1CF83E994E0998388836C
:104D10008F81882321F0CE0104960E94DD5783E91C
:104D200094E0909315058093140580911B058823CA
:104D300021F088E195E00E94DD57DF91CF911F912E
:104D40000F91089580E090E06FEF7FEF9CCF81E0BE
:104D500090E06FEF7FEF97CF1F93182F0E94F9839A
:104D60008091DB09882309F035C01093DB0980911D
:104D7000DD099091DE09A091DF09B091E0098093EF
:104D8000E1099093E209A093E309B093E409E3EA0F
:104D9000F2E0949108C08091C00085FFFCCF909311
:104DA000C600319694919923B1F7EAEAF2E0949122
:104DB00008C08091C00085FFFCCF9093C60031965B
:104DC00094919923B1F78091C00085FFFCCF8AE0D0
:104DD0008093C6001F910895F8940E94F983159A54
:104DE000469A439A409A88E160E0F3DBE3EAF2E016
:104DF000949108C08091C00085FFFCCF9093C600BD
:104E0000319694919923B1F7E0E2F3E0949108C0D0
:104E10008091C00085FFFCCF9093C600319694919D
:104E20009923B1F78091C00085FFFCCF8AE0809381
:104E3000C600FFCF80DA6093E5097093E60980939E
:104E4000E7099093E809E0910F0AF091100AEF5EEC
:104E5000F54F80818823A9F4EFE3F3E0949108C033
:104E60008091C00085FFFCCF9093C600319694914D
:104E70009923B1F78091C00085FFFCCF8AE0809331
:104E8000C6000895EF92FF920F931F9354DA20917A
:104E90001216309113164091141650911516621B7C
:104EA000730B840B950B2091ED09615477478B416F
:104EB000904090F0222321F59091C703963018F08E
:104EC0006CE070E015C08FEF989FC001112464E67C
:104ED00070E00F94220E0CC0222391F09091C70332
:104EE0008FEF989FC001112464E670E00F94220EAA
:104EF00088E091DA8091ED0991E089278093ED09AE
:104F00001ADAE090E909F090EA090091EB091091B2
:104F1000EC092091E5093091E6094091E7095091AB
:104F2000E809621B730B840B950BE616F70608075E
:104F3000190730F4E114F1040105110509F04CDF03
:104F400080918A0390918B03A0918C03B0918D0383
:104F50000097A105B105F1F0EED92091E509309156
:104F6000E6094091E7095091E809621B730B840B35
:104F7000950B20918A0330918B0340918C035091C3
:104F80008D03261737074807590720F48091051528
:104F900080910615069B02C08AE0DEDE0E94F76A59
:104FA0001F910F91FF90EF9008956F927F928F92D3
:104FB0009F92AF92BF92CF92DF92EF92FF920F93A8
:104FC0001F93F82E6091EE097091EF098091F0091E
:104FD0009091F1092091F2093091F3094091F4097F
:104FE0005091F5090F945C0C3B014C0100D000D0AE
:104FF0000DB71EB70F5F1F4F6091690370916A0371
:10500000882777FD8095982F0F94E30A20918E03CF
:1050100030918F0340919003509191030F94210D93
:1050200020E030E040E752E40F94480A20E030E00E
:1050300048EC52E40F94480A5B016C01F80160826D
:10504000718282829382F48280910E07858386EE3C
:1050500096E06AEF79E04EEE59E020E001E032E0C0
:10506000E32E0E94DF648091FA099091FB09A091E0
:10507000FC09B091FD098093E6069093E706A093A2
:10508000E806B093E9068091FE099091FF09A0918E
:10509000000AB091010A8093EA069093EB06A09370
:1050A000EC06B093ED068091020A9091030AA0915C
:1050B000040AB091050A8093EE069093EF06A09340
:1050C000F006B093F1068091060A9091070AA0912C
:1050D000080AB091090A8093F2069093F306A09310
:1050E000F406B093F5068DB79EB706960FB6F89402
:1050F0009EBF0FBE8DBF1FD96093E5097093E6096F
:105100008093E7099093E8091F910F91FF90EF902A
:10511000DF90CF90BF90AF909F908F907F906F90D7
:105120000895CF92DF92EF92FF920F931F938AEF31
:1051300099E00FDD00D96093E5097093E60980934B
:10514000E7099093E8096091E6067091E70680917F
:10515000E8069091E9062091FA093091FB09409107
:10516000FC095091FD090F94410A882309F07AC087
:105170006091EA067091EB068091EC069091ED0645
:105180002091FE093091FF094091000A5091010AD7
:105190000F94410A882309F065C060918E037091D5
:1051A0008F03809190039091910320E030E040E7DD
:1051B00052E40F94480A7B018C018AEF99E06EEF6C
:1051C00079E042E05AE026E03AE0EEE0CE2EE7E079
:1051D000DE2E0E94206E8091FA099091FB09A09129
:1051E000FC09B091FD098093E6069093E706A09331
:1051F000E806B093E9068091FE099091FF09A0911D
:10520000000AB091010A8093EA069093EB06A093FE
:10521000EC06B093ED068091020A9091030AA091EA
:10522000040AB091050A8093EE069093EF06A093CE
:10523000F006B093F1068091060A9091070AA091BA
:10524000080AB091090A8093F2069093F306A0939E
:10525000F406B093F5061F910F91FF90EF90DF9049
:10526000CF9008956091690370916A03882777FD54
:105270008095982F0F94E30A20918E0330918F032D
:1052800040919003509191030F94210D20E030E064
:1052900040E752E40F94480A20E030E048EC52E442
:1052A00088CF83EB9DE00E94F751E2E4F3E0949114
:1052B00008C08091C00085FFFCCF9093C600319656
:1052C00094919923B1F74091DD095091DE096091E5
:1052D000DF097091E0094F5F5F4F6F4F7F4F83EBA6
:1052E0009DE02AE030E00E94B3528091C00085FF2B
:1052F000FCCF8AE08093C6009DCD682F20910F0AD5
:105300003091100A80E690E0AC01249FC001259FF7
:10531000900D349F900D1124815E954F70E00E9496
:10532000691E9C0190931E0A80931D0A80E0232B26
:1053300009F081E00895FC01949108C08091C000BB
:1053400085FFFCCF9093C600319694919923B1F7D5
:1053500083EB9DE022E030E00C94B953FC01949182
:1053600008C08091C00085FFFCCF9093C6003196A5
:1053700094919923B1F783EB9DE02AE030E00C94FF
:1053800097522F923F924F925F926F927F928F929D
:105390009F92AF92BF92CF92DF92EF92FF920F93C4
:1053A0001F93DF93CF9300D000D0CDB7DEB79E839D
:1053B0008D838330910508F053C22C01440C551C99
:1053C000440C551CB6EE2B2EB6E03B2E240C351C9F
:1053D00080E090E0A0E0B0E0F10180839183A283BF
:1053E000B38386EE96E06AEE76E04EEE56E022EF6C
:1053F00036E00E94C368F201E956FA4F6591759153
:10540000859194912D813E8121553A4F3A8329838C
:10541000F901E49092012650364F3C832B8320E023
:1054200030E040EC5FE30F94210D5B016C01FF2441
:10543000E7FCF0940F2D1F2DC801B7010F94E30A6C
:105440003B014C01C601B501A40193010F94210D4C
:10545000AB81BC816D937D938D939C931397F201E7
:10546000E75AFC4F608171818281938160938E0342
:1054700070938F03809390039093910320E030E02A
:1054800040E752E40F94480A7B018C018AEF99E0CF
:105490006EEF79E042E05AE026E03AE0AEE0CA2E54
:1054A000A7E0DA2E0E94206E0E94F77B0E94797A94
:1054B000882309F09DC0F3EA4F2EF2E05F2EED81C4
:1054C000FE81329709F06FC080E090E0A0E0B0E08C
:1054D0008093EE069093EF06A093F006B093F1064A
:1054E00086EE96E06AEE76E04EEE56E022EF36E08B
:1054F0000E94C368EBEAF5E06591759185919491FE
:105500009058A40193010F94210D20E030E040E277
:1055100051E40F94210D6093020A7093030A809363
:10552000040A9093050A60918E0370918F03809115
:1055300090039091910320E030E040E752E40F9413
:10554000480A7B018C018AEF99E06EEF79E042E036
:105550005AE026E03AE00E94206E0E94F77BF201BA
:10556000949108C08091C00085FFFCCF9093C60045
:10557000319694919923B1F7E0E6F5E0949108C053
:105580008091C00085FFFCCF9093C6003196949126
:105590009923B1F78091C00085FFFCCF8AE080930A
:1055A000C60085E023C0F201949108C08091C0003C
:1055B00085FFFCCF9093C600319694919923B1F763
:1055C000E9E2F5E0949108C08091C00085FFFCCF2E
:1055D0009093C600319694919923B1F78091C000C1
:1055E00085FFFCCF8AE08093C60087E0B5DB38C139
:1055F00080E090E0A0E0B0E0F10180839183A2839D
:10560000B38386EE96E06AEE76E04EEE56E022EF49
:1056100036E00E94C36823EA35E0420E531EF201D1
:1056200065917591859194919058A40193010F947F
:10563000210DAB81BC816D937D938D939C931397CA
:1056400060918E0370918F038091900390919103EC
:1056500020E030E040E752E40F94480A7B018C01DF
:105660008AEF99E06EEF79E042E05AE026E03AE016
:10567000EEE0CE2EE7E0DE2E0E94206E0E94F77B49
:10568000ED81FE81E130F10549F0E230F105A1F054
:10569000EF2B09F03FC080B180950BC080B190E046
:1056A00014E0969587951A95E1F72D813E81822722
:1056B0009327817019F42EC007992CC0E3EAF2E019
:1056C000949108C08091C00085FFFCCF9093C600E4
:1056D000319694919923B1F7E1EFF4E0949108C0E9
:1056E0008091C00085FFFCCF9093C60031969491C5
:1056F0009923B1F78091C00085FFFCCF8AE08093A9
:10570000C6008D819E81029711F486E001C088E079
:1057100023DBA4C0F2012591359145915491E98193
:10572000FA81E4908D809E80880C991C880C991CCD
:10573000AAEF6A2EA9E07A2E680C791CCA01B90179
:105740000F9468095B016C01FF24E7FCF0940F2DB6
:105750001F2DC801B7010F94E30A9B01AC01C601DC
:10576000B5010F94210DD3016D937D938D939C937F
:105770001397F401E75AFC4F608171818281938114
:1057800020E030E040E450E40F94480A60938E0338
:1057900070938F03809390039093910320E030E007
:1057A00040E752E40F94480A7B018C018AEF99E0AC
:1057B0006EEF79E042E05AE026E03AE0FEE0CF2EDC
:1057C000F7E0DF2E0E94206E0E94F77BF401E35386
:1057D000FB4F659175918591949184010A51194F00
:1057E000F401EA50F94F20813181428153810F94B5
:1057F0006809F8016083718382839383F401E7521F
:10580000FB4F2591359145915491F401EE5FF84F8E
:105810002083318342835383F401EB51FB4F259165
:10582000359145915491ADE6B3E08A0E9B1EF4018B
:105830002083318342835383D3016D937D938D9372
:105840009C93139780E090E0A0E0B0E080938E03FB
:1058500090938F03A0939003B09391030E94867A54
:1058600026960FB6F894DEBF0FBECDBFCF91DF9165
:105870001F910F91FF90EF90DF90CF90BF90AF906E
:105880009F908F907F906F905F904F903F902F9060
:10589000089580911D0A90911E0A019660E070E0C3
:1058A0004AE050E00C94581C80911D0A90911E0A09
:1058B000019660E070E00C94FB1ACF93DF93EC014B
:1058C00080910E078093DC0984E517DD882309F4B5
:1058D0006EC0EADF0F94B50A262F6093DC096623B9
:1058E00009F465C0EDE9F2E0949108C08091C00030
:1058F00085FFFCCF9093C600319694919923B1F720
:10590000C936D10599F0CA36D10524F4C836D10577
:10591000F1F50FC0CD36D10531F0CA3DD105B9F54D
:10592000E0E0F2E031C0E7E1F2E023C0EEE2F2E0D5
:1059300015C0E5E4F2E007C08091C00085FFFCCF10
:1059400031969093C60090819923B1F720C0809141
:10595000C00085FFFCCF31969093C60090819923BB
:10596000B1F715C08091C00085FFFCCF31969093B0
:10597000C60090819923B1F70AC08091C00085FFCD
:10598000FCCF31969093C60090819923B1F783EBB9
:105990009DE0622F40E050E00E94A2528091C00042
:1059A00085FFFCCF8AE08093C60081E001C080E0E3
:1059B000DF91CF9108955F926F927F928F929F9225
:1059C000AF92BF92CF92DF92EF92FF920F931F930D
:1059D000DF93CF9300D00F92CDB7DEB719821A8232
:1059E0001B821C8286EEC82E86E0D82E0AEFE02E9F
:1059F00009E0F02E00E010E03E010894611C711CEB
:105A000055245394F801ED5AFB4F808176DC8823AE
:105A100059F14ADF4B015C01F801E052F94F8081F6
:105A2000882311F061E002C060910A0A70E08827C3
:105A300077FD8095982F0F94E30AF601208131813C
:105A4000428153810F94210D9B01AC01C501B4012A
:105A50000F946809F7016083718382839383F30154
:105A6000E00FF11F50820AC0F60180819181A2816E
:105A7000B381F70180839183A283B3830F5F1F4FAC
:105A800084E090E0C80ED91EE80EF91E043011051E
:105A900009F0B8CF86E431DC8823D9F005DF7B013B
:105AA0008C0160930B0A70930C0A80930D0A9093FB
:105AB0000E0A20E030E040E050E00F944F0C181642
:105AC00044F4E0928E03F0928F03009390031093BE
:105AD00091038091CC09882309F4C1C0898188236E
